:020000040800F2
:10000000A80A00209D0100080B230008331C0008EB
:100010000923000839070008A52600080000000091
:100020000000000000000000000000000F23000896
:100030003B070008000000000D2300081123000802
:10004000B7010008B7010008B7010008B7010008B0
:10005000B7010008B7010008B7010008B7010008A0
:10006000B7010008B7010008B7010008B701000890
:10007000B7010008B7010008B7010008B701000880
:10008000B7010008B7010008B7010008B701000870
:10009000B7010008B7010008B7010008B701000860
:1000A000B7010008B7010008B7010008B701000850
:1000B000B7010008B7010008B7010008B701000840
:1000C000B7010008B7010008B7010008B701000830
:1000D000B7010008B7010008B7010008B701000820
:1000E000B7010008B7010008B7010008B701000810
:1000F000B7010008B7010008B7010008B701000800
:10010000B7010008B7010008B7010008B7010008EF
:10011000B7010008B7010008B7010008B7010008DF
:10012000B7010008B7010008B7010008B7010008CF
:10013000B70100080000000000000000B70100083F
:10014000B7010008B7010008B7010008B7010008AF
:10015000B7010008B7010008B7010008B70100089F
:10016000B7010008B7010008B7010008B70100088F
:10017000B7010008B70100080000000000000000FF
:10018000B7010008B7010008DFF80CD000F02EFA24
:100190000048004775280008A80A00200648804744
:1001A00006480047FEE7FEE7FEE7FEE7FEE7FEE75C
:1001B000FEE7FEE7FEE7FEE7852300088901000869
:1001C0002DE9F05F0546002092469B46884606468C
:1001D000814640241BE0284641464746224600F01F
:1001E00061F953465A46C01A914110D31146184638
:1001F000224600F048F92D1A67EB01084F462246C7
:100200000120002100F03FF917EB00094E41201EAC
:10021000A4F10104DFDC484631462A464346BDE8E6
:10022000F09FD2B201E000F8012B491EFBD27047CB
:100230000022F6E710B513460A4604461946FFF7B2
:10024000F0FF204610BD2DE9FE4F81EA030404F0C3
:10025000004421F0004100944FF0000B23F00043D4
:1002600050EA01045ED052EA03045BD0C3F30A549F
:10027000C1F30A552C44A4F2F3340194A0FB0254B8
:10028000C1F3130141F48011C3F3130343F480134A
:1002900001FB024400FB034E840A970A44EA81549E
:1002A00047EA8357A4FB076802958D0A05FB07857B
:1002B0004FEA932C04FB0C542705029D4FEA065885
:1002C00047EA1637B5EB08056EEB070C870E920E62
:1002D00047EA811742EA8312A7FB0201B6EB0B0142
:1002E00064EB00042B0D43EA0C335E1844EB1C5006
:1002F000DA465146E7FB0201C5F313044FEA0B331C
:1003000043EA14534FEA0432019C43EA0603A4F182
:100310000C040294009CCDE900B400F019F903B07C
:10032000BDE8F08F00200146F9E72DE9F04D81EAA4
:10033000030404F0004B21F0004514464FF0000A7E
:1003400023F0004150EA050220D054EA01021DD0FA
:10035000C5F30A570246C5F31303C1F31300C1F3F3
:100360000A5640F4801543F48013A7EB0608101BCF
:10037000D64608F2FD3873EB050002D308F10108F8
:1003800001E092185B41B8F1000F03DA002001464A
:10039000BDE8F08D00204FF48011064684460EE043
:1003A000171B73EB050705D3121B63EB050306430D
:1003B0004CEA010C49084FEA300092185B4150EAC0
:1003C0000107EDD152EA030012D082EA040083EA69
:1003D0000501084305D0101BAB4106D201220023C2
:1003E00006E000224FF0004302E06FF001025310DC
:1003F0001AEB06004CEB085110EB0A0041EB0B0125
:10040000BDE8F04D00F095B80EB540F233410291D1
:100410000021CDE900110A460B4600F099F803B01F
:1004200000BD01F0004330B421F0004150EA010268
:1004300006D00A0DA2F56072C1F31301002A02DC96
:1004400030BC00207047440F44EAC104C100E018EA
:1004500030BC00EBC25000F035B830B50B46014659
:1004600000202022012409E021FA02F59D4205D353
:1004700003FA02F5491B04FA02F52844151EA2F1FD
:100480000102F1DC30BD202A04DB203A00FA02F13F
:10049000002070479140C2F1200320FA03F3194372
:1004A00090407047202A04DB203A21FA02F0002114
:1004B000704721FA02F3D040C2F120029140084374
:1004C000194670470029A8BF7047401C490008BF63
:1004D00020F00100704710B4B0FA80FC00FA0CF074
:1004E00050EA010404BF10BC704749B1CCF12004AC
:1004F00021FA04F411FA0CF118BF01212143084339
:10050000A3EB0C01CB1D4FEA00614FEA102042BF64
:10051000002010BC704700EBC35010440029A4BF5A
:1005200010BC7047401C490008BF20F0010010BCFF
:10053000704710B5141E73F1000408DA401C41F135
:10054000000192185B411A4301D120F0010010BD57
:100550002DE9F04D92469B4611B1B1FA81F202E0CD
:10056000B0FA80F220329046FFF78DFF04460F4626
:1005700040EA0A0041EA0B0153465A46084313D0A9
:10058000114653EA010019D0C8F140025046FFF766
:1005900089FF05460E46504659464246FFF773FF0F
:1005A000084305D0012004E020463946BDE8F08D1F
:1005B0000020054346EAE0762C4337430A9863055A
:1005C000E40AA0EB08000022FD0A44EA47540A307E
:1005D00002D500200146E9E7010510196941DDE96E
:1005E000084500196941BDE8F04DA2E7064C074DEA
:1005F00006E0E06840F0010394E8070098471034F3
:10060000AC42F6D3FFF7C4FD504C0008704C000814
:10061000464910B54A6822F440324A604A68436845
:100620001A434A6001684A6822F480724A6001688D
:100630004A68036942EA03224A6001684A6822F074
:1006400040724A6001684A6883681A434A600168D8
:100650008A6822F400628A6001688A68C3681A4363
:100660008A60816A6FF07062D14201688A6822F004
:1006700070628A6001688A680CD0836A1A438A6053
:1006800001688A6822F040528A6001688A68C36AF9
:100690001A4301E022F040528A6001688A6822F021
:1006A00002028A6001688A68037E42EA43028A6025
:1006B00090F82010002901684A680FD042F40062C7
:1006C0004A6001684A6822F460424A6001684A68E8
:1006D000174C436A04EB43331A4301E022F40062EF
:1006E0004A600168CA6A22F47002CA620168CA6A72
:1006F000838B104C04EB03531A43CA6201688A6867
:1007000022F400728A6001688A6890F8303042EA08
:1007100043228A6001688A6822F480628A600168E4
:100720008A68406942EA8020886010BD0023014049
:1007300000E0FFFF0000F0FFFEE770477047000099
:1007400078B50024009490F83C20012A19D00122A9
:1007500080F83C200A6807230568092A13D9EE6847
:100760000A3A02EB420293409E43EE600B788A689D
:100770000A3B03EB43039A400368DD682A43DA60CF
:1007800010E0022078BD2E6902EB420293409E43A6
:100790002E610B788A6803EB43039A4003681D6956
:1007A0002A431A614A681F23072A13D205686E6B11
:1007B000521E02EB820293409E436E630B790A88BD
:1007C0005B1E92B203EB83039A4003685D6B2A437E
:1007D0005A6327E005680D2A12D22E6BD21F02EB56
:1007E000820293409E432E630B790A88DB1F92B2EC
:1007F00003EB83039A4003681D6B2A431A6311E0DD
:10080000EE6A0D3A02EB820293409E43EE620B7950
:100810000A880D3B92B203EB83039A400368DD6ABA
:100820002A43DA62164B0568144A9D4206D10D68C8
:10083000122D03D1556845F48005556005689D4229
:1008400018D10B68102B01D0112B13D1536843F42E
:1008500000035360096810290CD10A490A4A096843
:10086000B1FBF2F101EB8101490000E0491E00916A
:100870000029FBD180F83C40002078BD00230140D6
:10088000002001400C00002040420F000068C06CB6
:10089000704770B504004FF0000503D0206C0026AF
:1008A00010B107E0012070BD204600F01DF866641D
:1008B00084F83C60206CC00610D4206C20F4885072
:1008C00040F0020020642046FFF7A2FE6664206C20
:1008D00020F0020040F00100206400E0012584F8CF
:1008E0003C60284670BD000030B587B00446142136
:1008F0006846FFF79DFC1949206888422CD11848AA
:100900000024016841F480710160006800F4807087
:10091000059013481438016841F004010160016832
:1009200001F004010591016841F0010101600068D6
:10093000032500F0010005900F20CDE90005694670
:100940000294084800F0ECF81C20CDE90005694647
:100950000294054800F0E4F807B030BD00200140E3
:100960004438024000080240000002402DE9F041F6
:10097000044600680D4681684FF0000749050BD515
:100980008068C00508D5206C40F02000206484F801
:100990003C700120BDE8F08100F0A6F906460FE0AA
:1009A000681C0DD025B100F09FF9801BA84207D923
:1009B000206C40F00400206484F83C700320E9E7D8
:1009C000206800688007EBD521686FF0120008608E
:1009D000206C40F4007020642068816811F0405F52
:1009E00013D1217E89B9C16A11F4700F02D08068D9
:1009F00040050AD4206C20F480702064206CC00470
:100A000003D4206C40F0010020640020C2E7000005
:100A100018B50021009190F83C20012A07D001224E
:100A200080F83C2002689368DB0702D011E00220C6
:100A300018BD936843F0010393602A4A2A4B126859
:100A4000B2FBF3F202EB420200E0521E0092002AD7
:100A5000FBD102689368DB0741D0036C40F201646C
:100A6000A34343F48073036453685B0505D5036CAB
:100A700023F4005343F480530364036CDB0404D574
:100A8000436C23F00603436400E0416480F83C10AB
:100A900016496FF02203136049680068CA061449BA
:100AA00006D088421BD1816811F0405F13D016E058
:100AB0008842F8D00F4A904203D1D1F80423D206DD
:100AC000F1D00D4A90420AD1D1F8041301F01F0170
:100AD0001029E8D303E0816841F080418160002063
:100AE00018BD00000C00002040420F000023014010
:100AF00000200140002101400022014070B5044661
:100B000000F0F2F80546601C02D004480078044466
:100B100000F0EAF8401BA042FAD370BD00000020AC
:100B20002DE9F84FDFF87CB100224FF001084FF0BB
:100B3000030A4FF00F090BF1040E00BF0B6808FA0F
:100B400002F42340A3426ED14D68022D01D0122D34
:100B50000ED1D50800EB850CDCF820505607F70EB7
:100B600009FA07F6B5430E69BE402E43CCF8206063
:100B7000066855000F790AFA05FC07F0030726EA14
:100B80000C06AF40374307604E68012E05D0022E99
:100B900003D0112E01D0122E0ED18668CF6826EA1E
:100BA0000C06AF40374387604668A6430C79C4F310
:100BB0000014944034434460C6688C6826EA0C06EE
:100BC000AC403443C4604C68E40065D5364C2568BD
:100BD00045F480452560246822F0030504F4804430
:100BE0000094324C2E19D6F8084895072F0F09FAB1
:100BF00007F5AC432E4DA84201D1002524E02D4D30
:100C0000A84201D101251FE02B4DA84201D10225A8
:100C10001AE02A4DA84201D1032515E0284DA8422B
:100C200002D1042510E037E0264DA84201D1052568
:100C30000AE0254DA84201D1062505E0234DA84232
:100C400001D1072500E00825BD402543C6F8085816
:100C5000DBF800405D464E689C43F60300D51C431C
:100C60002C60DEF8004075464E689C43B60300D504
:100C70001C432C600B4D08352C684E689C43F602D3
:100C800000D51C432C60074D0C352C684E689C43E6
:100C9000B60200D51C432C60521C102AFFF44EAF44
:100CA000BDE8F88F003C014044380240003001406C
:100CB000000002400004024000080240000C024014
:100CC000001002400014024000180240001C0240C4
:100CD000426931EA020200D10904816170470AB118
:100CE000816170470904FBE7014880687047000094
:100CF0000000002070B504001BD094F83D000025D2
:100D000020B984F83C50204600F046F9242084F8AD
:100D10003D002068016821F00101016000F0A4FAA3
:100D20004D4A6168914201D84C4900E04C498842E3
:100D300001D2012070BD4B492368B0FBF1F15E6820
:100D400026F03F060E435E606368934206D94FF477
:100D5000967359434FF47A73B1FBF3F12368491C3E
:100D60001E6A26F03F06314319626168914210D82D
:100D70004900401EB0FBF1F2521CC2F30B02042AE0
:100D800001D2042022E0B0FBF1F0401CC0F30B00C4
:100D90001CE0A368F3B301EBC10202EB0116421E93
:100DA000B2FBF6F2521C42F48042120549D093B3D2
:100DB00001EBC10202EB0111401EB0FBF1F0401C3F
:100DC000C0F30B0040F4804040F400402168CA6941
:100DD0004CF6FF739A431043C861D4E907010843F6
:100DE00021680A6822F0C00210430860D4E90301B8
:100DF00001432068826848F2FF339A4311438160BF
:100E0000D4E9050108432168CA6822F0FF021043B3
:100E1000C86001E00EE016E02068016841F00101C1
:100E200001602564202084F83D00256384F83E504D
:100E3000002070BD01EB4106421EB2FBF6F2521CCF
:100E4000B3E70120C2E701EB4101401EB0FBF1F026
:100E5000401CC0F30B00B7E7A086010080841E0091
:100E600000093D0040420F002DE9FF4F83B09A4634
:100E7000DDE9119793460446DDF84080FFF734FF23
:100E8000054694F83D0020287FD1192301224049CE
:100E90002046009500F056FF002876D194F83C00DB
:100EA000012872D0012084F83C0020680168C9073D
:100EB00003D1016841F0010101602068016821F45B
:100EC00000610160212084F83D00402084F83E004C
:100ED00000262664C4F82480A4F82A90608D20851A
:100EE0002C48E062CDE9007553465A4620460499E5
:100EF00000F0B8FE70B930E02A463946204600F0CE
:100F0000A0FF58B1206C042804D12068016841F486
:100F100000710160012007B0BDE8F08F606A2168B0
:100F200000780861606A401C6062218D491E89B2A8
:100F30002185628D521E628522685369DB435B07FF
:100F40000BD469B100781061606A401C6062208D2A
:100F5000401E2085608D401E6085208D0028CBD1ED
:100F60002A463946204600F0C7FE0028CAD154F868
:100F70003D0B016841F400710160202004F81E0956
:100F8000E67766770020C6E7FFE70220C3E70000A8
:100F9000020010000000FFFFF0B587B004461421E6
:100FA0006846FFF745F91A49206888422DD119484B
:100FB000016841F004010160016801F0040105913C
:100FC000016841F0010101600068122400F0010095
:100FD00005904FF400700125032604278DE8F100E9
:100FE00069460D48FFF79CFD28028DE8F10069462F
:100FF0000A48FFF795FD07481030016841F40001E9
:101000000160006800F40000059007B0F0BD00002A
:10101000005C0040303802400008024000000240FE
:101020000248816802781144816070470000002006
:101030000B4810B5016841F400710160016841F48A
:1010400080610160016841F480710160032000F05B
:1010500061F8002000F006F800F024F8002010BD30
:10106000003C024070B50D4D04464FF47A7128786B
:10107000B1FBF0F00A490968B1FBF0F000F03AFB6F
:1010800048B9102C07D200222146501E00F022F849
:1010900000206C6070BD012070BD000000000020C9
:1010A0000C0000200A4808B5016841F48041016045
:1010B000006800F4804000900548001F016841F07E
:1010C00080510160006800F08050009008BD000071
:1010D00044380240F0B40E4B1B680C46C3F30223A5
:1010E000C3F10705042D00D90425191D072901D2D4
:1010F000002300E0DB1E012606FA05F1491E21400F
:1011000099409E40761E16403143F0BC01F0DCBA97
:101110000CED00E0064900F0070208684FF6FF03F7
:10112000184040EA0220034A10430860704700005C
:101130000CED00E00000FA052DE9F0470E46050031
:1011400065D0DFF81481D8F80000F7B200F00F0086
:10115000B04207D288F80070D8F8000000F00F0005
:10116000B04254D128683D4C810712D5400703D5C1
:10117000206840F4E05020602878000703D52068FC
:1011800040F4604020602068A96820F0F000084327
:1011900020602878C0072DD03049686808390128B8
:1011A00012D0022813D0032811D00968890700291A
:1011B0002DDA216821F0030101432160FFF794FD3E
:1011C000814641F2883A0EE009688903EFE7096831
:1011D0008901ECE7FFF788FDA0EB0901514502D931
:1011E0000320BDE8F0872068696800F00C00B0EBD0
:1011F000810FEFD1D8F80010404601F00F01B14245
:1012000007D90770006800F00F00B04201D001203C
:10121000E7E72878400705D52068E96820F4E05022
:10122000084320602878000706D52068296920F443
:10123000604040EAC100206000F026F82168084ABA
:10124000C1F30311515CC840064908600020FFF754
:1012500009FF0020C5E70000003C024008380240BA
:10126000902B00080C00002004480549006809681C
:10127000044AC1F38221515CC84070470C00002031
:1012800008380240A02B0008154810B5006810F07F
:101290000C02144813D01449042A0FD0082A0ED186
:1012A0000F4C241F2268236802F03F025B0207D51F
:1012B0002068C0F38810A0FB010106E0084610BDBD
:1012C0002168C1F38811A1FB00010023FEF778FF1C
:1012D0002168C1F30141491C4900B0FBF1F010BD88
:1012E000083802400024F40040787D012DE9F84FD1
:1012F000050076D02878DFF8F8B2BE4CC00749D098
:10130000DBF800105846C1F38101012908D00068BC
:10131000C0F3810002280AD1201D0068400206D5D2
:101320002068800336D568680028E2D032E068681B
:10133000B0F5803F10D0B0F5A02F206810D020F479
:1013400080302060206820F4802020606868A0B190
:10135000FFF7CAFC06460CE0206840F48030F4E752
:1013600040F480202060F7E7FFF7BEFC801B642874
:1013700073D820688003F7D50CE0FFF7B5FC06466C
:1013800005E000BFFFF7B0FC801B6428F0D82068A0
:101390008003F7D42878DFF8608280074FF00009D7
:1013A0003ED5DBF80010584611F00C0F09D000684C
:1013B000C0F3810002280BD18D48001F0068400255
:1013C00006D42068800715D5E868012809D111E006
:1013D000E868B8B10120C8F80000FFF785FC0646B0
:1013E00005E002E1FFF780FC801B0228C0D82068DE
:1013F0008007F7D52068296920F0F80040EAC1008D
:1014000020600DE0C8F80090FFF76EFC064604E08F
:10141000FFF76AFC801B02281FD820688007F7D4DA
:101420002878000722D5724E744869696C3671B10C
:1014300001210160FFF758FC074604E0FFF754FC68
:10144000C01B022809D830688007F7D50EE0C0F825
:101450000090FFF749FC074605E083E0FFF744FCF6
:10146000C01B02287ED830688007F7D42878400750
:1014700068D5DFF87CA100270AF1380ADAF8000005
:10148000C0000BD4DAF8001041F08051CAF8001007
:10149000DAF80000012700F080500090584E3068C4
:1014A000C00510D4306840F480703060FFF71CFC39
:1014B000009005E0FFF718FC0099401A022851D867
:1014C0003068C005F6D54A4EA868683601280FD0A6
:1014D0000528306810D020F001003060306820F01E
:1014E00004003060A868B8B1FFF7FEFB00900FE081
:1014F000306840F00100F4E740F004003060F7E7A6
:10150000FFF7F2FB0099411A41F28830814264D81A
:1015100030688007F4D50EE0FFF7E6FB009007E0A7
:10152000FFF7E2FB0099411A41F28830814254D81A
:1015300030688007F4D42FB1DAF8001021F0805120
:10154000CAF80010A869C0B3DBF80010C1F381012C
:1015500002294AD00228484607D0C8F86000FFF7A1
:10156000C3FB00E039E005463AE04746C8F86000B2
:10157000FFF7BAFB064604E0FFF7B6FB801B022824
:101580002BD820688001F7D4D5E907010843A96A60
:101590001C4A490802EB01416A6A41EA8211084388
:1015A00095F82C1040EA01611148001F01600120EC
:1015B0003866FFF799FB054605E014E0FFF794FB5A
:1015C000401B022809D820688001F7D50BE000BF36
:1015D000FFF78AFB401B022802D90320BDE8F88FE1
:1015E00020688001F4D40020F8E70120F6E700002D
:1015F000083802400038024000004742800E47424F
:10160000007000400000FFFF70B5040005D0002509
:10161000A56294F8510010B106E0012070BD84F875
:101620005050204600F030F8022084F85100206825
:10163000016821F040010160D4E901010843D4E9C7
:1016400003121143084361690843218B01F40071BF
:101650000843E1690843216A0843A16A08432168F5
:101660000860A069042101EA1040616A084321680A
:1016700048602068C16921F40061C161656501208D
:1016800084F85100002070BD10B586B004461421C6
:101690006846FEF7CDFD14492068884221D11348E1
:1016A0000021026842F480420260006800F4804039
:1016B00005900E481038026842F00202026000688D
:1016C00000F0020005904FF4444000900220CDE964
:1016D0000101032003900520049069460448FFF7A8
:1016E0001FFA06B010BD000000380040403802402C
:1016F0000004024010B5401EB0F1807F01D30120EC
:1017000010BD4FF0E02460610F21601700F0DCFF96
:101710000020A06107202061002010BD10B590F8C6
:101720003C20012A22D0012280F83C20CA688C6823
:1017300022F4407222434C6822F4806222430C68F7
:1017400022F4006222430C6922F4805222434C6945
:1017500022F400522243C969002322F480420A4342
:1017600001684A6480F83C30002010BD022010BDA2
:1017700070B590F83C20012A19D0012400F83C4FA4
:101780000222427050F83C3C5A689D6822F0700674
:101790000A684968324325F0800529435A6050F8A9
:1017A0003C2C9160447000210170084670BD0220FD
:1017B00070BD2DE9F0410D46040003D094F83D00C2
:1017C00018B108E00120BDE8F081002084F83C0059
:1017D000204600F03BF8022084F83D002068816834
:1017E00044F2070291438160211D206800F0F4FD5E
:1017F000226890689169166A2B68AF69034340F2CA
:101800000330814341EA0721A868EF6908434FF696
:10181000FC418843E96840EA0720014328692F6AB0
:10182000000140EA0730084369686D6926F0AA069E
:1018300046EA051529439360226890612068016299
:10184000012084F83D000020BDE7000070B586B09F
:10185000044614216846FEF7EBFC2A49236800245D
:10186000284A103902252848B3F1804F1ED0274E50
:10187000B34219D1136843F008031360126802F0F1
:10188000080205920A6842F001020A60096801F044
:101890000101059103210091CDE901546946CDE98B
:1018A000034500BFFFF73CF906B070BD136843F075
:1018B00001031360126802F0010205920A6842F007
:1018C00001020A600A6802F0010205920A6842F009
:1018D00002020A600968012601F002010591202137
:1018E0000091CDE90154CDE903466946FFF718F9A7
:1018F00008200090CDE90154CDE90346694604482B
:10190000D0E700004038024000000240000C0040D8
:101910000004024010B50446006891B1042904D0C7
:101920000122002100F0BCFD206801225FF00401CB
:1019300000F0B6FD2068016841F00101016000205F
:1019400010BD01220021F3E770B586B004461421D2
:101950006846FEF76DFC284B2268002427490225C3
:1019600027489A4210D10A6842F001020A600968C9
:1019700001F001010591C1140091CDE9015401214B
:10198000CDE9034169461EE01E4B1F4E9A421ED10F
:101990000A6842F001020A600A6802F00102059238
:1019A0000A6842F002020A60096801F0020105912A
:1019B000C0210091CDE901546946CDE90345FFF707
:1019C000AFF8032010E0FFF7ABF806B070BD0F488A
:1019D0008242FAD1086840F002000860086800F00E
:1019E000020005904FF440700090CDE90154694623
:1019F0003046CDE90345E6E70000014030380240BB
:101A000000000240000400400004024000080040C2
:101A100070B5044690F83C000D4601280DD0012613
:101A200084F83C60022084F83D0042B1042A18D0BA
:101A3000082A2AD00C2A4DD139E0022070BD206836
:101A400000F03CFD2068816941F008018161206857
:101A5000816921F004018161206881692A6911434B
:101A600011E0206800F05AFD2068816941F40061AE
:101A700081612068816921F48061816120688169C8
:101A80002A6941EA0221816124E0206800F07CFD9E
:101A90002068C16941F00801C1612068C16921F075
:101AA0000401C1612068C1692A69114311E02068FD
:101AB00000F09EFD2068C16941F40061C1612068A9
:101AC000C16921F48061C1612068C1692A6941EA64
:101AD0000221C16184F83D60002084F83C0070BDA3
:101AE00010B5040003D094F83D0010B107E00120C8
:101AF00010BD002084F83C00204600F00DF80220C4
:101B000084F83D00211D206800F066FC012084F867
:101B10003D00002010BD000008B501681248814258
:101B200008D11248016841F001010160006800F02D
:101B300001000BE00D480E4A001F914208D10168D8
:101B400041F002010160006800F00200009008BD51
:101B5000084A9142FBD1016841F00401016000682C
:101B600000F00400F2E700000000014044380240A9
:101B700000040040000800402DE9F843044690F8B6
:101B800039001F4616460D46202850D1A5B19EB1FA
:101B900094F8380001284AD0012084F838004FF02A
:101BA0000008C4F83C80212084F83900FFF79CF835
:101BB000A6848146E68426E00120BDE8F883E08C17
:101BC000401EE084A0684B46B0F5805F4FF00002F5
:101BD0004FF080012046009703D000F031FDE8B9B6
:101BE0000DE000F02DFDC8B928882168C0F3080079
:101BF0004860206908B16D1C05E0AD1C03E0216858
:101C000015F8010B4860E08C0028D8D14B46002223
:101C100040212046009700F013FD08B10320CCE7D7
:101C2000202084F8390084F838800020C5E702209D
:101C3000C3E7FEE701684A69D24352050FD46FF447
:101C400080624A61002140F8301F20224273817374
:101C5000026942F004020261017301207047002012
:101C6000704700002DE9F843044600680D46DDE9A1
:101C7000089701689846164641F4807101604B460A
:101C800000224FF001112046009700F05BF8E0B908
:101C9000216805F0FE0008613B464A46154920468A
:101CA00000F084F888B920684169806900903A465C
:101CB0004946204600F0C5F850B1206C042804D1F4
:101CC0002068016841F4007101600120BDE8F883DB
:101CD000F5B2B8F1010F09D02168300A08613A461F
:101CE0004946204600F0ADF80028E6D1206805619D
:101CF0000020EBE70200010070B516460D460446D1
:101D00000DE02046FFF796FF08B1012070BD681C6A
:101D100005D0FEF7E9FF801BA84207D835B120683F
:101D20004069C0434007ECD4002070BD002044F857
:101D3000300F20216173A073216941F020012161DE
:101D40002073E2E72DE9F0471E4690460D46044613
:101D5000C1F30747DDF8209008E0701C06D0FEF7BD
:101D6000C3FFA0EB0900B0420FD876B12068012F65
:101D700018D0806925EA00000004000C14D000216E
:101D80004145EAD00020BDE8F087002044F8300F3C
:101D900020216173A073216941F02001216120732A
:101DA0000120F0E74069E5E70121E9E72DE9F04787
:101DB0009A4691460E46044600254FF02008C1F38E
:101DC000074725E020684069C043400514D42068D7
:101DD000016841F40071016021686FF4806048611E
:101DE000256384F83D8084F83E50206C40F0040068
:101DF000206484F83C501FE0B9F1FF3F08D0FEF7A3
:101E000073FFA0EB0A0149450CD8B9F1000F09D0C6
:101E10002068012F13D0806926EA00000004000C1E
:101E20000BD0CFE744F8305F84F80D80A5732069AC
:101E300040F02000206125730120BDE8F087406953
:101E4000EAE770B516460D4604460DE02046FFF75A
:101E5000F1FE08B1012070BD681C05D0FEF744FFFB
:101E6000801BA84207D835B120684069C0430006EE
:101E7000ECD4002070BD002044F8300F20216173A5
:101E8000A073216941F0200121612073E2E7000085
:101E90001FB500211648009101910291134A039148
:101EA00002604FF48032426052028260016101762A
:101EB00080F820100F4AC0E90A210124C461C160E2
:101EC00080F830104461FEF7E4FC08B1FEF736FC00
:101ED0000320CDE900040220029069460448FEF781
:101EE0002FFC002801D0FEF729FC1FBD0020014077
:101EF000340400200100000F2DE9F04F87B01421B9
:101F00006846FEF795F939480024016841F004015C
:101F10000160016801F004010591016841F00101CF
:101F20000160016801F001010591016841F00201C1
:101F30000160016801F002010591016841F00801AA
:101F400001600068DFF8A89000F0080043F2F00597
:101F50000590002229464846FEF7C1FEDFF894A00E
:101F60004FF40047002239465046FEF7B8FEDFF82E
:101F700088B04FF44068002241465846FEF7AFFE55
:101F80003020CDE90004694658460294FEF7C8FDAA
:101F90000426CDE90064694648460294FEF7C0FD78
:101FA00000950125CDE90154694648460394FEF7A2
:101FB000B7FD0097CDE90154694650460394FEF7FA
:101FC000AFFDCDF80080CDE9015469465846039431
:101FD000FEF7A6FD09480096CDE9010469460848C8
:101FE000FEF79EFD07B0BDE8F08F000030380240DC
:101FF00000040240000002400008024000001110EE
:10200000000C02400D4810B50B4901600C494160BD
:1020100000214FF480428160C0E903124161816177
:10202000C1610162FEF766FE002803D0BDE81040E2
:10203000FEF784BB10BD0000005C00407C04002063
:10204000801A0600104810B50E4901604FF48271E5
:10205000416000218160C1604FF400720161C0E9FC
:1020600005122022C0E90721416281620A21C16272
:10207000FFF7CAFA002803D0BDE81040FEF75EBBA8
:1020800010BD000000380040D004002010B592B010
:1020900000240F941C2108A81094FEF7C9F82021F1
:1020A0006846FEF7C5F81E481C49C0E90014846064
:1020B000C460046144618461FFF712FD08B1FEF75A
:1020C0003DFB0F940FA916481094FFF751FB08B180
:1020D000FEF734FB6020CDE908040A940C940D94BB
:1020E0000C2208A90E480E94FFF792FC08B1FEF7E7
:1020F00025FB00944FF40050CDE904400294019474
:102100000394694606480794FFF708FB08B1FEF7F9
:1021100015FB0348FFF718FC12B010BD000001408A
:102120002805002010B58CB024216846FEF780F801
:102130000024144809944FF080410A94C0E9001427
:102140008460C460046184610320CDE9000401203F
:10215000CDE902040494CDE9054007946946094895
:102160000894FFF726FB08B1FEF7E8FA099409A9DD
:1021700004480A94FFF7FCFA002801D0FEF7DEFAC3
:102180000CB010BD6805002010B58AB0002407947B
:102190001C2168460894FEF74BF821481F49C0E906
:1021A00000148460C46004618461FFF799FC08B185
:1021B000FEF7C4FA079407A919480894FFF7D8FA5C
:1021C00008B1FEF7BBFA6020CDE9000402940022BA
:1021D000694613480494FFF71BFC08B1FEF7AEFAFA
:1021E000042269460E48FFF713FC08B1FEF7A6FA71
:1021F000082269460A48FFF70BFC08B1FEF79EFA71
:102200000C2269460648FFF703FC08B1FEF796FA70
:102210000348FFF799FB0AB010BD0000000400401E
:10222000A805002010B58AB0002407941C21684638
:102230000894FDF7FDFF19481749C0E900148460B0
:10224000C46004618461FFF74BFC08B1FEF776FAC5
:10225000079407A911480894FFF78AFA08B1FEF716
:102260006DFA6020CDE900040294082269460B480B
:102270000494FFF7CDFB08B1FEF760FA0C22694623
:102280000648FFF7C5FB08B1FEF758FA0348FFF709
:102290005BFB0AB010BD000000080040E80500200C
:1022A00010B58CB024216846FDF7C2FF0024154804
:1022B000099413490A94C0E90014611EC0E902415F
:1022C000046184610320CDE900040120CDE902040A
:1022D0000494CDE90540079469460A480894FFF73D
:1022E00068FA08B1FEF72AFA099409A905480A9480
:1022F000FFF73EFA002801D0FEF720FA0CB010BD1F
:10230000000C004028060020FEE770477047704729
:10231000FEF786BE10B592B030216846FDF788FF03
:1023200014210CA8FDF784FF14480024016841F033
:1023300080510160006800F08050119010480168E1
:1023400041F4804101600068069400F480401190DF
:102350000220009001200390102004906846FEF7B0
:10236000C5FF0F20CDE90C040E940F9400210CA89A
:102370001094FEF7E1FE12B010BD0000403802409C
:10238000007000401048016841F4700101600F487E
:10239000016841F0010101600C4A0021083211601E
:1023A00002680B4B1A400260031D0A4A1A60026859
:1023B00022F48022026005480C3001600249580670
:1023C000803908607047000088ED00E00038024066
:1023D000FFFFF6FE10300024F0B50268254C264DB4
:1023E000264E274F274B4FF0804CA04209D0604526
:1023F00007D0A84205D0B04203D0B84201D09842DD
:1024000004D122F0700E4A6842EA0E02A0421BD0AC
:10241000604519D0A84217D0B04215D0B84213D0A9
:10242000984211D0184DA8420ED0184DA8420BD09A
:10243000174DA84208D0174DA84205D0164DA84206
:1024400002D0164DA84203D122F44075CA682A432F
:102450004D6922F080022A4302608A68C2620A68DB
:102460008262A04201D0984201D109690163012131
:102470004161F0BD00000140000400400008004040
:10248000000C0040000401400040014000440140B5
:102490000048014000180040001C0040002000409F
:1024A00010B501F01F030121046A99408C430462B6
:1024B000016A9A401143016210BD0000F0B5026A42
:1024C00022F001020262036A42688469124E24F01B
:1024D00073050C682C4323F002058B682B430D4DCC
:1024E000A84201D0B04205D123F00807CB683B4396
:1024F00023F00403A84201D0B04205D14D6922F473
:10250000407215438A692A43426084614968416385
:102510000362F0BD0000014000040140F0B5026A12
:1025200022F010020262026A436884690D6824F492
:10253000E64444EA05248D6822F0200242EA0512AE
:102540000F4D104EA84201D0B04206D1CF6822F004
:10255000800242EA071222F04002A84201D0B042B3
:1025600007D14D6923F4406343EA85038D6943EA4B
:10257000850343608461496881630262F0BD0000A5
:102580000000014000040140F0B5026A22F48072AC
:102590000262026A4368C46922F4007224F073057F
:1025A0000C68124E2C438D6842EA05220E4DA8425B
:1025B00001D0B04206D1CF6822F4006242EA07227D
:1025C00022F48062A84201D0B04207D14D6923F4C1
:1025D000405343EA05138D6943EA05134360C46120
:1025E0004968C1630262F0BD00000140000401407F
:1025F00030B5026A22F480520262046A4268C369FA
:102600000D6823F4E64343EA05238D6824F400545F
:1026100044EA0534084DA84202D0084DA84204D12E
:102620004D6922F4804242EA85124260C3614968E2
:102630000164046230BD000000000140000401405C
:102640002DE9F041984617460E460446069D1DE0CA
:10265000681C1BD02DB1FEF747FBA0EB0800A84279
:1026600014D92068C16821F4D071C1602068416923
:1026700021F001014161202084F8390084F83A00FA
:10268000002084F838000320BDE8F081206800684D
:1026900036EA000004D00020B842D9D00020F3E789
:1026A0000120F9E7FEE700000FB4054B10B503A9C0
:1026B000044A029800F028F810BC5DF814FB0000F2
:1026C0005D280008300000200907090E002804DBFF
:1026D00000F1E02080F80014704700F00F0000F1D6
:1026E000E02080F8141D704702E008C8121F08C1DE
:1026F000002AFAD170477047002001E001C1121F83
:10270000002AFBD1704700002DE9FF4F89B09B469E
:102710000446002506E025280BD05A460B99904721
:10272000641C6D1C20780028F5D10DB02846BDE84A
:10273000F08F0027B8460122474900E0074314F80C
:10274000013F203B02FA03F00842F7D120782E28FF
:1027500019D114F8010F47F004072A280ED06FF0A2
:102760002F022078A0F1300109290CD808EB88014C
:1027700002EB410100EB0108641CF2E70A98641CBB
:1027800050F8048B0A9020780028CED0642808D016
:10279000692806D075281ED05A460B9990476D1CA3
:1027A00058E00A994FF00A0901C90A91002802DA93
:1027B00040422D2102E0390504D52B218DF820104F
:1027C000012103E0F90704D02021F7E78A4608AE8B
:1027D0000DE00021FAE70A994FF00A0901C90A91B0
:1027E000F7E74946FDF739FE303106F8011D0028AC
:1027F000F7D1ADEB060000F12009780701D44FF0C6
:102800000108C84502DDA8EB090000E00020804671
:10281000002706E008A85A46C05D0B9990476D1C3A
:102820007F1C5745F6DB04E030205A460B99904751
:102830006D1CB8F10001A8F10108F5DC05E016F8FF
:10284000010B5A460B9990476D1CB9F10001A9F193
:102850000109F4DC641C65E70928010013B54FF693
:10286000FF73012269460248FFF786F900981CBDF4
:1028700068060020FEF7DCFBFFF74CFDFFF73CFB92
:10288000FFF706FBFFF7BEFBFFF7DCFBFFF7FEFBE6
:10289000FFF748FCFFF778FCFFF7C4FCFFF700FDEB
:1028A00020A0FFF701FF00F067F83C212548FFF763
:1028B00031F83C212448FFF72DF8244E4FF4806571
:1028C0002348FEF7A5F805212148FEF74FF808BB7D
:1028D0001F48FDF7DBFF1F4C2060FDF795FD9FEDC6
:1028E0001E1B53EC112BFDF7AEFC9FED1D1B53EC93
:1028F000112BFDF7A8FC9FED1C1B53EC112BFDF7D2
:10290000A2FC9FED1B1B53EC112BFDF70EFDFDF7F9
:1029100088FD60603220FEF7F1F829463046FEF768
:10292000D7F9CDE72D2D2D2D2D2D2D2D2D2D2052EF
:1029300045534554202D2D2D2D2D2D2D2D2D2D2D57
:102940000D0A00006805002028060020000802404B
:102950003404002028000020000000000000703F28
:102960006666666666660A4000000000004CDD4050
:10297000000000000088C34010B5012000F050F8AE
:102980001721192000F05CF80F480023D0E900124D
:102990000EA000F0E7F800F059F84FF47A70FEF757
:1029A000ADF8002000F03CF81321182000F048F8A2
:1029B00008480123D0E9001207A000F0D3F8BDE8D1
:1029C000104000F043B80000180000204C6F616414
:1029D000696E6700200000204A45525259000000ED
:1029E00070B5802813D2402911D20B4B012401F07D
:1029F00007051E79AC40094BC90800EBC1100EB1A8
:102A000032B101E0012A03D0195CA143195470BD11
:102A1000195C2143FAE70000100000203400002078
:102A200010B5064A00214FF4806328B1FF245454A6
:102A3000491C9942F9D310BD0024F8E73400002066
:102A4000014A1080518070471000002070B50C4D75
:102A5000002400BF04F1B000C0B200F061F8002013
:102A600000F05EF8102000F05BF805EBC410802148
:102A700000F068F8641CE4B2082CEBD370BD0000D1
:102A8000340000202DE9FF4F834624489246CEB201
:102A900002883244802A06D281464088C1F3072743
:102AA0003844402803D3002004B0BDE8F08F00254F
:102AB00028E000BFABF1200010FB07503AF810806F
:102AC00000241CE008FA04F0000409D599F802106B
:102AD00099F8000029442044C9B2C0B2039A0BE01F
:102AE0000398C0B15FF0000299F8021099F8000055
:102AF00029442044C9B2C0B2FFF772FF641CA64249
:102B0000E0D86D1CAF42D5D8B9F800105846314412
:102B1000A9F80010C8E70122E6E700001000002035
:102B200001B584B001214FF0FF3204A88DE8070001
:102B30000B46002278210248FEF796F905B000BD49
:102B40007C0400200EB54FF0FF3289B28DE80700FB
:102B50000123402278210248FEF786F90EBD0000CD
:102B60007C040020F0B51D460E46174604460AE0D8
:102B70002B463A463146FFF785FF2178884201D03F
:102B8000C8B2F0BD641C20780028F1D1C0B2F0BDFD
:102B9000000000000000000001020304060708090D
:102BA000000000000102030400000000000000001B
:102BB0000000000000000000000000000000000015
:102BC0000000000000000000000000000000000CF9
:102BD000000C000C000C000C000C000C000C000C95
:102BE000000C000C0000000C000C000000000000B5
:102BF0000000001B001B001B001B001B000000004E
:102C000000000000000000000000000000000000C4
:102C10000000000000008019801980198019C07F11
:102C2000C07F80190033C07FC07F00330033003382
:102C300000330000000000000000001E003F80750F
:102C400080650074003C001E00078005806580657B
:102C50008075003F001E00040004000000000070AA
:102C600000D840D8C0D880D900730006000C801B63
:102C7000C036C066C046C0068003000000000000E9
:102C80000000001E003F003300330033001E000C24
:102C9000C03CC066806380618063C03E801C0000D1
:102CA000000000000000000C000C000C000C000CE8
:102CB0000000000000000000000000000000000014
:102CC000000000000000000080000001000300067A
:102CD00000060004000C000C000C000C000C000CA2
:102CE0000004000600060003000180000020001020
:102CF0000018000C000C0004000600060006000688
:102D0000000600060004000C000C00180010002053
:102D10000000000C002D003F001E003300000000EA
:102D200000000000000000000000000000000000A3
:102D300000000000000000000000000C000C000C6F
:102D4000000CC0FFC0FF000C000C000C000C0000C9
:102D50000000000000000000000000000000000073
:102D60000000000000000000000000000000000063
:102D70000000000C000C000400040008000000002B
:102D80000000000000000000000000000000001E25
:102D9000001E000000000000000000000000000015
:102DA0000000000000000000000000000000000023
:102DB00000000000000000000000000C000C0000FB
:102DC00000000000000000030003000300060006EE
:102DD00000060006000C000C000C000C0018001887
:102DE00000180000000000000000001E003F00333B
:102DF000806180618061806D806D806180618061B3
:102E00000033003F001E000000000000000000062C
:102E1000000E001E00360026000600060006000612
:102E20000006000600060006000600000000000084
:102E30000000001E003F80738061806180010003FC
:102E40000006000C001800300060807F807F0000CA
:102E5000000000000000001C003E0063006300034F
:102E6000000E000E00038001800180618073003F2E
:102E7000001E00000000000000000006000E000E12
:102E8000001E001E0016003600360066807F807F20
:102E90000006000600060000000000000000007FA1
:102EA000007F006000600060006E007F8063800132
:102EB000800180618073003F001E00000000000060
:102EC0000000001E003F803380610060006E007FC4
:102ED00080738061806180618033003F001E00004C
:102EE000000000000000807F807F8001000300035D
:102EF00000060006000C000C000C0008001800186A
:102F000000180000000000000000001E003F806369
:102F1000806180610021001E003F806180618061CE
:102F20008061003F001E0000000000000000001E45
:102F3000003F00738061806180618073803F801DED
:102F4000800180610073003F001E0000000000004F
:102F500000000000000000000000000C000C000059
:102F600000000000000000000000000C000C000049
:102F70000000000000000000000000000000000051
:102F8000000C000C00000000000000000000000C1D
:102F9000000C000400040008000000000000000015
:102FA00080008003000E003800600038000E8003AF
:102FB0008000000000000000000000000000000091
:102FC000000000000000807F807F00000000807F04
:102FD000807F0000000000000000000000000000F2
:102FE000000000000000000000400070001C00070E
:102FF00080010007001C007000400000000000007D
:10300000000000000000001F803FC071C060C000D1
:10301000C00180030007000E000C000C0000000C33
:10302000000C0000000000000000001E003F803186
:1030300080718063806F806D806D806F80670060BD
:103040000032003E001C0000000000000000000EE6
:10305000000E001B001B001B001B80318031803FD5
:10306000803F8031C060C060C06000000000000090
:103070000000007C007E0063006300630063007E4C
:10308000007E0063806180618063007F007E0000BD
:10309000000000000000001E003F803180610060E1
:1030A0000060006000600060006080618031003F6F
:1030B000001E0000000000000000007C007F006394
:1030C0008063806180618061806180618061006374
:1030D0000063007E007C0000000000000000807F94
:1030E000807F0060006000600060007F007F006003
:1030F000006000600060807F807F000000000000B2
:103100000000807F807F0060006000600060007FC2
:10311000007F0060006000600060006000600000F0
:10312000000000000000001E003F80318061006050
:103130000060006080638063806180618031803FD7
:10314000001E0000000000000000806180618061BE
:10315000806180618061807F807F8061806180612B
:103160008061806180610000000000000000003F7D
:10317000003F000C000C000C000C000C000C000CBC
:10318000000C000C000C003F003F0000000000009D
:1031900000008001800180018001800180018001A8
:1031A00080018001806180618073003F001E00000B
:1031B000000000000000C0608061006300660066DF
:1031C000006C0078007C00660066006380618061AE
:1031D000C0600000000000000000006000600060AF
:1031E00000600060006000600060006000600060DF
:1031F0000060807F807F0000000000000000C07140
:10320000C071C07BC07AC06AC06AC06EC064C06052
:10321000C060C060C060C060C0600000000000000E
:10322000000080718071807980798079806D806DF7
:10323000806D806580678067806780638063000041
:10324000000000000000001E003F0033806180612C
:103250008061806180618061806180610033003FB6
:10326000001E0000000000000000007E007F806360
:103270008061806180618063007F007E006000600B
:103280000060006000600000000000000000001E00
:10329000003F003380618061806180618061806176
:1032A000806580670033803F401E00000000000002
:1032B0000000007E007F8063806180618063007F0A
:1032C000007E00660063006380618061C060000072
:1032D000000000000000000E001F8031803100302F
:1032E0000038001E00078003806180618031003F4C
:1032F000001E0000000000000000C0FFC0FF000C26
:10330000000C000C000C000C000C000C000C000C5D
:10331000000C000C000C00000000000000008061A8
:103320008061806180618061806180618061806195
:10333000806180618073003F001E0000000000007B
:103340000000C060C060C060803180318031001BEF
:10335000001B001B001B000E000E000E00040000EE
:10336000000000000000C0C0C0C0C0C0C0C0C0C0DD
:10337000C0CC804C804C805E8052805280738061D3
:1033800080610000000000000000C0C0806080611B
:103390000033003B001E000C000C001E001F003B11
:1033A00080718061C0C00000000000000000C0C04B
:1033B0008061806100330033001E001E000C000C91
:1033C000000C000C000C000C000C000000000000C1
:1033D0000000803F803F8001000300030006000CD6
:1033E000000C0018001800300060807F807F000013
:1033F00000000000000F000F000C000C000C000C7F
:10340000000C000C000C000C000C000C000C000C5C
:10341000000C000C000F000F00000018001800182E
:10342000000C000C000C000C000600060006000654
:10343000000300030003000000000000001E001E47
:10344000000600060006000600060006000600064C
:10345000000600060006000600060006001E001E0C
:103460000000000C000C001E0012003300338061CD
:10347000806100000000000000000000000000006B
:10348000000000000000000000000000000000003C
:10349000000000000000000000000000000000002C
:1034A00000000000E0FF0000000000380018000CE1
:1034B000000000000000000000000000000000000C
:1034C00000000000000000000000000000000000FC
:1034D000000000000000001F803F80618001801F0D
:1034E000803F80618063807FC03800000000000062
:1034F00000000060006000600060006E007F80736C
:1035000080618061806180618073007F006E000057
:103510000000000000000000000000000000001E8D
:10352000003F807380610060006080618073003FB5
:10353000001E0000000000000000800180018001EA
:103540008001801D803F8073806180618061806127
:103550008073803F801D000000000000000000001C
:10356000000000000000001E003F00738061807FAB
:10357000807F00608071003F001E0000000000009E
:103580000000C007C00F000C000C807F807F000C83
:10359000000C000C000C000C000C000C000C0000D7
:1035A000000000000000000000000000801D803FBF
:1035B000807380618061806180618073803F801D45
:1035C00080018063007F003E0000006000600060BA
:1035D0000060006F807F80718061806180618061A8
:1035E0008061806180610000000000000000000632
:1035F000000600000000003E003E00060006000637
:10360000000600060006000600060000000000009C
:103610000006000600000000003E003E0006000616
:10362000000600060006000600060006000600462A
:10363000007E003C0000006000600060006080616F
:1036400000630066006C007C0076006300638061AC
:10365000C0600000000000000000003E003E0006C8
:10366000000600060006000600060006000600062A
:103670000006000600060000000000000000000038
:1036800000000000000080DDC0FFC0CEC0CCC0CC78
:10369000C0CCC0CCC0CCC0CCC0CC0000000000006E
:1036A00000000000000000000000006F807F8071BB
:1036B00080618061806180618061806180610000E3
:1036C0000000000000000000000000000000001EDC
:1036D000003F807380618061806180618073003F02
:1036E000001E0000000000000000000000000000BC
:1036F000006E007F80738061806180618061807373
:10370000007F006E0060006000600060000000004C
:1037100000000000801D803F8073806180618061B7
:1037200080618073803F801D800180018001800165
:10373000000000000000000000000067803F00392A
:103740000030003000300030003000300030000029
:103750000000000000000000000000000000001E4B
:10376000803F80610060007F803F80018061007F3A
:10377000001E00000000000000000000000800180B
:103780000018007F007F00180018001800180018AB
:103790000018801F800F00000000000000000000E3
:1037A00000000000000080618061806180618061B4
:1037B000806180618063807F803D000000000000A8
:1037C00000000000000000000000C0608031803177
:1037D0008031001B001B001B000E000E00060000C5
:1037E000000000000000000000000000000080DD7C
:1037F00080DD80DD00550055005500770077002200
:103800000022000000000000000000000000000096
:103810000000806100330033001E000C000C001E0D
:103820000033003380610000000000000000000051
:103830000000000080618061803100330033001B94
:10384000001B001B000E000E000E001C007C007010
:1038500000000000000000000000C07FC07F800169
:1038600000030006000C00180030C07FC07F00007D
:103870000000000080038007000600060006000626
:103880000006000E001C001C000E000600060006CC
:1038900000060006800780030006000600060006FA
:1038A00000060006000600060006000600060006E8
:1038B0000006000600060006000600060038003C70
:1038C000000C000C000C000C000C000E00070007A0
:1038D000000E000C000C000C000C000C003C00382A
:1038E0000000000000000000000000000000803820
:1038F000807F004700000000000000000000000082
:1039000000000000000000000000000000000000B7
:1039100000000000000000000000000000000000A7
:103920000000000000000000000000000000000097
:103930000000000000000000E003E003E003E003FB
:10394000E003E003E003E003C003C003C001C001E3
:10395000C001C001C001000000000000E003E0035E
:10396000E003000000000000000000003C1E3C1EC0
:103970003C1E3C1E3C1E3C1E3C1E00000000000085
:103980000000000000000000000000000000000037
:103990000000000000000000000000000000000027
:1039A000CE01CE03DE039E039C039C07FF3FFF7FF7
:1039B0003807380F780F780F780EFFFFFFFFF01EE3
:1039C000F01CE01CE03CE03DE0390000000000009D
:1039D00000000000FC03FE0FEE1FE01EE01EE01ED4
:1039E000E01EE01FE00FE007F003FC01FE01FE0116
:1039F000FE01FE01FE01FE01FE3DFC3FF00FE00175
:103A0000E001000000000000033E07F78FE78EE7AB
:103A10009EE3BCE3B8E7F8E7F0F7E03FC001FF033F
:103A2000FF07F307F30FF31EF33CF338F3787FF04F
:103A30003FE000000000000000000000E007F80F79
:103A4000780F781F781F781F780FF00FE00F801F16
:103A5000C37FC3FBE7F3F7F1F7F0FFF07FF03EF829
:103A60007F7CFF3FEF1F000000000000000000000F
:103A7000E003E003E003E003E003C003C001000053
:103A80000000000000000000000000000000000036
:103A90000000000000000000000000000000000026
:103AA000000000003F007C00F001E001C003C007FF
:103AB00080078007800F000F000F000F000F000F1E
:103AC000000F800F80078007C007C003E001F001EE
:103AD0007C003F000F000000007E001FC007C003F5
:103AE000E001F001F000F000F800780078007800C4
:103AF000780078007800F800F000F000F001E001B4
:103B0000C003C007001F007E00780000E003C00370
:103B1000C001CE39FF3F7F3F20037003F807780FC5
:103B20003C1F3806000000000000000000000000FC
:103B30000000000000000000000000000000000085
:103B4000000000000000000000000000C001C001F3
:103B5000C001C001C001C001C001FFFFFFFFC001E3
:103B6000C001C001C001C001C00100000000000090
:103B70000000000000000000000000000000000045
:103B80000000000000000000000000000000000035
:103B9000000000000000E003E003E003E003E001B8
:103BA000E001E001C001800300000000000000000F
:103BB0000000000000000000000000000000FE3FC8
:103BC000FE3F0000000000000000000000000000B8
:103BD00000000000000000000000000000000000E5
:103BE00000000000000000000000000000000000D5
:103BF0000000000000000000000000000000E003E2
:103C0000E003E003E003000000000000000000000B
:103C10000F000F001E001E003C003C0078007800E2
:103C2000F000F000E001E001C003C003800780075E
:103C3000000F000F001E001E003C003C00780078C2
:103C400000F00000F007F80F7C1F3E3E1E3C1F7C7A
:103C50001F7C0F780F780F780F780F780F780F7818
:103C60001F7C1F7C1E3C3E3E7C1FF80FF0070000AF
:103C70000000000000000000F000F007F03FF03FFF
:103C8000F001F001F001F001F001F001F001F001AC
:103C9000F001F001F001F001F001F001F001FF3F4F
:103CA000FF3F00000000000000000000E00FF83FB0
:103CB0007C3C3C003E003E003E003C003C007C0062
:103CC000F800F001E003C0078007000F001E003E6F
:103CD000003CFE3FFE3F000000000000000000002E
:103CE000F00FF81F7C1C3E003E003E003C003C00F4
:103CF000F800F00FF80F7C003E001E001E001E00B2
:103D00001E003E007C1CF81FE01F000000000000A9
:103D1000000000007800F800F800F801F803F80748
:103D2000F807780F781E781E783C78787878FFFF4F
:103D3000FFFF7800780078007800780078000000B5
:103D40000000000000000000FC1FFC1FFC1F001E04
:103D5000001E001E001E001EE01FF81FFC007C005D
:103D60003E003E001E003E003E003C007C1CF81F52
:103D7000E01F00000000000000000000FC01FE0742
:103D80008E0F001F001E003E003C003CF83DFC3F33
:103D90003E7F1F7E0F3C0F3C0F3C0F3C0F3E1F1E13
:103DA0003E1FFC0FF00300000000000000000000B8
:103DB000FF3FFF3FFF3F0F001E001E003C0038008A
:103DC0007800F000F000E001E001C003C0038007CC
:103DD000800F800F000F001F001F00000000000078
:103DE00000000000F807FC0F3E1F1E1E1E3E1E3E78
:103DF0001E1E3C1FF80FF007F80FFC1E3E3E1F3C36
:103E00001F7C0F7C0F7C1F3C3E3FFC1FF007000017
:103E10000000000000000000F007F80F7C1E3E3C90
:103E20001E3C1F7C1F7C1F7C1F7C1F3C3F3EFF1FD6
:103E3000EF071F001E001E003E003C00F838F03F58
:103E4000E01F000000000000000000000000000073
:103E50000000000000000000E003E003E003E003D6
:103E60000000000000000000000000000000E0036F
:103E7000E003E003E0030000000000000000000099
:103E8000000000000000000000000000E003E0036C
:103E9000E003E0030000000000000000000000005C
:103EA0000000E003E003E003E003E001E001E001E3
:103EB000C0038003000000000000000000000000BC
:103EC00003000F003F00FC00F003C00F003F00FEA6
:103ED000003FC00FF003FC003F000F000300000094
:103EE00000000000000000000000000000000000D2
:103EF000000000000000000000000000FFFFFFFFC6
:103F0000000000000000FFFFFFFF000000000000B5
:103F100000000000000000000000000000000000A1
:103F2000000000000000000000E000F8007E801F9C
:103F3000E007F8017E001F007E00F801E007801F07
:103F4000007E00F800E0000000000000000000001B
:103F5000F01FFC3F3E381F381F381E001E003C007B
:103F60007800F000E001C003C003C007C0070000F4
:103F700000000000C007C007C007000000000000EC
:103F800000000000F803FE0F1E1F0F3E7F3CFF786D
:103F9000EF79C773C7F38FF38FF38FF39FF39FF31B
:103FA000FF73FF7BF779003C1C1FFC0FF803000038
:103FB0000000000000000000000000000000E0031E
:103FC000E003F007F007F007780F780F7C0E3C1E37
:103FD0003C1E3E3CFE3FFF3F1F780F780FF007F07E
:103FE00007F00000000000000000000000000000DA
:103FF0000000F83FFC3F3E3C1E3C1E3C1E3C3E3C4D
:104000007C3CF03FF83F7E3C1F3C1F3C0F3C0F3C8C
:104010001F3CFE3FF83F00000000000000000000D1
:10402000000000000000FF01FF07871F003E003C6A
:10403000007C00780078007800780078007C007CB4
:10404000003E003F831FFF07FF010000000000004B
:1040500000000000000000000000F07FFC7F7E7880
:104060001F781F780F780F780F780F780F780F78F8
:104070000F780F781F781E787E78F87FE07F000039
:104080000000000000000000000000000000FF3FF2
:10409000FF3F003E003E003E003E003E003EFE3F31
:1040A000FE3F003E003E003E003E003E003EFF3F21
:1040B000FF3F0000000000000000000000000000C2
:1040C0000000FF1FFF1F001E001E001E001E001E1E
:1040D000001EFF1FFF1F001E001E001E001E001EF0
:1040E000001E001E001E0000000000000000000076
:1040F000000000000000FE03FF0F871F003E007C51
:10410000007C007800F800F87FF87FF80F780F7CCB
:104110000F7C0F3E8F1FFF0FFE030000000000000A
:10412000000000000000000000001F7C1F7C1F7CBE
:104130001F7C1F7C1F7C1F7C1F7CFF7FFF7F1F7CE1
:104140001F7C1F7C1F7C1F7C1F7C1F7C1F7C000032
:104150000000000000000000000000000000FF3F21
:10416000FF3FE003E003E003E003E003E003E003DC
:10417000E003E003E003E003E003E003E003FF3FCC
:10418000FF3F0000000000000000000000000000F1
:104190000000FC1FFC1F7C007C007C007C007C007D
:1041A0007C007C007C007C007C007C007800780037
:1041B000F838F03FC03F00000000000000000000A1
:1041C0000000000000001F3C1E3C3C3C783CF03CE2
:1041D000E03DE03FC03F803FC03FE03FF03DF03C6E
:1041E000783C7C3C3E3C1F3C0F3C00000000000043
:1041F00000000000000000000000003E003E003E05
:10420000003E003E003E003E003E003E003E003EBE
:10421000003E003E003E003E003EFF3FFF3F0000EC
:1042200000000000000000000000000000001FF877
:104230001FFC1FFC3FFE3FFE3FFE7FFF77FF77FF27
:10424000F7F7E7F7E7F3E7F3C7F307F007F007F04F
:1042500007F0000000000000000000000000000067
:1042600000000F7C0F7C0F7E0F7F0F7F8F7F8F7F73
:10427000CF7FEF7BEF79FF79FF78FF787F783F780A
:104280003F781F781F780000000000000000000049
:10429000000000000000F007FC1F3E3E1F7C0F786E
:1042A0000F780FF80FF80FF80FF80FF80FF80F78D6
:1042B0000F781F7C3E3EFC1FF0070000000000004E
:1042C00000000000000000000000FC3FFF3F1F3E18
:1042D0000F3E0F3E0F3E0F3E1F3E3F3EFC3FF03F66
:1042E000003E003E003E003E003E003E003E00001C
:1042F0000000000000000000000000000000F007C7
:10430000FC1F3E3E1F7C0F780F780FF80FF80FF858
:104310000FF80FF80FF80F780F781F7C3E3EFC1F48
:10432000F8077C003F000F000300000000000000C1
:104330000000F03FFC3F7E3C3E3C1E3C1E3C3E3CB1
:104340003C3CFC3CF03FE03FF03DF83C7C3C3E3CDC
:104350001E3C1F3C0F3C000000000000000000005D
:10436000000000000000FC07FE1F0E3E003C003C69
:10437000003C003EC01FF80FFE037F001F000F002F
:104380000F001F203E3CFC3FF01F0000000000001B
:1043900000000000000000000000FFFFFFFFE0033E
:1043A000E003E003E003E003E003E003E003E003F5
:1043B000E003E003E003E003E003E003E0030000C8
:1043C00000000000000000000000000000000F7C62
:1043D0000F7C0F7C0F7C0F7C0F7C0F7C0F7C0F7C85
:1043E0000F7C0F7C0F7C0F7C1E3C1E3C3E3EFC1F56
:1043F000F0070000000000000000000000000000C6
:10440000000007F007F007F80F780F7C1E3C1E3CF9
:104410001E3E3C1E3C1F781F780FF80FF007F00778
:10442000F007E003E00300000000000000000000CF
:1044300000000000000003E003F003F007F0E7F3E2
:10444000E7F3E7F3E773F77BF77FFF7F7F7F7F7FFC
:104450007E7F7E3F3E3E3E3E3E3E0000000000002E
:104460000000000000000000000007F80F7C1E3E66
:104470003E3E3C1FF80FF007E007E003E003F007C3
:10448000F80F7C0F7C1E3E3C1F780F780FF0000069
:10449000000000000000000000000000000007F81D
:1044A00007780F7C1E3C1E3E3C1F780FF80FF0076C
:1044B000E003E003E003E003E003E003E003E003E4
:1044C000E003000000000000000000000000000009
:1044D0000000FF7FFF7F0F001F003E007C00F80000
:1044E000F000E001E003C007800F000F001E003E57
:1044F000007CFF7FFF7F0000000000000000000044
:10450000FF078007800780078007800780078007F4
:104510008007800780078007800780078007800763
:104520008007800780078007800780078007FF07D4
:10453000FF07000000780078003C003C001E001ED1
:10454000000F000F80078007C003C003E001E001F7
:10455000F000F000780078003C003C001E001E00D7
:104560000F000F0007000000F07FF000F000F000E7
:10457000F000F000F000F000F000F000F000F000BB
:10458000F000F000F000F000F000F000F000F000AB
:10459000F000F000F000F07FF07F0000C000C001EC
:1045A000C001E003E003F007F0077807780F380F49
:1045B0003C1E3C1E1E3C1E3C0F380F780778000046
:1045C00000000000000000000000000000000000EB
:1045D00000000000000000000000000000000000DB
:1045E00000000000000000000000000000000000CB
:1045F00000000000000000000000FFFFFFFF0000BF
:1046000000000000F00000000000000000000000BA
:10461000000000000000000000000000000000009A
:10462000000000000000000000000000000000008A
:10463000000000000000000000000000000000007A
:1046400000000000F80FFC3F7C3C3E003E003E00B6
:10465000FE07FE1F3E3E3E7C3E783E7C7E7CFF3F5A
:10466000CF1F00000000000000000000003C003CE4
:10467000003C003C003C003CF83DFE3F3E3F1F3EFE
:104680000F3C0F3C0F3C0F3C0F3C0F3C1F3C1E3CB3
:104690003E3FFC3FF03B0000000000000000000037
:1046A000000000000000000000000000FE03FF0FFB
:1046B000871F003E003E003C007C007C007C003CEC
:1046C000003E003E871FFF0FFE03000000000000B9
:1046D000000000001F001F001F001F001F001F0020
:1046E000FF07FF1F3F3E1F3C1F7C1F7C1F7C1F7866
:1046F0001F781F7C1F7C3F3C7F3EFF1FDF0F0000A9
:1047000000000000000000000000000000000000A9
:1047100000000000F803FC0F3E1F1E3E1F3C1F7CE4
:10472000FF7FFF7F007C007C003C003E071FFF0FE7
:10473000FE0300000000000000000000FF01E10394
:10474000C003C007C007C007FF7FFF7FC007C007C7
:10475000C007C007C007C007C007C007C007C00721
:10476000C007C007C00700000000000000000000F4
:10477000000000000000000000000000EF07FF1F25
:104780007F3E1F3C1F7C1F7C1F781F781F781F7C7B
:104790001F7C3F3C7F3EFF1FDF0F1E001E001E00E0
:1047A0007C38F83F003C003C003C003C003C003CB6
:1047B000FC3DFE3F9E3F1F3F1F3E1F3C1F3C1F3CDA
:1047C0001F3C1F3C1F3C1F3C1F3C1F3C1F3C00006C
:1047D0000000000000000000F001F00100000000F7
:1047E00000000000E07FE07FE001E001E001E00187
:1047F000E001E001E001E001E001E001E001E001B1
:10480000E00100000000000000000000F800F800D7
:104810000000000000000000F83FF83FF800F8003A
:10482000F800F800F800F800F800F800F800F800C8
:10483000F800F800F800F800F800F000F071E07FF0
:10484000003C003C003C003C003C003C1F3C3E3C2B
:104850007C3CF83CF03DE03DC03FC03FE03FF03DD8
:10486000F83C7C3C3E3C1F3C1F3C0000000000002C
:1048700000000000F07FF001F001F001F001F00114
:10488000F001F001F001F001F001F001F001F001A0
:10489000F001F001F001F001F001F001F001000081
:1048A0000000000000000000000000000000000008
:1048B000000000009EF7FFFFFFFFFFFFE7FBE7F9A7
:1048C000C7F1C7F1C7F1C7F1C7F1C7F1C7F1C7F128
:1048D000C7F1000000000000000000000000000020
:1048E0000000000000000000FC3DFE3F9E3F1F3F17
:1048F0001F3E1F3C1F3C1F3C1F3C1F3C1F3C1F3CDE
:104900001F3C1F3C1F3C0000000000000000000096
:10491000000000000000000000000000F007FC1F85
:104920003E3E1F3C1F7C0F780F780F780F780F7872
:104930001F7C1F3C3E3EFC1FF007000000000000F3
:104940000000000000000000000000000000000067
:10495000F83DFE3F3E3F1F3E0F3C0F3C0F3C0F3CDF
:104960000F3C0F3C1F3C1E3E3E3FFC3FF83F003CCF
:10497000003C003C003C003C000000000000000047
:1049800000000000EE07FE1F7E3E1E3C1E7C1E78CF
:104990001E781E781E781E781E7C3E7C7E3EFE1F92
:1049A000DE0F1E001E001E001E001E000000000084
:1049B00000000000000000007F1FFF1FE71FC71F4F
:1049C000871F001F001F001F001F001F001F001F68
:1049D000001F001F001F000000000000000000007A
:1049E000000000000000000000000000FC07FE1FA7
:1049F0000E1E003E003E003FE01FFC07FE003E0092
:104A00001E001E003E3CFC3FF01F000000000000A6
:104A10000000000000000000000080078007800701
:104A2000FF7FFF7F80078007800780078007800760
:104A30008007800780078007C007FF03FF01000091
:104A40000000000000000000000000000000000066
:104A5000000000001E3C1E3C1E3C1E3C1E3C1E3C3A
:104A60001E3C1E3C1E3C1E3C3E3C7E3CFE3EFE1F51
:104A7000DE0F000000000000000000000000000049
:104A8000000000000000000007F00F780F781E3CC7
:104A90001E3C1E3E3C1E3C1E780F780FF00FF007A8
:104AA000F007E003E0030000000000000000000049
:104AB00000000000000000000000000003F0E3F12F
:104AC000E3F3E7F3F7F3F7F3F77F777F7F7F7F7FFA
:104AD0007F7F3E3E3E3E3E3E3E3E000000000000E8
:104AE00000000000000000000000000000000000C6
:104AF0000F7C1E3E3C3E3C1FF80FF007F007E00322
:104B0000F007F807F80F7C1E3E3E1F3C1F780000A0
:104B10000000000000000000000000000000000095
:104B20000000000007F80F780F7C1E3C1E3C3C1E66
:104B30003C1E3C1F780FF80FF007F007E003E0037E
:104B4000C003C003C0038007800F007F0000000087
:104B50000000000000000000FF3FFF3F1F003E007C
:104B60007C00F800F001E003C007800F001F001E6A
:104B7000003CFF7FFF7F00000000000000000000FD
:104B8000FE01E003C003C003C003C003E001E00175
:104B9000E001C001C003803F803FC003C001E001CD
:104BA000E001E001C003C003C003C003E003FE0155
:104BB0007E000000C001C001C001C001C001C001F1
:104BC000C001C001C001C001C001C001C001C001DD
:104BD000C001C001C001C001C001C001C001C001CD
:104BE000C001C001C0010000C03FE003E001E001DE
:104BF000E001E001C001C003C003C001E001FE000C
:104C0000FE00E001C001C003C003C001E001E001FB
:104C1000E001E001E003C03F003F000000000000B1
:104C20000000000000000000000000000000000084
:104C30000000073FC77FE773FFF17EF00000000030
:104C40000000000000000000000000000000000064
:104C5000704C00080000002034000000E826000826
:104C6000A44C000834000020740A0000F826000854
:104C70000100000010000000000000000024F4000B
:104C800000000000000000000B120000A82B00082C
:104C9000101A000004390008000000000000803FE6
:044CA0000000000010
:040000050800018965
:00000001FF
