:020000040800F2
:10000000C80B00209D010008DF2A000863230008B8
:10001000DD2A000801090008A931000800000000DD
:10002000000000000000000000000000652B000838
:10003000B509000800000000E12A0008672B00084D
:10004000B7010008B7010008B7010008B7010008B0
:10005000B7010008B7010008B7010008B7010008A0
:10006000B9090008B7010008B7010008B701000886
:10007000B7010008B7010008B7010008B701000880
:10008000B7010008B7010008B7010008B701000870
:10009000B7010008B7010008B7010008B701000860
:1000A000B7010008B7010008B7010008B701000850
:1000B000B7010008B7010008B7010008B701000840
:1000C000B7010008B7010008B7010008B701000830
:1000D000B7010008B7010008B7010008B701000820
:1000E000B7010008B7010008B7010008B701000810
:1000F000B7010008B7010008B7010008B701000800
:10010000B7010008B7010008B7010008B7010008EF
:10011000B7010008B7010008B7010008B7010008DF
:1001200005090008B7010008B7010008B701000879
:10013000B70100080000000000000000B70100083F
:10014000B7010008B7010008B7010008B7010008AF
:10015000B7010008B7010008B7010008B70100089F
:10016000B7010008B7010008B7010008B70100088F
:10017000B7010008B70100080000000000000000FF
:10018000B7010008B7010008DFF80CD000F0B8FA9A
:1001900000480047993B0008C80B002006488047EC
:1001A00006480047FEE7FEE7FEE7FEE7FEE7FEE75C
:1001B000FEE7FEE7FEE7FEE7DD2B00088901000809
:1001C0002DE9F05F0546002092469B46884606468C
:1001D000814640241BE0284641464746224600F01F
:1001E000D9F853465A46C01A914110D311461846C1
:1001F000224600F0C0F82D1A67EB01084F46224650
:100200000120002100F0B7F817EB00094E41201E35
:10021000A4F10104DFDC484631462A464346BDE8E6
:10022000F09FD2B201E000F8012B491EFBD27047CB
:100230000022F6E710B513460A4604461946FFF7B2
:10024000F0FF204610BD2DE9F04D81EA030404F0D3
:10025000004B21F0004514464FF0000A23F0004106
:1002600050EA050220D054EA01021DD0C5F30A5716
:100270000246C5F31303C1F31300C1F30A5640F459
:10028000801543F48013A7EB0608101BD64608F22E
:10029000FD3873EB050002D308F1010801E0921864
:1002A0005B41B8F1000F03DA00200146BDE8F08D94
:1002B00000204FF48011064684460EE0171B73EBB6
:1002C000050705D3121B63EB050306434CEA010C3B
:1002D00049084FEA300092185B4150EA0107EDD11E
:1002E00052EA030012D082EA040083EA05010843BF
:1002F00005D0101BAB4106D20122002306E00022EC
:100300004FF0004302E06FF0010253101AEB0600B9
:100310004CEB085110EB0A0041EB0B01BDE8F04D2E
:1003200000F048B800F0004230F000400AD0C10DA3
:1003300001F56071C0F3160042EA0151C20840079E
:100340001143704700200146704730B50B46014607
:1003500000202022012409E021FA02F59D4205D364
:1003600003FA02F5491B04FA02F52844151EA2F10E
:100370000102F1DC30BD202A04DB203A00FA02F150
:10038000002070479140C2F1200320FA03F3194383
:1003900090407047202A04DB203A21FA02F0002125
:1003A000704721FA02F3D040C2F120029140084385
:1003B0001946704710B5141E73F1000408DA401C8A
:1003C00041F1000192185B411A4301D120F0010074
:1003D00010BD2DE9F04D92469B4611B1B1FA81F264
:1003E00002E0B0FA80F220329046FFF7C4FF0446E4
:1003F0000F4640EA0A0041EA0B0153465A460843B9
:1004000013D0114653EA010019D0C8F140025046FA
:10041000FFF7C0FF05460E46504659464246FFF7D5
:10042000AAFF084305D0012004E020463946BDE874
:10043000F08D0020054346EAE0762C4337430A98C6
:100440006305E40AA0EB08000022FD0A44EA4754D1
:100450000A3002D500200146E9E70105101969417B
:10046000DDE9084500196941BDE8F04DA2E72DE935
:10047000FE4F804681EA0300C00F0C46009021F039
:10048000004123F00045B8EB0200A94105D24046E7
:10049000214690461C460B46024623F0004010437E
:1004A00047D0270DC7F30A00C3F30A510290401A40
:1004B000019040286BDAC3F3130040F4801B0098CE
:1004C000924620B10023D2EB030A63EB0B0B019899
:1004D0005946C0F140025046FFF74DFF06460D4613
:1004E00050465946019A00F01DF910EB0800614191
:1004F000002487EA115284EAE7731A4340D0009A35
:1005000062B3019A012A4FEA075215DC001B61EB26
:1005100002014FF0004202EA0752CDE90042001CFE
:1005200041F5801132462B46FFF753FF03B0BDE87B
:10053000F08F40462146F9E7001B61EB0201001CE9
:1005400041F5801300185B412018A2F5001747EB16
:10055000030140EAD570B6196D4111E06D084FEA0C
:10056000360645EAC0754FEA0752001B61EB0201EF
:10057000001C41F5801149084FEA30000019514133
:1005800032462B4603B0BDE8F04FFFF713BF00988B
:10059000012240000023D0EB020263EBE0730098DD
:1005A00021464FEAE074B8EB000061EB0401E9E793
:1005B00083F000435BE781F0004158E72DE9FE4FEF
:1005C00081EA030404F0004421F0004100944FF05C
:1005D000000B23F0004350EA01045ED052EA03040A
:1005E0005BD0C3F30A54C1F30A552C44A4F2F3348C
:1005F0000194A0FB0254C1F3130141F48011C3F331
:10060000130343F4801301FB024400FB034E840AEE
:10061000970A44EA815447EA8357A4FB0768029586
:100620008D0A05FB07854FEA932C04FB0C54270524
:10063000029D4FEA065847EA1637B5EB08056EEB00
:10064000070C870E920E47EA811742EA8312A7FB36
:100650000201B6EB0B0164EB00042B0D43EA0C33F3
:100660005E1844EB1C50DA465146E7FB0201C5F325
:1006700013044FEA0B3343EA14534FEA0432019C4C
:1006800043EA0603A4F10C040294009CCDE900B4F3
:10069000FFF79FFE03B0BDE8F08F00200146F9E7A9
:1006A000C1F30A52C1F3130140F2FF3341F4801148
:1006B0009A4202DA00200146704740F233439A42E0
:1006C000A2F2334202DC5242FFF764BEFFF753BE90
:1006D00030B5041E71F1000404DB4FF000444042C9
:1006E00064EB0101141E73F1000405DB1C464FF09E
:1006F0000043524263EB0403994208BF904230BD6D
:10070000064C074D06E0E06840F0010394E807005E
:1007100098471034AC42F6D3FFF73AFDE45B00088B
:10072000045C0008202A06DBCB17203A41FA02F0CD
:1007300043EAE07306E041FA02F3D040C2F120023E
:10074000914008431946704710B50146806B026C12
:1007500012F0500F05D0026CD20626D500F01CFA1C
:1007600010BD016C41F40071016401688A6812F0E7
:10077000405F17D1027EAAB9CA6A12F4700F02D084
:100780008A6852050ED44A6822F020024A60016C41
:1007900021F480710164016CC90403D4016C41F03F
:1007A0000101016400F0F6F910BD806BC26CBDE878
:1007B00010400846104710B5806B40210164416C21
:1007C00041F00401416400F0E7F910BD10B5806B01
:1007D00000F0E1F910BD0000464910B54A6822F466
:1007E00040324A604A6843681A434A6001684A686E
:1007F00022F480724A6001684A68036942EA03226F
:100800004A6001684A6822F040724A6001684A689A
:1008100083681A434A6001688A6822F400628A6029
:1008200001688A68C3681A438A60816A6FF07062DF
:10083000D14201688A6822F070628A6001688A6821
:100840000CD0836A1A438A6001688A6822F0405299
:100850008A6001688A68C36A1A4301E022F0405244
:100860008A6001688A6822F002028A6001688A68E8
:10087000037E42EA43028A6090F820100029016852
:100880004A680FD042F400624A6001684A6822F464
:1008900060424A6001684A68174C436A04EB43337C
:1008A0001A4301E022F400624A600168CA6A22F435
:1008B0007002CA620168CA6A838B104C04EB03534E
:1008C0001A43CA6201688A6822F400728A60016869
:1008D0008A6890F8303042EA43228A6001688A6868
:1008E00022F480628A6001688A68406942EA802056
:1008F000886010BD0023014000E0FFFF0000F0FF12
:10090000FEE70000014800F065BA00007C0400200A
:1009100001681823CAB2103AB2FBF3F2054B6FF329
:100920000901032A9B5CC36500D9091D816508463E
:10093000704700000C41000810B5014600208B698B
:100940008A6A4FF0C07453B1B3F5005F15D072B12D
:10095000012A0CD0022A0AD0032A09D104E01AB1D4
:10096000012A06D0022A03D1C96AC90100D5012093
:1009700010BDC96AA142FAD010BD002AF7D0012AE1
:10098000F2D0022AF3D0032AF3D010BD30B50468A8
:10099000256825F480252560046863608368402B02
:1009A000036803D099600068C26030BD9A60006837
:1009B000C16030BD7047000010B5042000F094FB0A
:1009C0000948006858B10848001D006838B1002087
:1009D00002F088F80020BDE8104002F0A3B85020D3
:1009E00002F080F85020F6E73C080040704700B560
:1009F000002003F087F842F2107251005DF804EB1A
:100A000003F092B800B5022003F07CF842F21072B5
:100A10004BF298715DF804EB03F086B800B5012045
:100A200003F070F842F2107251005DF804EB03F02D
:100A30007BB800B5FFF7DBFFF0EE401AFFF7EEFFE3
:100A400031EEC00A00BD000078B50024009490F893
:100A50003C20012A19D0012280F83C200A68072393
:100A60000568092A13D9EE680A3A02EB420293405C
:100A70009E43EE600B788A680A3B03EB43039A407F
:100A80000368DD682A43DA6010E0022078BD2E6931
:100A900002EB420293409E432E610B788A6803EB7F
:100AA00043039A4003681D692A431A614A681F2359
:100AB000072A13D205686E6B521E02EB8202934026
:100AC0009E436E630B790A885B1E92B203EB83032D
:100AD0009A4003685D6B2A435A6327E005680D2A34
:100AE00012D22E6BD21F02EB820293409E432E63E2
:100AF0000B790A88DB1F92B203EB83039A400368E9
:100B00001D6B2A431A6311E0EE6A0D3A02EB820272
:100B100093409E43EE620B790A880D3B92B203EB41
:100B200083039A400368DD6A2A43DA62164B05683C
:100B3000144A9D4206D10D68122D03D1556845F423
:100B40008005556005689D4218D10B68102B01D0B7
:100B5000112B13D1536843F4000353600968102923
:100B60000CD10A490A4A0968B1FBF2F101EB810193
:100B7000490000E0491E00910029FBD180F83C406B
:100B8000002078BD00230140002001400C0000201F
:100B900040420F0070477047704770B504004FF037
:100BA000000503D0206C002610B107E0012070BDC5
:100BB000204600F01DF8666484F83C60206CC00696
:100BC00010D4206C20F4885040F0020020642046AD
:100BD000FFF702FE6664206C20F0020040F0010086
:100BE000206400E0012584F83C60284670BD0000C8
:100BF00070B586B0064614216846FFF719FB2349F5
:100C00003068884240D122480025016841F4807153
:100C1000016000681E4900F480701439059008686E
:100C200040F004000860086800F0040005900868BF
:100C300040F0010008600868032400F001000590FE
:100C40000F208DE831006946124800F059FA1C2047
:100C50008DE831006946104800F052FA104C0F48F8
:100C6000C4E900050015A560C4E903508010656162
:100C7000C4E9065025622046656200F07BF908B1A0
:100C8000FFF7B4FEB463A66306B070BD0020014058
:100C90004438024000080240000002401064024054
:100CA0007C040020F8B50E4600210446009190F81F
:100CB0003C00012807D0012084F83C0020688368AC
:100CC000DB0702D011E00220F8BD836843F0010386
:100CD00083603748374B0068B0FBF3F000EB40000F
:100CE00000E0401E00900028FBD120688368DB07ED
:100CF0005CD0236C40F20165AB4343F48073236402
:100D00004068400505D5206C20F4005040F4805028
:100D10002064206CC00404D5606C20F00600606480
:100D200000E0616484F83C10A16B2448224DC86344
:100D3000A16B23480864A16B2248C86421686FF046
:100D4000220008602068416841F0806141602068AD
:100D5000816841F4807181602168134632464C31CC
:100D6000A06B00F071F968681749C006206806D0CA
:100D700088421BD1816811F0405F13D016E0884291
:100D8000F8D0124A904203D1D1F80423D206F1D010
:100D90000F4A90420AD1D1F8041301F01F01102923
:100DA000E8D303E0816841F0804181600020F8BD14
:100DB0000C00002040420F000023014049070008BA
:100DC000CD070008B70700080020014000210140BE
:100DD000002201402DE9F84304464FF00009CDF808
:100DE000009063484FF41651A56D0068B0FBF1F711
:100DF0002E6894F85C10082000FA01F131420FD0FF
:100E000021680A6852070BD50A6822F004020A60BA
:100E100094F85C108840A860606D40F00100606547
:100E200094F85C104FF0010808FA01F0304208D045
:100E300021684969090604D5A860606D40F0020088
:100E4000606594F85C1004208840304208D0216826
:100E50000968890704D5A860606D40F004006065EA
:100E600094F85C1010208840304218D0216809683E
:100E7000090714D5A86020680168490304D50068F3
:100E8000000308D5A16C07E00168C90503D4016817
:100E900021F008010160216C09B12046884794F8CF
:100EA0005C1020208840304231D021680968C90692
:100EB0002DD5A86094F8350005282068016806D073
:100EC000490347D5006800031DD4616C1CE021F084
:100ED000160101602068416921F080014161206CA8
:100EE00008B9A06C20B12068016821F008010160F8
:100EF00094F85C103F208840A86084F8349084F80F
:100F00003580216D1FE0E16B09B120468847606D97
:100F100000282BD0606DC00714D0052084F8350060
:100F20002068016821F0010101600098401C0090D8
:100F3000B84203D820680068C007F6D184F834901E
:100F400084F83580E16C002910D001B02046BDE85E
:100F5000F04308470168C905D5D4016821F01001A4
:100F6000016084F8349084F83580CCE7BDE8F883DC
:100F70000C0000202DE9F041044600F0A5F90646DA
:100F80005CB1002584F83450022084F835002068D4
:100F9000016821F0010101600DE00120BDE8F08150
:100FA00000F092F9801B052805D9202060650320F8
:100FB00084F83500F2E720680068C007F0D12268A5
:100FC000116820480140D4E901031843D4E90336ED
:100FD0003343184363691843A3691843E36918430B
:100FE000236A18430843616A042903D1D4E90B1327
:100FF00019430843106020684069666A20F00701C1
:1010000030460E43012704280CD1A06A0643E06A4B
:1010100040B12046FFF790FC20B14020606584F885
:101020003570BAE7206846612046FFF771FC94F8F6
:101030005C203F2191408160656584F83570002017
:10104000ACE700003F8010F02DE9F0410446866DCA
:1010500090F83400002501280DD0012084F83400D8
:1010600094F835700020012F07D084F83400022551
:101070002846BDE8F0810220FBE7022784F835709E
:1010800060652046FFF782FC94F85C103F208840A2
:10109000B0602068016841F0160101602068416974
:1010A00041F080014161206C20B12068016841F06D
:1010B000080101602068016841F001010160D7E783
:1010C00070B5044600F000F90546601C02D00448E3
:1010D0000078044400F0F8F8401BA042FAD370BD39
:1010E0000000002070470000044910B50A68024261
:1010F00002D00860FFF7F6FF10BD0000143C01406D
:101100002DE9F84FDFF87CB100224FF001084FF0D5
:10111000030A4FF00F090BF1040E00BF0B6808FA29
:1011200002F42340A3426ED14D68022D01D0122D4E
:101130000ED1D50800EB850CDCF820505607F70ED1
:1011400009FA07F6B5430E69BE402E43CCF820607D
:10115000066855000F790AFA05FC07F0030726EA2E
:101160000C06AF40374307604E68012E05D0022EB3
:1011700003D0112E01D0122E0ED18668CF6826EA38
:101180000C06AF40374387604668A6430C79C4F32A
:101190000014944034434460C6688C6826EA0C0608
:1011A000AC403443C4604C68E40065D5364C2568D7
:1011B00045F480452560246822F0030504F480444A
:1011C0000094324C2E19D6F8084895072F0F09FACB
:1011D00007F5AC432E4DA84201D1002524E02D4D4A
:1011E000A84201D101251FE02B4DA84201D10225C3
:1011F0001AE02A4DA84201D1032515E0284DA84246
:1012000002D1042510E037E0264DA84201D1052582
:101210000AE0254DA84201D1062505E0234DA8424C
:1012200001D1072500E00825BD402543C6F8085830
:10123000DBF800405D464E689C43F60300D51C4336
:101240002C60DEF8004075464E689C43B60300D51E
:101250001C432C600B4D08352C684E689C43F602ED
:1012600000D51C432C60074D0C352C684E689C4300
:10127000B60200D51C432C60521C102AFFF44EAF5E
:10128000BDE8F88F003C0140443802400030014086
:10129000000002400004024000080240000C02402E
:1012A000001002400014024000180240001C0240DE
:1012B000426931EA020200D10904816170470AB132
:1012C000816170470904FBE70148806870470000AE
:1012D0000000002070B504001BD094F83D000025EC
:1012E00020B984F83C50204600F046F9242084F8C8
:1012F0003D002068016821F00101016000F0B2FAB0
:101300004D4A6168914201D84C4900E04C498842FD
:1013100001D2012070BD4B492368B0FBF1F15E683A
:1013200026F03F060E435E606368934206D94FF491
:10133000967359434FF47A73B1FBF3F12368491C58
:101340001E6A26F03F06314319626168914210D847
:101350004900401EB0FBF1F2521CC2F30B02042AFA
:1013600001D2042022E0B0FBF1F0401CC0F30B00DE
:101370001CE0A368F3B301EBC10202EB0116421EAD
:10138000B2FBF6F2521C42F48042120549D093B3EC
:1013900001EBC10202EB0111401EB0FBF1F0401C59
:1013A000C0F30B0040F4804040F400402168CA695B
:1013B0004CF6FF739A431043C861D4E90701084310
:1013C00021680A6822F0C00210430860D4E90301D2
:1013D00001432068826848F2FF339A4311438160D9
:1013E000D4E9050108432168CA6822F0FF021043CE
:1013F000C86001E00EE016E02068016841F00101DC
:1014000001602564202084F83D00256384F83E5067
:10141000002070BD01EB4106421EB2FBF6F2521CE9
:10142000B3E70120C2E701EB4101401EB0FBF1F040
:10143000401CC0F30B00B7E7A086010080841E00AB
:1014400000093D0040420F002DE9FF4F83B09A464E
:10145000DDE9119793460446DDF84080FFF734FF3D
:10146000054694F83D0020287FD1192301224049E8
:101470002046009500F0FEFF002876D194F83C004D
:10148000012872D0012084F83C0020680168C90757
:1014900003D1016841F0010101602068016821F475
:1014A00000610160212084F83D00402084F83E0066
:1014B00000262664C4F82480A4F82A90608D208534
:1014C0002C48E062CDE9007553465A4620460499FF
:1014D00000F060FF70B930E02A463946204601F03E
:1014E00048F858B1206C042804D12068016841F400
:1014F00000710160012007B0BDE8F08F606A2168CB
:1015000000780861606A401C6062218D491E89B2C2
:101510002185628D521E628522685369DB435B0719
:101520000BD469B100781061606A401C6062208D44
:10153000401E2085608D401E6085208D0028CBD107
:101540002A463946204600F06FFF0028CAD154F8D9
:101550003D0B016841F400710160202004F81E0970
:10156000E67766770020C6E7FFE70220C3E70000C2
:10157000020010000000FFFFF0B587B00446142100
:101580006846FEF755FE1A49206888422DD1194851
:10159000016841F004010160016801F00401059156
:1015A000016841F0010101600068122400F00100AF
:1015B00005904FF400700125032604278DE8F10003
:1015C00069460D48FFF79CFD28028DE8F100694649
:1015D0000A48FFF795FD07481030016841F4000103
:1015E0000160006800F40000059007B0F0BD000045
:1015F000005C004030380240000802400000024019
:101600000248816802781144816070470000002020
:101610000B4810B5016841F400710160016841F4A4
:1016200080610160016841F480710160032000F075
:101630006FF8002000F006F800F024F8002010BD3C
:10164000003C024070B50D4D04464FF47A71287885
:10165000B1FBF0F00A490968B1FBF0F000F058FB6B
:1016600048B9102C07D200222146501E00F030F855
:1016700000206C6070BD012070BD000000000020E3
:101680000C0000200A4808B5016841F4804101605F
:10169000006800F4804000900548001F016841F098
:1016A00080510160006800F08050009008BD00008B
:1016B00044380240002809DB00F01F02012191405C
:1016C0004009800000F1E020C0F8001170470000E0
:1016D000F0B40E4B1B680C46C3F30223C3F107059D
:1016E000042D00D90425191D072901D2002300E08B
:1016F000DB1E012606FA05F1491E214099409E4055
:10170000761E16403143F0BC01F078BD0CED00E0D0
:10171000064900F0070208684FF6FF03184040EA48
:101720000220034A10430860704700000CED00E0FF
:101730000000FA052DE9F0470E46050065D0DFF8F8
:101740001481D8F80000F7B200F00F00B04207D2C1
:1017500088F80070D8F8000000F00F00B04254D1B3
:1017600028683D4C810712D5400703D5206840F416
:10177000E05020602878000703D5206840F46040DE
:1017800020602068A96820F0F000084320602878D5
:10179000C0072DD0304968680839012812D00228C6
:1017A00013D0032811D00968890700292DDA216890
:1017B00021F0030101432160FFF786FD814641F2DC
:1017C000883A0EE009688903EFE709688901ECE7C8
:1017D000FFF77AFDA0EB0901514502D90320BDE8CE
:1017E000F0872068696800F00C00B0EB810FEFD142
:1017F000D8F80010404601F00F01B14207D9077038
:10180000006800F00F00B04201D00120E7E728781F
:10181000400705D52068E96820F4E05008432060BF
:101820002878000706D52068296920F4604040EA3E
:10183000C100206000F036F82168084AC1F30311A6
:10184000515CC840064908600020FFF7FBFE0020FD
:10185000C5E70000003C024008380240144100087F
:101860000C0000200448054900680968044AC1F3D7
:101870008221515CC84070470C00002008380240AB
:10188000244100080448054900680968044AC1F376
:101890004231515CC84070470C00002008380240BB
:1018A00024410008154810B5006810F00C021448D7
:1018B00013D01449042A0FD0082A0ED10F4C241F2C
:1018C0002268236802F03F025B0207D52068C0F35C
:1018D0008810A0FB010106E0084610BD2168C1F395
:1018E0008811A1FB00010023FEF76AFC2168C1F307
:1018F0000141491C4900B0FBF1F010BD083802401D
:101900000024F40040787D012DE9F84F050076D0E1
:101910002878DFF8F8B2BE4CC00749D0DBF80010D9
:101920005846C1F38101012908D00068C0F3810045
:1019300002280AD1201D0068400206D520688003D5
:1019400036D568680028E2D032E06868B0F5803F9C
:1019500010D0B0F5A02F206810D020F48030206087
:10196000206820F4802020606868A0B1FFF7ACFCFC
:1019700006460CE0206840F48030F4E740F4802014
:101980002060F7E7FFF7A0FC801B642873D820686D
:101990008003F7D50CE0FFF797FC064605E000BF93
:1019A000FFF792FC801B6428F0D820688003F7D4EE
:1019B0002878DFF8608280074FF000093ED5DBF819
:1019C0000010584611F00C0F09D00068C0F38100D8
:1019D00002280BD18D48001F0068400206D4206801
:1019E000800715D5E868012809D111E0E868B8B189
:1019F0000120C8F80000FFF767FC064605E002E199
:101A0000FFF762FC801B0228C0D820688007F7D54A
:101A10002068296920F0F80040EAC10020600DE04C
:101A2000C8F80090FFF750FC064604E0FFF74CFCB6
:101A3000801B02281FD820688007F7D42878000769
:101A400022D5724E744869696C3671B1012101600A
:101A5000FFF73AFC074604E0FFF736FCC01B0228FC
:101A600009D830688007F7D50EE0C0F80090FFF77E
:101A70002BFC074605E083E0FFF726FCC01B02288D
:101A80007ED830688007F7D42878400768D5DFF81B
:101A90007CA100270AF1380ADAF80000C0000BD454
:101AA000DAF8001041F08051CAF80010DAF80000AE
:101AB000012700F080500090584E3068C00510D4C7
:101AC000306840F480703060FFF7FEFB009005E066
:101AD000FFF7FAFB0099401A022851D83068C00578
:101AE000F6D54A4EA868683601280FD00528306818
:101AF00010D020F001003060306820F00400306029
:101B0000A868B8B1FFF7E0FB00900FE0306840F044
:101B10000100F4E740F004003060F7E7FFF7D4FB82
:101B20000099411A41F28830814264D830688007B8
:101B3000F4D50EE0FFF7C8FB009007E0FFF7C4FB09
:101B40000099411A41F28830814254D830688007A8
:101B5000F4D42FB1DAF8001021F08051CAF8001047
:101B6000A869C0B3DBF80010C1F3810102294AD093
:101B70000228484607D0C8F86000FFF7A5FB00E040
:101B800039E005463AE04746C8F86000FFF79CFB9D
:101B9000064604E0FFF798FB801B02282BD820683C
:101BA0008001F7D4D5E907010843A96A1C4A49080E
:101BB00002EB01416A6A41EA8211084395F82C1050
:101BC00040EA01611148001F016001203866FFF7FB
:101BD0007BFB054605E014E0FFF776FB401B02287F
:101BE00009D820688001F7D50BE000BFFFF76CFB38
:101BF000401B022802D90320BDE8F88F206880012D
:101C0000F4D40020F8E70120F6E70000083802408D
:101C10000038024000004742800E474200700040FA
:101C20000000FFFF70B5040005D00025A56294F800
:101C3000510010B106E0012070BD84F850502046DC
:101C400000F030F8022084F851002068016821F08B
:101C500040010160D4E901010843D4E903121143B2
:101C6000084361690843218B01F400710843E1696D
:101C70000843216A0843A16A084321680860A069F3
:101C8000042101EA1040616A084321684860206825
:101C9000C16921F40061C1616565012084F85100CA
:101CA000002070BD10B586B0044614216846FEF7CA
:101CB000BFFA14492068884221D1134800210268E4
:101CC00042F480420260006800F4804005900E48B3
:101CD0001038026842F002020260006800F0020060
:101CE00005904FF4444000900220CDE9010103200B
:101CF00003900520049069460448FFF701FA06B0F6
:101D000010BD00000038004040380240000402408E
:101D100010B5401EB0F1807F01D3012010BD4FF0FF
:101D2000E02460610F21601701F068FA0020A061D3
:101D300007202061002010BD10B590F83C20012A3A
:101D400022D0012280F83C20CA688C6822F44072BC
:101D500022434C6822F4806222430C6822F4006221
:101D600022430C6922F4805222434C6922F400522F
:101D70002243C969002322F480420A4301684A646D
:101D800080F83C30002010BD022010BD70B590F8E6
:101D90003C20012A19D0012400F83C4F0222427055
:101DA00050F83C3C5A689D6822F070060A68496801
:101DB000324325F0800529435A6050F83C2C91604D
:101DC000447000210170084670BD022070BD2DE9ED
:101DD000F0410D46040003D094F83D0018B108E02E
:101DE0000120BDE8F081002084F83C00204600F08E
:101DF0003BF8022084F83D002068816844F2070225
:101E000091438160211D206800F012FF22689068D4
:101E10009169166A2B68AF69034340F2033081432E
:101E200041EA0721A868EF6908434FF6FC4188435F
:101E3000E96840EA0720014328692F6A000140EA67
:101E40000730084369686D6926F0AA0646EA051559
:101E5000294393602268906120680162012084F820
:101E60003D000020BDE7000070B586B00446142197
:101E70006846FEF7DDF92A4923680024284A10390C
:101E800002252848B3F1804F1ED0274EB34219D106
:101E9000136843F008031360126802F00802059209
:101EA0000A6842F001020A60096801F00101059127
:101EB00003210091CDE901546946CDE9034500BFF6
:101EC000FFF71EF906B070BD136843F001031360FD
:101ED000126802F0010205920A6842F001020A60EB
:101EE0000A6802F0010205920A6842F002020A60E2
:101EF0000968012601F00201059120210091CDE938
:101F00000154CDE903466946FFF7FAF8082000902E
:101F1000CDE90154CDE9034669460448D0E7000005
:101F20004038024000000240000C00400004024023
:101F300010B50446006891B1042904D001220021A3
:101F400000F0DAFE206801225FF0040100F0D4FE08
:101F50002068016841F001010160002010BD0122EC
:101F60000021F3E770B586B0044614216846FEF7F9
:101F70005FF9284B226800242749022527489A4206
:101F800010D10A6842F001020A60096801F00101FB
:101F90000591C1140091CDE901540121CDE903411E
:101FA00069461EE01E4B1F4E9A421ED10A6842F03F
:101FB00001020A600A6802F0010205920A6842F012
:101FC00002020A60096801F002010591C021009136
:101FD000CDE901546946CDE90345FFF791F80320A7
:101FE00010E0FFF78DF806B070BD0F488242FAD1BD
:101FF000086840F002000860086800F002000590E0
:102000004FF440700090CDE9015469463046CDE967
:102010000345E6E70000014030380240000002407E
:1020200000040040000402400008004070B504466F
:1020300090F83C000D4601280DD0012684F83C6044
:10204000022084F83D0042B1042A18D0082A2AD080
:102050000C2A4DD139E0022070BD206800F05AFEF4
:102060002068816941F0080181612068816921F05F
:1020700004018161206881692A69114311E02068A7
:1020800000F078FE2068816941F400618161206878
:10209000816921F480618161206881692A6941EA4E
:1020A0000221816124E0206800F09AFE2068C16965
:1020B00041F00801C1612068C16921F00401C161DA
:1020C0002068C1692A69114311E0206800F0BCFE54
:1020D0002068C16941F40061C1612068C16921F4CF
:1020E0008061C1612068C1692A6941EA0221C16138
:1020F00084F83D60002084F83C0070BD10B50400F9
:1021000003D094F83D0010B107E0012010BD00207D
:1021100084F83C00204600F00DF8022084F83D00D1
:10212000211D206800F084FD012084F83D0000207E
:1021300010BD000008B501681248814208D112485C
:10214000016841F001010160006800F001000BE04E
:102150000D480E4A001F914208D1016841F002016A
:102160000160006800F00200009008BD084A91423A
:10217000FBD1016841F004010160006800F0040037
:10218000F2E7000000000140443802400004004033
:102190000008004010B504460068012200F0ACFDC4
:1021A0000B492068884202D00A49884203D1416C19
:1021B00041F4004141642068816801F0070106296B
:1021C00003D0016841F001010160002010BD000052
:1021D000000001400004014070B5040004D094F8F0
:1021E0003900002510B106E0012070BD84F8385098
:1021F000204600F023F8242084F839002068C168C4
:1022000021F40051C160204600F046FE20680169BB
:1022100021F4904101612068416921F02A01416166
:102220002068C16841F40051C160E563202084F852
:10223000390084F83A00002070BD000010B586B067
:10224000044614216846FDF7F3FF144920688842CC
:1022500021D11348016841F010010160006800F0CD
:10226000100005900E481438016841F0010101602A
:102270000068694600F0010005904FF4C0600090CE
:102280000220019001200290032003900720049077
:102290000448FEF735FF06B010BD000000100140F5
:1022A00044380240000002402DE9F843044690F80B
:1022B00039001F4616460D46202850D1A5B19EB1C3
:1022C00094F8380001284AD0012084F838004FF0F3
:1022D0000008C4F83C80212084F83900FEF7F4FFA0
:1022E000A6848146E68426E00120BDE8F883E08CE0
:1022F000401EE084A0684B46B0F5805F4FF00002BE
:102300004FF080012046009703D000F01BFFE8B992
:102310000DE000F017FFC8B928882168C0F3080055
:102320004860206908B16D1C05E0AD1C03E0216820
:1023300015F8010B4860E08C0028D8D14B460022EC
:1023400040212046009700F0FDFE08B10320CCE7B5
:10235000202084F8390084F838800020C5E7022066
:10236000C3E7FEE701684A69D24352050FD46FF410
:1023700080624A61002140F8301F2022427381733D
:10238000026942F0040202610173012070470020DB
:10239000704700002DE9F843044600680D46DDE96A
:1023A000089701689846164641F4807101604B46D3
:1023B00000224FF001112046009700F05BF8E0B9D1
:1023C000216805F0FE0008613B464A461549204653
:1023D00000F084F888B920684169806900903A4625
:1023E0004946204600F0C5F850B1206C042804D1BD
:1023F0002068016841F4007101600120BDE8F883A4
:10240000F5B2B8F1010F09D02168300A08613A46E7
:102410004946204600F0ADF80028E6D12068056165
:102420000020EBE70200010070B516460D46044699
:102430000DE02046FFF796FF08B1012070BD681C33
:1024400005D0FEF741FF801BA84207D835B12068B0
:102450004069C0434007ECD4002070BD002044F820
:10246000300F20216173A073216941F020012161A7
:102470002073E2E72DE9F0471E4690460D460446DC
:10248000C1F30747DDF8209008E0701C06D0FEF786
:102490001BFFA0EB0900B0420FD876B12068012FD6
:1024A00018D0806925EA00000004000C14D0002137
:1024B0004145EAD00020BDE8F087002044F8300F05
:1024C00020216173A073216941F0200121612073F3
:1024D0000120F0E74069E5E70121E9E72DE9F04750
:1024E0009A4691460E46044600254FF02008C1F357
:1024F000074725E020684069C043400514D42068A0
:10250000016841F40071016021686FF480604861E6
:10251000256384F83D8084F83E50206C40F0040030
:10252000206484F83C501FE0B9F1FF3F08D0FEF76B
:10253000CBFEA0EB0A0149450CD8B9F1000F09D038
:102540002068012F13D0806926EA00000004000CE7
:102550000BD0CFE744F8305F84F80D80A573206975
:1025600040F02000206125730120BDE8F08740691C
:10257000EAE770B516460D4604460DE02046FFF723
:10258000F1FE08B1012070BD681C05D0FEF79CFE6D
:10259000801BA84207D835B120684069C0430006B7
:1025A000ECD4002070BD002044F8300F202161736E
:1025B000A073216941F0200121612073E2E700004E
:1025C0007FB5002120480091019102911D4A03919D
:1025D00002604FF480324260012452020461826042
:1025E000047680F82010194AC0E90A210325C56144
:1025F000C16080F830404161FEF7CFFA08B1FEF7C4
:10260000F5F907200095CDE9014069460E48FEF72F
:102610001BFA08B1FEF7EAF904200224CDE9000410
:1026200069460948FEF710FA08B1FEF7DFF9694676
:102630000548CDE90045FEF707FA002801D0FEF76E
:10264000D5F97FBD00200140340400200100000FB7
:10265000094808B5016841F4800101600068002262
:1026600000F48000009011463820FFF731F8BDE8F3
:1026700008403820FFF71EB8303802402DE9F04FEF
:1026800087B014216846FDF7D3FD3D48002401685A
:1026900041F004010160016801F004010591016845
:1026A00041F001010160016801F00101059101683B
:1026B00041F002010160016801F002010591016829
:1026C00041F0080101600068DFF8B89000F00800F0
:1026D00043F2F0050590002229464846FEF7EFFD3B
:1026E000DFF8A4A04FF40047002239465046FEF719
:1026F000E6FDDFF898B04FF44068002241465846A6
:10270000FEF7DDFD3020CDE900046946584602940D
:10271000FEF7F6FC0426CDE90064694648460294BB
:10272000FEF7EEFC00950125CDE9015469464846C7
:102730000394FEF7E5FC0097CDE901546946504645
:102740000394FEF7DDFCCDF80080CDE90154694625
:1027500058460394FEF7D4FC0D480096CDE90104D9
:1027600069460C48FEF7CCFC002211460820FEF713
:10277000AFFF0820FEF79EFF07B0BDE8F08F000016
:1027800030380240000402400000024000080240CD
:1027900000002110000C02400D4810B50B490160EB
:1027A0000C49416000214FF480428160C0E903126E
:1027B00041618161C1610162FEF78CFD002803D097
:1027C000BDE81040FEF712B910BD0000005C0040EB
:1027D000DC040020801A0600104810B50E49016084
:1027E0004FF48271416000218160C1604FF400723A
:1027F0000161C0E905122022C0E90721416281621E
:102800000A21C162FFF70EFA002803D0BDE810408C
:10281000FEF7ECB810BD0000003800403005002085
:1028200010B592B000240F941C2108A81094FDF755
:10283000FFFC20216846FDF7FBFC1E481C49C0E94F
:1028400000148460C460046144618461FFF756FC35
:1028500008B1FEF7CBF80F940FA916481094FFF7B4
:1028600095FA08B1FEF7C2F86020CDE908040A9491
:102870000C940D940C2208A90E480E94FFF7D6FB79
:1028800008B1FEF7B3F800944FF40050CDE90440CE
:10289000029401940394694606480794FFF74CFAA2
:1028A00008B1FEF7A3F80348FFF75CFB12B010BDB8
:1028B000000001408805002010B58CB02421684636
:1028C000FDF7B6FC0024154809944FF080410A94A6
:1028D000C0E90014611EC0E9024104618461032063
:1028E000CDE900040120CDE902040494CDE90540BE
:1028F0000794694609480894FFF769FA08B1FEF79A
:1029000075F8099409A905480A94FFF73FFA0028C9
:1029100001D0FEF76BF80CB010BD0000C805002018
:1029200010B58AB0002407941C2168460894FDF76E
:102930007FFC21481F49C0E900148460C460046121
:102940008461FFF7DBFB08B1FEF750F8079407A995
:1029500019480894FFF71AFA08B1FEF747F8602003
:10296000CDE9000402940022694613480494FFF75D
:102970005DFB08B1FEF73AF8042269460E48FFF7FE
:1029800055FB08B1FEF732F8082269460A48FFF7FE
:102990004DFB08B1FEF72AF80C2269460648FFF7FE
:1029A00045FB08B1FEF722F80348FFF7DBFA0AB04F
:1029B00010BD0000000400400806002010B58AB0D9
:1029C000002407941C2168460894FDF731FC1A483E
:1029D0001849C0E9001440F2E731C0E9024104613E
:1029E0008461FFF78BFB08B1FEF700F8079407A995
:1029F00011480894FFF7CAF908B1FDF7F7FF602006
:102A0000CDE900040294082269460B480494FFF7BC
:102A10000DFB08B1FDF7EAFF0C2269460648FFF7F7
:102A200005FB08B1FDF7E2FF0348FFF79BFA0AB088
:102A300010BD0000000800404806002010B58CB012
:102A400024216846FDF7F4FB002415480994134936
:102A50000A94C0E90014611EC0E902410461846166
:102A60000320CDE900040120CDE902040494CDE95E
:102A70000540079469460A480894FFF7A8F908B189
:102A8000FDF7B4FF099409A905480A94FFF77EF9F8
:102A9000002801D0FDF7AAFF0CB010BD000C0040CB
:102AA000880600200C4810B50A4901604FF4E13156
:102AB0004160002181600C22C160C0E90412816183
:102AC000C161FFF789FB002803D0BDE81040FDF786
:102AD0008DBF10BD00100140C8060020FEE7704702
:102AE0007047000070B5014601F048F80B4D0446F0
:102AF000002906DA002220212846FEF7E0FB012209
:102B000005E0012220212846FEF7D9FB00221021F2
:102B10002846FEF7D4FB0248046070BD0004024062
:102B20003C08004070B5014601F028F80B4D044602
:102B3000002906DA012280212846FEF7C0FB002288
:102B400005E0002280212846FEF7B9FB0122402142
:102B50002846FEF7B4FB0248046070BD0004024042
:102B6000400800407047FEF74BBD000010B592B022
:102B700030216846FDF75CFB14210CA8FDF758FBDB
:102B800014480024016841F080510160006800F0A1
:102B9000805011901048016841F480410160006844
:102BA000069400F4804011900220009001200390D0
:102BB000102004906846FEF7A7FE0F20CDE90C0414
:102BC0000E940F9400210CA81094FEF7B3FD12B0E0
:102BD00010BD0000403802400070004010480168FD
:102BE00041F4700101600F48016841F0010101608A
:102BF0000C4A00210832116002680B4B1A40026037
:102C0000031D0A4A1A60026822F480220260054805
:102C10000C30016002495806803908607047000096
:102C200088ED00E000380240FFFFF6FE103000247F
:102C3000F0B50268254C264D264E274F274B4FF006
:102C4000804CA04209D0604507D0A84205D0B042D0
:102C500003D0B84201D0984204D122F0700E4A68E5
:102C600042EA0E02A0421BD0604519D0A84217D0FC
:102C7000B04215D0B84213D0984211D0184DA84296
:102C80000ED0184DA8420BD0174DA84208D0174DB2
:102C9000A84205D0164DA84202D0164DA84203D135
:102CA00022F44075CA682A434D6922F080022A4303
:102CB00002608A68C2620A688262A04201D09842B9
:102CC00001D10969016301214161F0BD00000140AA
:102CD0000004004000080040000C004000040140D7
:102CE00000400140004401400048014000180040FD
:102CF000001C00400020004010B501F01F0301211E
:102D0000046A99408C430462016A9A40114301624B
:102D100010BD0000F0B5026A22F001020262036AEF
:102D200042688469124E24F073050C682C4323F02A
:102D300002058B682B430D4DA84201D0B04205D14E
:102D400023F00807CB683B4323F00403A84201D0DB
:102D5000B04205D14D6922F4407215438A692A4375
:102D600042608461496841630362F0BD0000014034
:102D700000040140F0B5026A22F010020262026A09
:102D8000436884690D6824F4E64444EA05248D68A8
:102D900022F0200242EA05120F4D104EA84201D047
:102DA000B04206D1CF6822F0800242EA071222F038
:102DB0004002A84201D0B04207D14D6923F44063DC
:102DC00043EA85038D6943EA85034360846149686A
:102DD00081630262F0BD0000000001400004014078
:102DE000F0B5026A22F480720262026A4368C46922
:102DF00022F4007224F073050C68124E2C438D6887
:102E000042EA05220E4DA84201D0B04206D1CF6859
:102E100022F4006242EA072222F48062A84201D032
:102E2000B04207D14D6923F4405343EA05138D693D
:102E300043EA05134360C4614968C1630262F0BD9F
:102E4000000001400004014030B5026A22F48052C3
:102E50000262046A4268C3690D6823F4E64343EAE8
:102E600005238D6824F4005444EA0534084DA84233
:102E700002D0084DA84204D14D6922F4804242EAB2
:102E800085124260C36149680164046230BD00007C
:102E900000000140000401402DE9F04104460068B3
:102EA0000169E26821F44051114301612169A06880
:102EB000E26908436169114322680843D16849F215
:102EC0000C6399430143D16020684169A26921F4F0
:102ED000407111434161E2696425B2F5004F9748A2
:102EE000974922684FF032083FD08A4201D082428F
:102EF0007CD1FEF7C7FC00EBC00101EB001061685C
:102F00008900B0FBF1F6FEF7BDFC00EBC00101EB60
:102F1000001061688900B0FBF1F0B0FBF5F06FF0D4
:102F20001801484306EB800108EB0110B0FBF5F0F7
:102F300000F0F006FEF7A6FC00EBC00101EB00106C
:102F400061688900B0FBF1F0B0FBF5F006EB00160C
:102F5000FEF798FC00EBC00101EB001061688900EE
:102F6000B0FBF1F7FEF78EFCD2E08A4201D082423C
:102F70003DD1FEF787FC00EBC00101EB001061685A
:102F80004900B0FBF1F0B0FBF5F00601FEF77AFC6A
:102F900000EBC00101EB001061684900B0FBF1F7E4
:102FA000FEF770FC00EBC00101EB00106168490006
:102FB000B0FBF1F0B0FBF5F06FF01801484307EB00
:102FC000800108EBC100B0FBF5F000F0F80006EB63
:102FD0004006FEF757FC00EBC00101EB00106168F2
:102FE0004900B0FBF1F7FEF74DFC3CE055E0FEF781
:102FF00039FC00EBC00101EB001061684900B0FB37
:10300000F1F0B0FBF5F00601FEF72CFC00EBC0017F
:1030100001EB001061684900B0FBF1F7FEF722FCFC
:1030200000EBC00101EB001061684900B0FBF1F05A
:10303000B0FBF5F06FF01801484307EB800108EB97
:10304000C100B0FBF5F000F0F80006EB4006FEF71B
:1030500009FC00EBC00101EB001061684900B0FB06
:10306000F1F7FEF7FFFB00EBC00101EB0010616818
:103070004900B0FBF1F0B0FBF5F06FF018014843E8
:1030800007EB800108EBC100B0FBF5F000F0070092
:10309000216830448860BDE8F081FEF7E3FB00EB77
:1030A000C00101EB001061688900B0FBF1F6FEF78A
:1030B000D9FB00EBC00101EB001061688900B0FB97
:1030C000F1F0B0FBF5F06FF01801484306EB80011A
:1030D00008EB0110B0FBF5F000F0F006FEF7C2FBC4
:1030E00000EBC00101EB001061688900B0FBF1F05A
:1030F000B0FBF5F006EB0016FEF7B4FB00EBC001E9
:1031000001EB001061688900B0FBF1F7FEF7AAFB44
:1031100000EBC00101EB001061688900B0FBF1F029
:10312000B0FBF5F06FF01801484307EB800108EBA6
:103130000110B0FBF5F000F00F00A9E7001401400A
:10314000001001402DE9F041984617460E4604460E
:10315000069D1DE0681C1BD02DB1FEF7B5F8A0EB55
:103160000800A84214D92068C16821F4D071C16058
:103170002068416921F001014161202084F8390073
:1031800084F83A00002084F838000320BDE8F0817C
:103190002068006836EA000004D00020B842D9D088
:1031A0000020F3E70120F9E7FEE700000FB4054B2C
:1031B00010B503A9044A029800F002F910BC5DF8AA
:1031C00014FB0000653B0008300000200FB41CB564
:1031D0000246002007AC00290BD0491ECDE9002192
:1031E000054B6A462146069800F0EAF8009A00214D
:1031F00011701CBC5DF814FBEF3A00080907090EBA
:10320000002804DB00F1E02080F80014704700F093
:103210000F0000F1E02080F8141D704702E008C89C
:10322000121F08C1002AFAD170477047002001E040
:1032300001C1121F002AFBD1704700002DE9FF5F7A
:1032400082B00021DDE90430020DDDF840B0034317
:1032500018D044F61050A2F2FF32424315141198D0
:1032600001281FD0A5EB0B00401C5FEA000A4FF0BD
:1032700000064E4FDFF83891B046504615D5CAF1DA
:10328000000413E0119801244AA3012801D16FEA38
:103290000B010298119AC0E90031C0E9024206B060
:1032A000BDE8F09FCBF10000DFE704460021404A73
:1032B000491842EB0450CDE9001012E0E00707D0B6
:1032C00032463B4640464946FDF778F980468946F6
:1032D00032463B4610461946FDF770F906460F4642
:1032E0006410002CEAD1DDE90401DDE90023BAF124
:1032F000000F06DAFDF762F942464B46FDF75EF92C
:1033000005E0FCF7A0FF42464B46FCF79CFF044655
:103310000E460022284BFDF7DBF903D84FF0FF30B3
:10332000014607E00022254B20463146FDF79FF875
:10333000FDF7B6F9102409E0002C0ADB0A2200236D
:10334000FCF73EFF039B30321A55641E50EA01021F
:10335000F2D1641C039AC4F111031444119A012A96
:1033600003D0012208430DD10AE0084304D0002015
:103370004FF0110B119072E7A3EB0B056D1E0DE0E2
:103380005B4504DD4FF0000205F1010504E003DABE
:103390004FF00002A5F10105002AECD00298119926
:1033A000C0E90231C0E9004579E70000000014409F
:1033B0000000F03F300000000000F0430000E03F5C
:1033C0002DE9FF4F95B09B468946064600250FE242
:1033D000252877D100242746F84A0121059400E0EA
:1033E000044316F8013F203B01FA03F01042F7D1E5
:1033F00030782A2811D06FF02F033078A0F13002F6
:10340000092A16D8059A44F0020402EB820203EB63
:1034100042021044761C0590EFE759F8042B059200
:10342000002A03DA504244F40054059044F00204A8
:10343000761C30782E2816D116F8010F44F00404BB
:103440002A280DD06FF02F023078A0F13003092B1D
:1034500009D807EB870302EB4303C718761CF3E791
:1034600059F8047B761C30786C280FD006DC4C2889
:1034700017D068280DD06A2814D104E0742810D021
:103480007A280FD10DE044F400140AE044F48014CB
:1034900001E044F440147278824202D104F58014B1
:1034A000761C761C307866280BD013DC582877D031
:1034B00009DC002875D04528F6D04628F4D04728E6
:1034C0001AD19DE118E0632835D0642879D06528A9
:1034D00012D195E1702873D008DC6728F1D06928F3
:1034E0006FD06E280DD06F2806D1B5E073282CD090
:1034F000752875D0782874D05A46179990476D1C56
:1035000075E1C4F30250022809D003280DD0D9F880
:10351000001004280DD00D6009F1040967E1D9F805
:103520000010EA17C1E90052F6E7D9F800100D8043
:10353000F2E70D70F0E719F8041B8DF80010002079
:103540008DF80100EA46012003E059F804AB4FF082
:10355000FF3061074FF0000102D40DE008F10101D6
:103560008846B9420FDA8045F8DB1AF808100029BE
:10357000F4D108E008F1010188468142FADB1AF82B
:1035800008100029F6D105985B46A0EB08072146F4
:103590003846179A00F094FA284400EB080507E033
:1035A0004DE029E10DE01AF8010B5A4617999047B2
:1035B000B8F10108F7D25B4621463846179A13E165
:1035C00042E00A220092C4F302524FF0000A022A9B
:1035D00008D059F804CB032A4FEAEC710AD00DE069
:1035E00029E02AE009F1070121F00702F2E802C10F
:1035F000914609E00FFA8CFC4FEAEC71042A03D1E2
:103600004FFA8CFC4FEAEC71002907DA0A460021D8
:10361000DCF1000C61EB02012D2202E0220504D551
:103620002B228DF80420012203E0E20701D02022A2
:10363000F7E7904659E00A2102E010220DE0102140
:103640004FF0000A00910BE010224FF0000A44F006
:1036500004040827009203E008224FF0000A0092B9
:10366000C4F30252022A05D059F804CB0021032AE0
:1036700008D009E009F1070121F00702F2E802C1D0
:10368000914605E01FFA8CFC042A01D10CF0FF0CD6
:103690004FF00008220728D5702806D0009B83F041
:1036A000100353EA0A0305D00EE040228DF80420EF
:1036B000012208E05CEA010206D030228DF80420E5
:1036C0008DF8050002229046009B83F0080353EA20
:1036D0000A030AD15CEA010201D1620705D5302252
:1036E0008DF804204FF001087F1E582804D034A024
:1036F00003900EA802900DE036A0F9E7534660460D
:10370000009AFCF75DFD84460398825C0298401E97
:10371000029002705CEA0100F0D1029806A9081A32
:1037200000F1200A600702D524F4803400E001276C
:10373000574502DDA7EB0A0000E0002000EB0A017C
:10374000009005984144401A0590E00306D45B467A
:103750002146179A059800F0B3F90544002706E0C2
:1037600001A85A46C05D179990476D1C7F1C4745BC
:10377000F6DBE0030CD55B462146179A059800F06E
:103780009FF9054404E030205A46179990476D1C74
:103790000099481E00900029F5DC08E00298029983
:1037A0005A460078491C0291179990476D1CBAF14E
:1037B0000001AAF1010AF1DC65E10000092801001D
:1037C0003031323334353637383961626364656697
:1037D0000000000030313233343536373839414259
:1037E000434445460000000000F058F90544761CAB
:1037F000307800287FF4ECAD19B02846BDE8F08F92
:10380000620700D4062709F1070222F0070CFCE842
:103810000223E14603F000485FEA080C02D00FF2F1
:10382000702C0DE05FEA045C02D50FF2682C07E013
:103830005FEAC47C02D00FF2602C01E0AFF2700CA2
:103840004FF0FF3823F00043CDF850C065280CD06E
:1038500006DC452809D046281DD047283DD13DE04B
:10386000662818D067287ED138E00021112F01DBAF
:10387000112000E0781CCDE9000106A90EA8FFF791
:10388000DDFCDDE90F010E9A03910021009207F1A2
:10389000010A04914DE04FF000400097CDE901107E
:1038A00006A90EA8FFF7CAFCDDE90F0203920E9BE2
:1038B00011990022DDF80CA00093049211B9791C33
:1038C00000EB010AB7EB0A0004D4C0F1FF3007F1A6
:1038D000010A0490AAEB0700019044E0012F00DAEE
:1038E00001270021112F01DD112000E03846CDE92C
:1038F000000106A90EA8FFF7A1FCDDE90F010E9A51
:103900000391002104910092BA4621070CD4039937
:10391000514500DA8A46BAF1010F05DD009AAAF195
:103920000101515C302908D0B84202DA10F1040FCD
:1039300006DA0121CDE9011015E0AAF10101E9E75C
:10394000002805DC049901440491AAEB000102E07F
:10395000411C514500DD8A460499401A401C0190E3
:103960004FF000400290200704D40198504501DB3D
:10397000CDF8048000208DF84F0002980DF14F071C
:10398000B0F1004F25D02B200E9002984FF0020886
:1039900000280CDA404202902D200E9007E00A2108
:1039A0000298FCF7D2FC3031029007F8011DB8F103
:1039B0000001A8F10108F2DC02980028EFD1791E7D
:1039C0000E980870307800F0200040F0450007F8AD
:1039D000020D12A8C01B00F107081498007800B16E
:1039E000012000EB0A01019801EBE07105984144C8
:1039F000401A401E0590E00306D45B462146179A04
:103A0000059800F05DF805441498007818B15A46FE
:103A1000179990476D1CE00324D55B462146179A01
:103A2000059800F04DF805441CE00498002807DBD9
:103A3000DDE90301884203DD0098405C179901E04D
:103A4000179930205A469047049805F10105401C0B
:103A500004900198401E019004D12E205A461799D7
:103A600090476D1CBAF10001AAF1010ADDDC05E006
:103A700017F8010B5A46179990476D1CB8F10001D1
:103A8000A8F10108F4DC5B462146179A0598ABE6DD
:103A90002D0000002B000000200000002DE9F04167
:103AA000044600251E461746880404D405E039461E
:103AB0002020B0476D1C641EF9D52846BDE8F08172
:103AC0002DE9F041044600251E469046C80301D565
:103AD000302700E02027880404D505E04146384619
:103AE000B0476D1C641EF9D52846BDE8F0814A68D0
:103AF000002A06D00A68531C0B6010704868401EEC
:103B0000486070470021064A02E0135CC01C19445B
:103B1000C028FADBC1F38710024908707047000023
:103B2000080700202800002000EE100ADFED0B0A35
:103B30008818B8EE400A20EE200ADFED090A60EE90
:103B4000200A00EE100AB8EE400A60EE800A00EE8D
:103B5000102AB8EE401A80EE810A70470000803BC0
:103B60003333534013B54FF6FF73012269460248C1
:103B7000FEF79AFB00981CBDC8060020B0F57A7FBE
:103B800002DB40F2E730704710F57A7FFBDC01483A
:103B90007047000019FCFFFFFDF73AFDFEF7E6FF56
:103BA000FEF76CFDFEF754FDFEF70AFDFEF7F4FD8F
:103BB000FEF712FEFEF734FEFEF77EFEFEF7B0FEC5
:103BC000FEF7FCFEFEF73AFFFEF76CFF0BA0FFF7D7
:103BD000EDFA00F059F800F027F800F08BFA00F049
:103BE0006FF84FF480640F4D00F088F80520FDF762
:103BF00067FA21462846FDF75BFBF5E72D2D2D2DB5
:103C00002D2D2D2D2D2D205374617274696E67201A
:103C10004A45525259202D2D2D2D2D2D2D2D2D2D36
:103C20002D0D0A000008024010B53C211248FEF795
:103C30007FF93C211148FEF77BF90C211048FEF773
:103C4000A9FA104C002280212046FDF738FB012202
:103C500040212046FDF733FB08210948FEF79AFA78
:103C6000012220212046FDF72AFB20460022BDE844
:103C700010401021FDF723BBC80500208806002056
:103C8000480600200004024010B500F025F901208C
:103C900000F012F91321082000F084F905480023F0
:103CA000D0E9001204A000F00FFABDE8104000F0C7
:103CB0007FB90000200000204C6F6164696E6700CE
:103CC00010B5002000F0F8F81321182000F06AF970
:103CD00007480123D0E9001206A000F0F5F900F032
:103CE00067F9BDE810404FF47A70FDF7E9B90000BC
:103CF000200000204A4552525900000010B592B0F1
:103D0000002000F0D9F8FCF772FE10EE100AFCF764
:103D100009FBCDE900013EA23C2102A8FFF756FABB
:103D20000021084600F03EF93D4C012302A8D4E9E9
:103D3000001200F0C9F9FCF771FE10EE100AFCF752
:103D4000F1FACDE9000137A23C2102A8FFF73EFAC3
:103D50000A21002000F026F9D4E90012012302A86C
:103D600000F0B2F9FCF765FE10EE100AFCF7DAFA83
:103D7000CDE900012FA23C2102A8FFF727FA142168
:103D8000002000F00FF9D4E90012012302A800F08E
:103D90009BF9FCF737FE10EE100AFCF7C3FACDE9E9
:103DA000000128A23C2102A8FFF710FA1E210020E2
:103DB00000F0F8F8D4E90012012302A800F084F919
:103DC0002448036824A23C2102A8FFF7FFF9282118
:103DD000002000F0E7F8D4E90012012302A800F067
:103DE00073F94FF08040436A1FA23C2102A8FFF7FD
:103DF000EDF93221002000F0D5F8D4E900120123BA
:103E000002A800F061F900F0D3F812B010BD000074
:103E1000426174746572793A20252E32662056000C
:103E20001800002043656C6C20313A20252E326644
:103E30002056000043656C6C20323A20252E3266F5
:103E400020560000426F6F73743A20252E32662090
:103E500056000000240C0040456E636F64657220BC
:103E60004C3A202564000000456E636F6465722043
:103E7000523A20256400000070B5802813D24029F2
:103E800011D20B4B012401F007051E79AC40094B00
:103E9000C90800EBC1100EB132B101E0012A03D014
:103EA000195CA143195470BD195C2143FAE7000065
:103EB000100000203400002010B5064A00214FF405
:103EC000806328B1FF245454491C9942F9D310BD92
:103ED0000024F8E73400002010B56420FDF7F0F866
:103EE000AE2000F0CFF8202000F0CCF8102000F039
:103EF000C9F8B02000F0C6F8C82000F0C3F80020D0
:103F000000F0C0F8102000F0BDF8402000F0BAF832
:103F1000812000F0B7F8FF2000F0B4F8A12000F0F5
:103F2000B1F8A62000F0AEF8A82000F0ABF83F20D2
:103F300000F0A8F8A42000F0A5F8D32000F0A2F823
:103F4000002000F09FF8D52000F09CF8F02000F051
:103F500099F8D92000F096F8222000F093F8DA20A2
:103F600000F090F8122000F08DF8DB2000F08AF8C5
:103F7000202000F087F88D2000F084F8142000F055
:103F800081F8AF2000F07EF80020FFF795FF00F0E9
:103F90000FF803480021018041800121417110BDCB
:103FA00010000020014A108051807047100000204E
:103FB00070B50C4D002400BF04F1B000C0B200F099
:103FC00061F8002000F05EF8102000F05BF805EBCF
:103FD000C410802100F068F8641CE4B2082CEBD314
:103FE00070BD0000340000202DE9FF4F83462448B7
:103FF0009246CEB202883244802A06D28146408858
:10400000C1F307273844402803D3002004B0BDE89B
:10401000F08F002528E000BFABF1200010FB075017
:104020003AF8108000241CE008FA04F0000409D5D6
:1040300099F8021099F8000029442044C9B2C0B28E
:10404000039A0BE00398C0B15FF0000299F80210E8
:1040500099F8000029442044C9B2C0B2FFF70CFF10
:10406000641CA642E0D86D1CAF42D5D8B9F8001048
:1040700058463144A9F80010C8E70122E6E70000DD
:104080001000002001B584B001214FF0FF3204A8D8
:104090008DE807000B46002278210248FDF7D4F98D
:1040A00005B000BDDC0400200EB54FF0FF3289B230
:1040B0008DE807000123402278210248FDF7C4F96A
:1040C0000EBD0000DC040020F0B51D460E4617466C
:1040D00004460AE02B463A463146FFF785FF217831
:1040E000884201D0C8B2F0BD641C20780028F1D10C
:1040F000C0B2F0BD0248034942680348FCF7D2BD94
:1041000028000020080700203404002000061016B4
:104110000006101600000000000000000102030469
:104120000607080900000000010203040000000067
:10413000000000000000000000000000000000007F
:1041400000100010001000100010001000000010FF
:1041500000000000002800280028000000000000E7
:10416000000000000000000000240024007C002467
:104170000048007C0048004800000000003800545F
:1041800000500038001400540054003800100000A3
:10419000002000540058003000280054001400088B
:1041A0000000000000100028002800100034004823
:1041B0000048003400000000001000100010000053
:1041C00000000000000000000000000000080010D7
:1041D0000020002000200020002000200010000807
:1041E000002000100008000800080008000800086F
:1041F000001000200010003800100028000000000F
:10420000000000000000000000000000001000108E
:10421000007C001000100000000000000000000002
:10422000000000000000000000000010001000105E
:104230000000000000000000000000380000000046
:10424000000000000000000000000000000000006E
:10425000000000100000000000080008001000101E
:104260000010001000200020000000000038004472
:1042700000440054004400440044003800000000A2
:10428000001000300050001000100010001000104E
:104290000000000000380044004400040008001042
:1042A0000020007C000000000038004400040018DA
:1042B000000400040044003800000000000800185A
:1042C000002800280048007C0008000800000000CA
:1042D000007C0040004000780004000400440038E6
:1042E0000000000000380044004000780044004412
:1042F0000044003800000000007C000400080010AA
:1043000000100020002000200000000000380044C1
:10431000004400380044004400440038000000001D
:104320000038004400440044003C000400440038CD
:10433000000000000000000000100000000000006D
:10434000000000100000000000000000000000104D
:10435000000000000000001000100010000000002D
:10436000000C003000400030000C00000000000095
:10437000000000000000007C0000007C0000000045
:104380000000000000000000006000180004001899
:104390000060000000000000003800440004000835
:1043A0000010001000000010000000000038004461
:1043B000004C0054005C0040004000380000000049
:1043C00000100028002800280028007C0044004439
:1043D00000000000007800440044007800440044DD
:1043E0000044007800000000003800440040004015
:1043F0000040004000440038000000000070004809
:1044000000440044004400440048007000000000E4
:10441000007C00400040007C004000400040007CE8
:1044200000000000007C0040004000780040004098
:104430000040004000000000003800440040004000
:10444000005C0044004400380000000000440044C8
:104450000044007C0044004400440044000000008C
:10446000003800100010001000100010001000387C
:104470000000000000040004000400040004000424
:104480000044003800000000004400480050006074
:104490000050004800480044000000000040004078
:1044A00000400040004000400040007C0000000050
:1044B0000044006C006C005400440044004400447C
:1044C0000000000000440064006400540054004CEC
:1044D000004C004400000000003800440044004448
:1044E000004400440044003800000000007800440C
:1044F00000440044007800400040004000000000FC
:104500000038004400440044004400440054003893
:104510000004000000780044004400440078004893
:104520000048004400000000003800440040003013
:10453000000800040044003800000000007C001067
:10454000001000100010001000100010000000000B
:104550000044004400440044004400440044003847
:104560000000000000440044004400280028002807
:1045700000100010000000000044004400540054EB
:104580000054006C002800280000000000440028AF
:10459000002800100010002800280044000000003F
:1045A00000440044002800280010001000100010F3
:1045B00000000000007C0004000800100010002033
:1045C0000040007C000000000018001000100010E7
:1045D0000010001000100010001000180020002033
:1045E000001000100010001000080008000000007B
:1045F000003000100010001000100010001000101B
:1046000000100030001000280028004400000000C6
:10461000000000000000000000000000000000009A
:104620000000000000000000000000FE002000105C
:10463000000000000000000000000000000000007A
:104640000000000000380044003C0044004C0034EE
:104650000000000000400040005800640044004496
:104660000064005800000000000000000038004412
:104670000040004000440038000000000004000436
:104680000034004C00440044004C003400000000A2
:104690000000000000380044007C00400044003866
:1046A00000000000000C0010007C00100010001042
:1046B0000010001000000000000000000034004C5A
:1046C00000440044004C00340004007800400040E6
:1046D000005800640044004400440044000000000E
:1046E00000100000007000100010001000100010FA
:1046F000000000000010000000700010001000100A
:1047000000100010001000E0004000400048005081
:1047100000600050004800440000000000700010DD
:104720000010001000100010001000100000000029
:10473000000000000078005400540054005400545D
:104740000000000000000000005800640044004425
:104750000044004400000000000000000038004455
:104760000044004400440038000000000000000045
:1047700000580064004400440064005800400040B9
:10478000000000000034004C00440044004C0034A1
:1047900000040004000000000058006400400040D5
:1047A000004000400000000000000000003800440D
:1047B0000030000800440038000000000020002005
:1047C00000780020002000200020001800000000D9
:1047D000000000000044004400440044004C003449
:1047E00000000000000000000044004400280028F1
:1047F00000280010000000000000000000540054D9
:104800000054006C00280028000000000000000098
:1048100000440028001000100028004400000000A0
:104820000000000000440044002800280010001090
:104830000010006000000000007C00080010002054
:104840000040007C00000000001800100010001064
:1048500000200020001000100010001800100010B0
:1048600000100010001000100010001000100010C8
:1048700000300010001000100008000800100010A8
:10488000001000300000000000000074004C000028
:104890000000000000000000000000000000000018
:1048A0000000000000000000000000000000000008
:1048B00000000000000000000000000000000000F8
:1048C000000000000000000000000000E003E00322
:1048D000E003E003E003E003E003E003C003C00300
:1048E000C001C001C001C001C00100000000000003
:1048F000E003E003E003000000000000000000000F
:104900003C1E3C1E3C1E3C1E3C1E3C1E3C1E000031
:104910000000000000000000000000000000000097
:104920000000000000000000000000000000000087
:1049300000000000CE01CE03DE039E039C039C0713
:10494000FF3FFF7F3807380F780F780F780EFFFF93
:10495000FFFFF01EF01CE01CE03CE03DE0390000F1
:104960000000000000000000FC03FE0FEE1FE01E30
:10497000E01EE01EE01EE01FE00FE007F003FC0178
:10498000FE01FE01FE01FE01FE01FE01FE3DFC3FB7
:10499000F00FE001E001000000000000033E07F717
:1049A0008FE78EE79EE3BCE3B8E7F8E7F0F7E03F78
:1049B000C001FF03FF07F307F30FF31EF33CF338C7
:1049C000F3787FF03FE000000000000000000000EE
:1049D000E007F80F780F781F781F781F780FF00F17
:1049E000E00F801FC37FC3FBE7F3F7F1F7F0FFF0A1
:1049F0007FF03EF87F7CFF3FEF1F000000000000CB
:104A000000000000E003E003E003E003E003C00374
:104A1000C0010000000000000000000000000000D5
:104A20000000000000000000000000000000000086
:104A300000000000000000003F007C00F001E001E9
:104A4000C003C00780078007800F000F000F000F12
:104A5000000F000F000F800F80078007C007C00302
:104A6000E001F0017C003F000F000000007E001F0D
:104A7000C007C003E001F001F000F000F80078008A
:104A800078007800780078007800F800F000F000F6
:104A9000F001E001C003C007001F007E00780000A5
:104AA000E003C003C001CE39FF3F7F3F2003700306
:104AB000F807780F3C1F38060000000000000000D7
:104AC00000000000000000000000000000000000E6
:104AD00000000000000000000000000000000000D6
:104AE000C001C001C001C001C001C001C001FFFF81
:104AF000FFFFC001C001C001C001C001C001000032
:104B000000000000000000000000000000000000A5
:104B10000000000000000000000000000000000095
:104B200000000000000000000000E003E003E003DC
:104B3000E003E001E001E001C001800300000000AB
:104B40000000000000000000000000000000000065
:104B50000000FE3FFE3F00000000000000000000DB
:104B60000000000000000000000000000000000045
:104B70000000000000000000000000000000000035
:104B80000000000000000000000000000000000025
:104B90000000E003E003E003E00300000000000089
:104BA000000000000F000F001E001E003C003C0033
:104BB00078007800F000F000E001E001C003C003DD
:104BC00080078007000F000F001E001E003C003C05
:104BD0000078007800F00000F007F80F7C1F3E3EE0
:104BE0001E3C1F7C1F7C0F780F780F780F780F7892
:104BF0000F780F781F7C1F7C1E3C3E3E7C1FF80FF9
:104C0000F00700000000000000000000F000F007C6
:104C1000F03FF03FF001F001F001F001F001F00190
:104C2000F001F001F001F001F001F001F001F001FC
:104C3000F001FF3FFF3F0000000000000000000007
:104C4000E00FF83F7C3C3C003E003E003E003C0054
:104C50003C007C00F800F001E003C0078007000F73
:104C6000001E003E003CFE3FFE3F00000000000032
:104C700000000000F00FF81F7C1C3E003E003E00CC
:104C80003C003C00F800F00FF80F7C003E001E00D6
:104C90001E001E001E003E007C1CF81FE01F0000CE
:104CA00000000000000000007800F800F800F801A3
:104CB000F803F807F807780F781E781E783C7878A4
:104CC0007878FFFFFFFF78007800780078007800A0
:104CD000780000000000000000000000FC1FFC1F26
:104CE000FC1F001E001E001E001E001EE01FF81FFD
:104CF000FC007C003E003E001E003E003E003C00EA
:104D00007C1CF81FE01F00000000000000000000F5
:104D1000FC01FE078E0F001F001E003E003C003C01
:104D2000F83DFC3F3E7F1F7E0F3C0F3C0F3C0F3C8D
:104D30000F3E1F1E3E1FFC0FF0030000000000008E
:104D400000000000FF3FFF3FFF3F0F001E001E005E
:104D50003C0038007800F000F000E001E001C00302
:104D6000C0038007800F800F000F001F001F00008E
:104D70000000000000000000F807FC0F3E1F1E1E90
:104D80001E3E1E3E1E1E3C1FF80FF007F80FFC1EB5
:104D90003E3E1F3C1F7C0F7C0F7C1F3C3E3FFC1F98
:104DA000F00700000000000000000000F007F80F0E
:104DB0007C1E3E3C1E3C1F7C1F7C1F7C1F7C1F3CBE
:104DC0003F3EFF1FEF071F001E001E003E003C007D
:104DD000F838F03FE01F0000000000000000000075
:104DE000000000000000000000000000E003E003FD
:104DF000E003E003000000000000000000000000ED
:104E00000000E003E003E003E00300000000000016
:104E10000000000000000000000000000000000092
:104E2000E003E003E003E0030000000000000000F6
:104E3000000000000000E003E003E003E003E00105
:104E4000E001E001C003800300000000000000005A
:104E50000000000003000F003F00FC00F003C00F43
:104E6000003F00FE003FC00FF003FC003F000F00BA
:104E7000030000000000000000000000000000002F
:104E80000000000000000000000000000000000022
:104E9000FFFFFFFF000000000000FFFFFFFF00001A
:104EA0000000000000000000000000000000000002
:104EB00000000000000000000000000000E000F81A
:104EC000007E801FE007F8017E001F007E00F801D1
:104ED000E007801F007E00F800E0000000000000F6
:104EE00000000000F01FFC3F3E381F381F381E0036
:104EF0001E003C007800F000E001C003C003C007C2
:104F0000C007000000000000C007C007C007000085
:104F10000000000000000000F803FE0F1E1F0F3EFF
:104F20007F3CFF78EF79C773C7F38FF38FF38FF36D
:104F30009FF39FF3FF73FF7BF779003C1C1FFC0F6F
:104F4000F803000000000000000000000000000066
:104F50000000E003E003F007F007F007780F780F98
:104F60007C0E3C1E3C1E3E3CFE3FFF3F1F780F78F0
:104F70000FF007F007F00000000000000000000044
:104F8000000000000000F83FFC3F3E3C1E3C1E3C81
:104F90001E3C3E3C7C3CF03FF83F7E3C1F3C1F3CAF
:104FA0000F3C0F3C1F3CFE3FF83F0000000000009C
:104FB00000000000000000000000FF01FF07871F45
:104FC000003E003C007C0078007800780078007893
:104FD000007C007C003E003F831FFF07FF010000B4
:104FE0000000000000000000000000000000F07F52
:104FF000FC7F7E781F781F780F780F780F780F78F6
:105000000F780F780F780F781F781E787E78F87FEA
:10501000E07F000000000000000000000000000031
:105020000000FF3FFF3F003E003E003E003E003ECE
:10503000003EFE3FFE3F003E003E003E003E003E82
:10504000003EFF3FFF3F00000000000000000000A6
:10505000000000000000FF1FFF1F001E001E001EBA
:10506000001E001E001EFF1FFF1F001E001E001E50
:10507000001E001E001E001E001E0000000000009A
:1050800000000000000000000000FE03FF0F871F6B
:10509000003E007C007C007800F800F87FF87FF884
:1050A0000F780F7C0F7C0F3E8F1FFF0FFE03000059
:1050B00000000000000000000000000000001F7C55
:1050C0001F7C1F7C1F7C1F7C1F7C1F7C1F7CFF7F25
:1050D000FF7F1F7C1F7C1F7C1F7C1F7C1F7C1F7C15
:1050E0001F7C000000000000000000000000000025
:1050F0000000FF3FFF3FE003E003E003E003E003C5
:10510000E003E003E003E003E003E003E003E00387
:10511000E003FF3FFF3F0000000000000000000030
:10512000000000000000FC1FFC1F7C007C007C00D5
:105130007C007C007C007C007C007C007C007C008F
:1051400078007800F838F03FC03F00000000000011
:10515000000000000000000000001F3C1E3C3C3C22
:10516000783CF03CE03DE03FC03F803FC03FE03F47
:10517000F03DF03C783C7C3C3E3C1F3C0F3C00004A
:105180000000000000000000000000000000003EE1
:10519000003E003E003E003E003E003E003E003E1F
:1051A000003E003E003E003E003E003E003EFF3F0F
:1051B000FF3F0000000000000000000000000000B1
:1051C00000001FF81FFC1FFC3FFE3FFE3FFE7FFF5D
:1051D00077FF77FFF7F7E7F7E7F3E7F3C7F307F0B2
:1051E00007F007F007F000000000000000000000DA
:1051F0000000000000000F7C0F7C0F7E0F7F0F7FF0
:105200008F7F8F7FCF7FEF7BEF79FF79FF78FF78FC
:105210007F783F783F781F781F78000000000000FB
:1052200000000000000000000000F007FC1F3E3EF0
:105230001F7C0F780F780FF80FF80FF80FF80FF8A2
:105240000FF80F780F781F7C3E3EFC1FF007000020
:105250000000000000000000000000000000FC3F13
:10526000FF3F1F3E0F3E0F3E0F3E0F3E1F3E3F3E95
:10527000FC3FF03F003E003E003E003E003E003E50
:10528000003E0000000000000000000000000000E0
:105290000000F007FC1F3E3E1F7C0F780F780FF8D0
:1052A0000FF80FF80FF80FF80FF80F780F781F7C32
:1052B0003E3EFC1FF8077C003F000F00030000008B
:1052C000000000000000F03FFC3F7E3C3E3C1E3CE6
:1052D0001E3C3E3C3C3CFC3CF03FE03FF03DF83C9B
:1052E0007C3C3E3C1E3C1F3C0F3C0000000000008C
:1052F00000000000000000000000FC07FE1F0E3E42
:10530000003C003C003C003EC01FF80FFE037F0045
:105310001F000F000F001F203E3CFC3FF01F00004D
:105320000000000000000000000000000000FFFF7F
:10533000FFFFE003E003E003E003E003E003E0033A
:10534000E003E003E003E003E003E003E003E00345
:10535000E00300000000000000000000000000006A
:1053600000000F7C0F7C0F7C0F7C0F7C0F7C0F7C70
:105370000F7C0F7C0F7C0F7C0F7C0F7C1E3C1E3C37
:105380003E3EFC1FF007000000000000000000008F
:1053900000000000000007F007F007F80F780F7C0E
:1053A0001E3C1E3C1E3E3C1E3C1F781F780FF80F13
:1053B000F007F007F007E003E00300000000000042
:1053C0000000000000000000000003E003F003F014
:1053D00007F0E7F3E7F3E7F3E773F77BF77FFF7F88
:1053E0007F7F7F7F7E7F7E3F3E3E3E3E3E3E000093
:1053F000000000000000000000000000000007F8AE
:105400000F7C1E3E3E3E3C1FF80FF007E007E00316
:10541000E003F007F80F7C0F7C1E3E3C1F780F78EE
:105420000FF000000000000000000000000000007D
:10543000000007F807780F7C1E3C1E3E3C1F780FCB
:10544000F80FF007E003E003E003E003E003E0030C
:10545000E003E003E00300000000000000000000A3
:10546000000000000000FF7FFF7F0F001F003E00D4
:105470007C00F800F000E001E003C007800F000F9F
:10548000001E003E007CFF7FFF7F00000000000048
:1054900000000000FF078007800780078007800763
:1054A00080078007800780078007800780078007C4
:1054B00080078007800780078007800780078007B4
:1054C0008007FF07FF07000000780078003C003CE1
:1054D000001E001E000F000F80078007C003C003DE
:1054E000E001E001F000F000780078003C003C00B2
:1054F0001E001E000F000F0007000000F07FF000EC
:10550000F000F000F000F000F000F000F000F0001B
:10551000F000F000F000F000F000F000F000F0000B
:10552000F000F000F000F000F000F07FF07F0000ED
:10553000C000C001C001E003E003F007F0077807F6
:10554000780F380F3C1E3C1E1E3C1E3C0F380F7857
:1055500007780000000000000000000000000000CC
:10556000000000000000000000000000000000003B
:10557000000000000000000000000000000000002B
:105580000000000000000000000000000000FFFF1D
:10559000FFFF000000000000F0000000000000001D
:1055A00000000000000000000000000000000000FB
:1055B00000000000000000000000000000000000EB
:1055C00000000000000000000000000000000000DB
:1055D0000000000000000000F80FFC3F7C3C3E0093
:1055E0003E003E00FE07FE1F3E3E3E7C3E783E7C77
:1055F0007E7CFF3FCF1F0000000000000000000085
:10560000003C003C003C003C003C003CF83DFE3FC0
:105610003E3F1F3E0F3C0F3C0F3C0F3C0F3C0F3CEE
:105620001F3C1E3C3E3FFC3FF03B000000000000E2
:10563000000000000000000000000000000000006A
:10564000FE03FF0F871F003E003E003C007C007CF5
:10565000007C003C003E003E871FFF0FFE03000061
:1056600000000000000000001F001F001F001F00BE
:105670001F001F00FF07FF1F3F3E1F3C1F7C1F7CBA
:105680001F7C1F781F781F7C1F7C3F3C7F3EFF1FC5
:10569000DF0F00000000000000000000000000001C
:1056A0000000000000000000F803FC0F3E1F1E3E3B
:1056B0001F3C1F7CFF7FFF7F007C007C003C003E86
:1056C000071FFF0FFE0300000000000000000000A5
:1056D000FF01E103C003C007C007C007FF7FFF7FD2
:1056E000C007C007C007C007C007C007C007C00782
:1056F000C007C007C007C007C007000000000000C7
:105700000000000000000000000000000000000099
:10571000EF07FF1F7F3E1F3C1F7C1F7C1F781F78F9
:105720001F781F7C1F7C3F3C7F3EFF1FDF0F1E004A
:105730001E001E007C38F83F003C003C003C003C52
:10574000003C003CFC3DFE3F9E3F1F3F1F3E1F3C78
:105750001F3C1F3C1F3C1F3C1F3C1F3C1F3C1F3C71
:105760001F3C00000000000000000000F001F001FC
:105770000000000000000000E07FE07FE001E001A9
:10578000E001E001E001E001E001E001E001E00111
:10579000E001E001E0010000000000000000000066
:1057A000F800F8000000000000000000F83FF83F9B
:1057B000F800F800F800F800F800F800F800F80029
:1057C000F800F800F800F800F800F800F800F00021
:1057D000F071E07F003C003C003C003C003C003CA1
:1057E0001F3C3E3C7C3CF83CF03DE03DC03FC03FB0
:1057F000E03FF03DF83C7C3C3E3C1F3C1F3C000041
:105800000000000000000000F07FF001F001F00156
:10581000F001F001F001F001F001F001F001F00100
:10582000F001F001F001F001F001F001F001F001F0
:10583000F001000000000000000000000000000077
:1058400000000000000000009EF7FFFFFFFFFFFFC9
:10585000E7FBE7F9C7F1C7F1C7F1C7F1C7F1C7F136
:10586000C7F1C7F1C7F10000000000000000000010
:10587000000000000000000000000000FC3DFE3FB2
:105880009E3F1F3F1F3E1F3C1F3C1F3C1F3C1F3CB9
:105890001F3C1F3C1F3C1F3C1F3C00000000000041
:1058A00000000000000000000000000000000000F8
:1058B000F007FC1F3E3E1F3C1F7C0F780F780F78CF
:1058C0000F780F781F7C1F3C3E3EFC1FF007000046
:1058D00000000000000000000000000000000000C8
:1058E00000000000F83DFE3F3E3F1F3E0F3C0F3CD6
:1058F0000F3C0F3C0F3C0F3C1F3C1E3E3E3FFC3F0D
:10590000F83F003C003C003C003C003C0000000034
:105910000000000000000000EE07FE1F7E3E1E3C5F
:105920001E7C1E781E781E781E781E781E7C3E7C9B
:105930007E3EFE1FDE0F1E001E001E001E001E000B
:105940000000000000000000000000007F1FFF1F9B
:10595000E71FC71F871F001F001F001F001F001F1A
:10596000001F001F001F001F001F0000000000009C
:105970000000000000000000000000000000000027
:10598000FC07FE1F0E1E003E003E003FE01FFC070E
:10599000FE003E001E001E003E3CFC3FF01F0000CB
:1059A0000000000000000000000000000000800770
:1059B00080078007FF7FFF7F8007800780078007C1
:1059C000800780078007800780078007C007FF03E4
:1059D000FF010000000000000000000000000000C7
:1059E00000000000000000001E3C1E3C1E3C1E3C4F
:1059F0001E3C1E3C1E3C1E3C1E3C1E3C3E3C7E3C57
:105A0000FE3EFE1FDE0F0000000000000000000050
:105A100000000000000000000000000007F00F7808
:105A20000F781E3C1E3C1E3E3C1E3C1E780F780F1D
:105A3000F00FF007F007E003E003000000000000B3
:105A40000000000000000000000000000000000056
:105A500003F0E3F1E3F3E7F3F7F3F7F3F77F777F8F
:105A60007F7F7F7F7F7F3E3E3E3E3E3E3E3E00004C
:105A70000000000000000000000000000000000026
:105A8000000000000F7C1E3E3C3E3C1FF80FF0075C
:105A9000F007E003F007F807F80F7C1E3E3E1F3CBE
:105AA0001F7800000000000000000000000000005F
:105AB000000000000000000007F80F780F7C1E3C7B
:105AC0001E3C3C1E3C1E3C1F780FF80FF007F007F1
:105AD000E003E003C003C003C0038007800F007F22
