:020000040800F2
:10000000980D00209D0100084F2D0008A325000831
:100010004D2D000815090008C93300080000000034
:10002000000000000000000000000000532D000848
:10003000C909000800000000512D0008552D0008D6
:10004000B7010008B7010008B7010008B7010008B0
:10005000B7010008B7010008B7010008B7010008A0
:10006000CD090008B7010008B7010008B701000872
:10007000B7010008B7010008B7010008B701000880
:10008000B7010008B7010008B7010008B701000870
:10009000B7010008B7010008B7010008B701000860
:1000A000B7010008B7010008B7010008B701000850
:1000B000B7010008B7010008B7010008B701000840
:1000C000B7010008B7010008B7010008B701000830
:1000D000B7010008B7010008B7010008B701000820
:1000E000B7010008B7010008B7010008B701000810
:1000F000B70100081D2E0008B7010008B70100086D
:10010000B7010008B7010008B7010008B7010008EF
:10011000B7010008B7010008B7010008B7010008DF
:1001200019090008B7010008B7010008B701000865
:10013000B70100080000000000000000B70100083F
:10014000B7010008B7010008B7010008B7010008AF
:10015000B7010008B7010008B7010008B70100089F
:10016000B7010008B7010008B7010008B70100088F
:10017000B7010008B70100080000000000000000FF
:10018000B7010008B7010008DFF80CD000F0C2FA90
:1001900000480047AD3D0008980D00200648804704
:1001A00006480047FEE7FEE7FEE7FEE7FEE7FEE75C
:1001B000FEE7FEE7FEE7FEE7C92D0008890100081B
:1001C0002DE9F05F0546002092469B46884606468C
:1001D000814640241BE0284641464746224600F01F
:1001E00054F953465A46C01A914110D31146184645
:1001F000224600F03BF92D1A67EB01084F462246D4
:100200000120002100F032F917EB00094E41201EB9
:10021000A4F10104DFDC484631462A464346BDE8E6
:10022000F09FD2B201E000F8012B491EFBD27047CB
:100230000022F6E710B513460A4604461946FFF7B2
:10024000F0FF204610BD034611F8012B00F8012BEA
:10025000002AF9D1184670472DE9FE4F81EA0304C0
:1002600004F0004421F0004100944FF0000B23F013
:10027000004350EA01045ED052EA03045BD0C3F3AA
:100280000A54C1F30A552C44A4F2F3340194A0FBA0
:100290000254C1F3130141F48011C3F3130343F477
:1002A000801301FB024400FB034E840A970A44EAD0
:1002B000815447EA8357A4FB076802958D0A05FB22
:1002C00007854FEA932C04FB0C542705029D4FEA47
:1002D000065847EA1637B5EB08056EEB070C870E94
:1002E000920E47EA811742EA8312A7FB0201B6EB9E
:1002F0000B0164EB00042B0D43EA0C335E1844EB56
:100300001C50DA465146E7FB0201C5F313044FEADD
:100310000B3343EA14534FEA0432019C43EA0603C9
:10032000A4F10C040294009CCDE900B400F0CCF8D8
:1003300003B0BDE8F08F00200146F9E72DE9F04D4C
:1003400081EA030404F0004B21F0004514464FF00D
:10035000000A23F0004150EA050220D054EA0102CD
:100360001DD0C5F30A570246C5F31303C1F31300AA
:10037000C1F30A5640F4801543F48013A7EB060836
:10038000101BD64608F2FD3873EB050002D308F1C6
:10039000010801E092185B41B8F1000F03DA002078
:1003A0000146BDE8F08D00204FF4801106468446DA
:1003B0000EE0171B73EB050705D3121B63EB050358
:1003C00006434CEA010C49084FEA300092185B41A1
:1003D00050EA0107EDD152EA030012D082EA04008C
:1003E00083EA0501084305D0101BAB4106D2012268
:1003F000002306E000224FF0004302E06FF001020C
:1004000053101AEB06004CEB085110EB0A0041EBBD
:100410000B01BDE8F04D00F048B800F0004230F0AC
:1004200000400AD0C10D01F56071C0F3160042EA28
:100430000151C20840071143704700200146704730
:1004400030B50B46014600202022012409E021FAA4
:1004500002F59D4205D303FA02F5491B04FA02F5A1
:100460002844151EA2F10102F1DC30BD202A04DB74
:10047000203A00FA02F1002070479140C2F12003B7
:1004800020FA03F3194390407047202A04DB203AF6
:1004900021FA02F00021704721FA02F3D040C2F1A4
:1004A0002002914008431946704710B5141E73F19D
:1004B000000408DA401C41F1000192185B411A4324
:1004C00001D120F0010010BD2DE9F04D92469B4670
:1004D00011B1B1FA81F202E0B0FA80F22032904616
:1004E000FFF7C4FF04460F4640EA0A0041EA0B0149
:1004F00053465A46084313D0114653EA010019D017
:10050000C8F140025046FFF7C0FF05460E46504670
:1005100059464246FFF7AAFF084305D0012004E0F0
:1005200020463946BDE8F08D0020054346EAE076D6
:100530002C4337430A986305E40AA0EB0800002225
:10054000FD0A44EA47540A3002D500200146E9E793
:10055000010510196941DDE9084500196941BDE847
:10056000F04DA2E72DE9FE4F804681EA0300C00F5F
:100570000C46009021F0004123F00045B8EB02004A
:10058000A94105D24046214690461C460B460246EC
:1005900023F00040104347D0270DC7F30A00C3F3F0
:1005A0000A510290401A019040286BDAC3F31300FD
:1005B00040F4801B0098924620B10023D2EB030A3E
:1005C00063EB0B0B01985946C0F140025046FFF710
:1005D0004DFF06460D4650465946019A00F0ACF8CC
:1005E00010EB08006141002487EA115284EAE773A6
:1005F0001A4340D0009A62B3019A012A4FEA075287
:1006000015DC001B61EB02014FF0004202EA0752C9
:10061000CDE90042001C41F5801132462B46FFF720
:1006200053FF03B0BDE8F08F40462146F9E7001BB9
:1006300061EB0201001C41F5801300185B4120189A
:10064000A2F5001747EB030140EAD570B6196D41DA
:1006500011E06D084FEA360645EAC0754FEA0752C9
:10066000001B61EB0201001C41F5801149084FEAB3
:1006700030000019514132462B4603B0BDE8F04F1F
:10068000FFF713BF0098012240000023D0EB0202C5
:1006900063EBE073009821464FEAE074B8EB00008A
:1006A00061EB0401E9E783F000435BE781F000417F
:1006B00058E7C1F30A52C1F3130140F2FF3341F48A
:1006C00080119A4202DA00200146704740F233431B
:1006D0009A42A2F2334202DC5242FFF7D6BEFFF743
:1006E000C5BE000030B5041E71F1000404DB4FF0FC
:1006F0000044404264EB0101141E73F1000405DB69
:100700001C464FF00043524263EB0403994208BF7A
:10071000904230BD064C074D06E0E06840F0010312
:1007200094E8070098471034AC42F6D3FFF730FD49
:1007300084630008A4630008202A06DBCB17203A54
:1007400041FA02F043EAE07306E041FA02F3D040D6
:10075000C2F12002914008431946704710B5014686
:10076000806B026C12F0500F05D0026CD20626D5B9
:1007700000F014FA10BD016C41F4007101640168CD
:100780008A6812F0405F17D1027EAAB9CA6A12F4D1
:10079000700F02D08A6852050ED44A6822F02002F7
:1007A0004A60016C21F480710164016CC90403D4B6
:1007B000016C41F00101016400F0EEF910BD806BA5
:1007C000C26CBDE810400846104710B5806B402150
:1007D0000164416C41F00401416400F0DFF910BD97
:1007E00010B5806B00F0D9F910BD0000464910B576
:1007F0004A6822F440324A604A6843681A434A60B1
:1008000001684A6822F480724A6001684A68036994
:1008100042EA03224A6001684A6822F040724A6054
:1008200001684A6883681A434A6001688A6822F44A
:1008300000628A6001688A68C3681A438A60816AB4
:100840006FF07062D14201688A6822F070628A603B
:1008500001688A680CD0836A1A438A6001688A68D2
:1008600022F040528A6001688A68C36A1A4301E034
:1008700022F040528A6001688A6822F002028A608F
:1008800001688A68037E42EA43028A6090F8201079
:10089000002901684A680FD042F400624A6001688A
:1008A0004A6822F460424A6001684A68174C436A09
:1008B00004EB43331A4301E022F400624A6001680A
:1008C000CA6A22F47002CA620168CA6A838B104C39
:1008D00004EB03531A43CA6201688A6822F4007267
:1008E0008A6001688A6890F8303042EA43228A6060
:1008F00001688A6822F480628A6001688A684069B7
:1009000042EA8020886010BD0023014000E0FFFF24
:100910000000F0FFFEE70000014800F05DBA0000B3
:10092000CC06002001681823CAB2103AB2FBF3F2D9
:10093000054B6FF30901032A9B5CC36500D9091DB0
:1009400081650846704700009C46000810B50146C6
:1009500000208B698A6A4FF0C07453B1B3F5005F11
:1009600015D072B1012A0CD0022A0AD0032A09D16B
:1009700004E01AB1012A06D0022A03D1C96AC901CA
:1009800000D5012010BDC96AA142FAD010BD002ACD
:10099000F7D0012AF2D0022AF3D0032AF3D010BDF7
:1009A00030B50468256825F48025256004686360F7
:1009B0008368402B036803D099600068C26030BD33
:1009C0009A600068C16030BD7047000010B5042017
:1009D00000F08CFB044C2068002804D1034801F08F
:1009E00039FA0120206010BD5000002018090020B5
:1009F000704700B5002003F095F942F210725100E3
:100A00005DF804EB03F0A0B900B5022003F08AF909
:100A100042F210724BF298715DF804EB03F094B956
:100A200000B5012003F07EF942F2107251005DF82A
:100A300004EB03F089B900B5FFF7DBFFF0EE401AD5
:100A4000FFF7EEFF31EEC00A00BD000078B50024CC
:100A5000009490F83C20012A19D0012280F83C2013
:100A60000A6807230568092A13D9EE680A3A02EBD7
:100A7000420293409E43EE600B788A680A3B03EB88
:100A800043039A400368DD682A43DA6010E00220DD
:100A900078BD2E6902EB420293409E432E610B7893
:100AA0008A6803EB43039A4003681D692A431A616D
:100AB0004A681F23072A13D205686E6B521E02EB89
:100AC000820293409E436E630B790A885B1E92B24A
:100AD00003EB83039A4003685D6B2A435A6327E064
:100AE00005680D2A12D22E6BD21F02EB82029340B0
:100AF0009E432E630B790A88DB1F92B203EB8303BC
:100B00009A4003681D6B2A431A6311E0EE6A0D3A9E
:100B100002EB820293409E43EE620B790A880D3B02
:100B200092B203EB83039A400368DD6A2A43DA62D8
:100B3000164B0568144A9D4206D10D68122D03D14B
:100B4000556845F48005556005689D4218D10B68CD
:100B5000102B01D0112B13D1536843F400035360C1
:100B6000096810290CD10A490A4A0968B1FBF2F157
:100B700001EB8101490000E0491E00910029FBD1F1
:100B800080F83C40002078BD002301400020014057
:100B90000C00002040420F0070477047704770B54E
:100BA00004004FF0000503D0206C002610B107E0D0
:100BB000012070BD204600F01DF8666484F83C609A
:100BC000206CC00610D4206C20F4885040F0020045
:100BD00020642046FFF70AFE6664206C20F00200C5
:100BE00040F00100206400E0012584F83C602846C4
:100BF00070BD000070B586B0064614216846FFF748
:100C000017FB23493068884240D1224800250168FB
:100C100041F48071016000681E4900F4807014394D
:100C20000590086840F004000860086800F00400BF
:100C30000590086840F0010008600868032400F08F
:100C4000010005900F208DE831006946124800F040
:100C500059FA1C208DE831006946104800F052FA1C
:100C6000104C0F48C4E900050015A560C4E9035005
:100C700080106561C4E9065025622046656200F077
:100C80007BF908B1FFF7B4FEB463A66306B070BD8C
:100C900000200140443802400008024000000240A9
:100CA00010640240CC060020F8B50E460021044630
:100CB000009190F83C00012807D0012084F83C0006
:100CC00020688368DB0702D011E00220F8BD83684A
:100CD00043F0010383603748374B0068B0FBF3F003
:100CE00000EB400000E0401E00900028FBD120688F
:100CF0008368DB075CD0236C40F20165AB4343F4AF
:100D0000807323644068400505D5206C20F40050B2
:100D100040F480502064206CC00404D5606C20F046
:100D20000600606400E0616484F83C10A16B244814
:100D3000224DC863A16B23480864A16B2248C86494
:100D400021686FF0220008602068416841F08061EE
:100D500041602068816841F4807181602168134698
:100D600032464C31A06B00F071F968681749C00633
:100D7000206806D088421BD1816811F0405F13D0F3
:100D800016E08842F8D0124A904203D1D1F80423E9
:100D9000D206F1D00F4A90420AD1D1F8041301F0E3
:100DA0001F011029E8D303E0816841F08041816090
:100DB0000020F8BD0C00002040420F00002301403D
:100DC0005D070008E1070008CB070008002001408C
:100DD00000210140002201402DE9F84304464FF074
:100DE0000009CDF8009063484FF41651A56D0068D6
:100DF000B0FBF1F72E6894F85C10082000FA01F1BE
:100E000031420FD021680A6852070BD50A6822F0D8
:100E100004020A6094F85C108840A860606D40F09D
:100E20000100606594F85C104FF0010808FA01F0C9
:100E3000304208D021684969090604D5A860606D70
:100E400040F00200606594F85C1004208840304255
:100E500008D021680968890704D5A860606D40F052
:100E60000400606594F85C1010208840304218D06F
:100E700021680968090714D5A8602068016849033A
:100E800004D50068000308D5A16C07E00168C90516
:100E900003D4016821F008010160216C09B12046EA
:100EA000884794F85C1020208840304231D0216877
:100EB0000968C9062DD5A86094F835000528206872
:100EC000016806D0490347D5006800031DD4616C52
:100ED0001CE021F0160101602068416921F08001C9
:100EE0004161206C08B9A06C20B12068016821F034
:100EF0000801016094F85C103F208840A86084F8E5
:100F0000349084F83580216D1FE0E16B09B12046F3
:100F10008847606D00282BD0606DC00714D0052075
:100F200084F835002068016821F001010160009813
:100F3000401C0090B84203D820680068C007F6D172
:100F400084F8349084F83580E16C002910D001B029
:100F50002046BDE8F04308470168C905D5D40168BB
:100F600021F01001016084F8349084F83580CCE7DA
:100F7000BDE8F8830C0000202DE9F041044600F0A4
:100F8000ABF906465CB1002584F83450022084F8A1
:100F900035002068016821F0010101600DE00120A9
:100FA000BDE8F08100F098F9801B052805D92020C4
:100FB0006065032084F83500F2E720680068C00708
:100FC000F0D12268116820480140D4E90103184398
:100FD000D4E903363343184363691843A3691843BC
:100FE000E3691843236A18430843616A042903D15B
:100FF000D4E90B1319430843106020684069666AFE
:1010000020F0070130460E43012704280CD1A06AC6
:101010000643E06A40B12046FFF798FC20B140202B
:10102000606584F83570BAE7206846612046FFF7AE
:1010300079FC94F85C203F2191408160656584F8DB
:1010400035700020ACE700003F8010F02DE9F04142
:101050000446866D90F83400002501280DD001204B
:1010600084F8340094F835700020012F07D084F8FC
:10107000340002252846BDE8F0810220FBE7022764
:1010800084F8357060652046FFF78AFC94F85C10A0
:101090003F208840B0602068016841F0160101607F
:1010A0002068416941F080014161206C20B12068D5
:1010B000016841F0080101602068016841F0010108
:1010C0000160D7E770B5044600F006F90546601CDC
:1010D00002D004480078044400F0FEF8401BA0420F
:1010E000FAD370BD0000002070470000044910B51D
:1010F0000A68024202D00860FFF7F6FF10BD000048
:10110000143C01402DE9F84FDFF87CB100224FF08C
:1011100001084FF0030A4FF00F090BF1040E00BF56
:101120000B6808FA02F42340A3426ED14D68022DE9
:1011300001D0122D0ED1D50800EB850CDCF8205023
:101140005607F70E09FA07F6B5430E69BE402E435F
:10115000CCF82060066855000F790AFA05FC07F004
:10116000030726EA0C06AF40374307604E68012E9E
:1011700005D0022E03D0112E01D0122E0ED186687A
:10118000CF6826EA0C06AF40374387604668A6431F
:101190000C79C4F30014944034434460C6688C68EE
:1011A00026EA0C06AC403443C4604C68E40065D5C4
:1011B000364C256845F480452560246822F00305F7
:1011C00004F480440094324C2E19D6F80848950750
:1011D0002F0F09FA07F5AC432E4DA84201D1002587
:1011E00024E02D4DA84201D101251FE02B4DA8423E
:1011F00001D102251AE02A4DA84201D1032515E0AC
:10120000284DA84202D1042510E037E0264DA8421F
:1012100001D105250AE0254DA84201D1062505E0AA
:10122000234DA84201D1072500E00825BD402543F4
:10123000C6F80858DBF800405D464E689C43F6034C
:1012400000D51C432C60DEF8004075464E689C4378
:10125000B60300D51C432C600B4D08352C684E6836
:101260009C43F60200D51C432C60074D0C352C68BE
:101270004E689C43B60200D51C432C60521C102AB9
:10128000FFF44EAFBDE8F88F003C01404438024007
:10129000003001400000024000040240000802400B
:1012A000000C0240001002400014024000180240EE
:1012B000001C02400069084000D0012070474269CC
:1012C00031EA020200D10904816170470AB18161EB
:1012D00070470904FBE70000014880687047000080
:1012E0000000002070B504001BD094F83D000025DC
:1012F00020B984F83C50204600F046F9242084F8B8
:101300003D002068016821F00101016000F0B2FA9F
:101310004D4A6168914201D84C4900E04C498842ED
:1013200001D2012070BD4B492368B0FBF1F15E682A
:1013300026F03F060E435E606368934206D94FF481
:10134000967359434FF47A73B1FBF3F12368491C48
:101350001E6A26F03F06314319626168914210D837
:101360004900401EB0FBF1F2521CC2F30B02042AEA
:1013700001D2042022E0B0FBF1F0401CC0F30B00CE
:101380001CE0A368F3B301EBC10202EB0116421E9D
:10139000B2FBF6F2521C42F48042120549D093B3DC
:1013A00001EBC10202EB0111401EB0FBF1F0401C49
:1013B000C0F30B0040F4804040F400402168CA694B
:1013C0004CF6FF739A431043C861D4E90701084300
:1013D00021680A6822F0C00210430860D4E90301C2
:1013E00001432068826848F2FF339A4311438160C9
:1013F000D4E9050108432168CA6822F0FF021043BE
:10140000C86001E00EE016E02068016841F00101CB
:1014100001602564202084F83D00256384F83E5057
:10142000002070BD01EB4106421EB2FBF6F2521CD9
:10143000B3E70120C2E701EB4101401EB0FBF1F030
:10144000401CC0F30B00B7E7A086010080841E009B
:1014500000093D0040420F002DE9FF4F83B09A463E
:10146000DDE9119793460446DDF84080FFF734FF2D
:10147000054694F83D0020287FD1192301224049D8
:101480002046009501F016F9002876D194F83C002A
:10149000012872D0012084F83C0020680168C90747
:1014A00003D1016841F0010101602068016821F465
:1014B00000610160212084F83D00402084F83E0056
:1014C00000262664C4F82480A4F82A90608D208524
:1014D0002C48E062CDE9007553465A4620460499EF
:1014E00001F078F870B930E02A463946204601F01C
:1014F00060F958B1206C042804D12068016841F4D7
:1015000000710160012007B0BDE8F08F606A2168BA
:1015100000780861606A401C6062218D491E89B2B2
:101520002185628D521E628522685369DB435B0709
:101530000BD469B100781061606A401C6062208D34
:10154000401E2085608D401E6085208D0028CBD1F7
:101550002A463946204601F087F80028CAD154F8B7
:101560003D0B016841F400710160202004F81E0960
:10157000E67766770020C6E7FFE70220C3E70000B2
:10158000020010000000FFFFF0B587B004461421F0
:101590006846FEF74DFE1A49206888422DD1194849
:1015A000016841F004010160016801F00401059146
:1015B000016841F0010101600068122400F001009F
:1015C00005904FF400700125032604278DE8F100F3
:1015D00069460D48FFF796FD28028DE8F10069463F
:1015E0000A48FFF78FFD07481030016841F40001F9
:1015F0000160006800F40000059007B0F0BD000035
:10160000005C004030380240000802400000024008
:101610000248816802781144816070470000002010
:101620000B4810B5016841F400710160016841F494
:1016300080610160016841F480710160032000F065
:101640006FF8002000F006F800F024F8002010BD2C
:10165000003C024070B50D4D04464FF47A71287875
:10166000B1FBF0F00A490968B1FBF0F000F058FB5B
:1016700048B9102C07D200222146501E00F030F845
:1016800000206C6070BD012070BD000000000020D3
:101690000C0000200A4808B5016841F4804101604F
:1016A000006800F4804000900548001F016841F088
:1016B00080510160006800F08050009008BD00007B
:1016C00044380240002809DB00F01F02012191404C
:1016D0004009800000F1E020C0F8001170470000D0
:1016E000F0B40E4B1B680C46C3F30223C3F107058D
:1016F000042D00D90425191D072901D2002300E07B
:10170000DB1E012606FA05F1491E214099409E4044
:10171000761E16403143F0BC01F080BE0CED00E0B7
:10172000064900F0070208684FF6FF03184040EA38
:101730000220034A10430860704700000CED00E0EF
:101740000000FA052DE9F0470E46050065D0DFF8E8
:101750001481D8F80000F7B200F00F00B04207D2B1
:1017600088F80070D8F8000000F00F00B04254D1A3
:1017700028683D4C810712D5400703D5206840F406
:10178000E05020602878000703D5206840F46040CE
:1017900020602068A96820F0F000084320602878C5
:1017A000C0072DD0304968680839012812D00228B6
:1017B00013D0032811D00968890700292DDA216880
:1017C00021F0030101432160FFF786FD814641F2CC
:1017D000883A0EE009688903EFE709688901ECE7B8
:1017E000FFF77AFDA0EB0901514502D90320BDE8BE
:1017F000F0872068696800F00C00B0EB810FEFD132
:10180000D8F80010404601F00F01B14207D9077027
:10181000006800F00F00B04201D00120E7E728780F
:10182000400705D52068E96820F4E05008432060AF
:101830002878000706D52068296920F4604040EA2E
:10184000C100206000F036F82168084AC1F3031196
:10185000515CC840064908600020FFF7FBFE0020ED
:10186000C5E70000003C024008380240A4460008DA
:101870000C0000200448054900680968044AC1F3C7
:101880008221515CC84070470C000020083802409B
:10189000B44600080448054900680968044AC1F3D1
:1018A0004231515CC84070470C00002008380240AB
:1018B000B4460008154810B5006810F00C02144832
:1018C00013D01449042A0FD0082A0ED10F4C241F1C
:1018D0002268236802F03F025B0207D52068C0F34C
:1018E0008810A0FB010106E0084610BD2168C1F385
:1018F0008811A1FB00010023FEF762FC2168C1F3FF
:101900000141491C4900B0FBF1F010BD083802400C
:101910000024F40040787D012DE9F84F050076D0D1
:101920002878DFF8F8B2BE4CC00749D0DBF80010C9
:101930005846C1F38101012908D00068C0F3810035
:1019400002280AD1201D0068400206D520688003C5
:1019500036D568680028E2D032E06868B0F5803F8C
:1019600010D0B0F5A02F206810D020F48030206077
:10197000206820F4802020606868A0B1FFF7ACFCEC
:1019800006460CE0206840F48030F4E740F4802004
:101990002060F7E7FFF7A0FC801B642873D820685D
:1019A0008003F7D50CE0FFF797FC064605E000BF83
:1019B000FFF792FC801B6428F0D820688003F7D4DE
:1019C0002878DFF8608280074FF000093ED5DBF809
:1019D0000010584611F00C0F09D00068C0F38100C8
:1019E00002280BD18D48001F0068400206D42068F1
:1019F000800715D5E868012809D111E0E868B8B179
:101A00000120C8F80000FFF767FC064605E002E188
:101A1000FFF762FC801B0228C0D820688007F7D53A
:101A20002068296920F0F80040EAC10020600DE03C
:101A3000C8F80090FFF750FC064604E0FFF74CFCA6
:101A4000801B02281FD820688007F7D42878000759
:101A500022D5724E744869696C3671B101210160FA
:101A6000FFF73AFC074604E0FFF736FCC01B0228EC
:101A700009D830688007F7D50EE0C0F80090FFF76E
:101A80002BFC074605E083E0FFF726FCC01B02287D
:101A90007ED830688007F7D42878400768D5DFF80B
:101AA0007CA100270AF1380ADAF80000C0000BD444
:101AB000DAF8001041F08051CAF80010DAF800009E
:101AC000012700F080500090584E3068C00510D4B7
:101AD000306840F480703060FFF7FEFB009005E056
:101AE000FFF7FAFB0099401A022851D83068C00568
:101AF000F6D54A4EA868683601280FD00528306808
:101B000010D020F001003060306820F00400306018
:101B1000A868B8B1FFF7E0FB00900FE0306840F034
:101B20000100F4E740F004003060F7E7FFF7D4FB72
:101B30000099411A41F28830814264D830688007A8
:101B4000F4D50EE0FFF7C8FB009007E0FFF7C4FBF9
:101B50000099411A41F28830814254D83068800798
:101B6000F4D42FB1DAF8001021F08051CAF8001037
:101B7000A869C0B3DBF80010C1F3810102294AD083
:101B80000228484607D0C8F86000FFF7A5FB00E030
:101B900039E005463AE04746C8F86000FFF79CFB8D
:101BA000064604E0FFF798FB801B02282BD820682C
:101BB0008001F7D4D5E907010843A96A1C4A4908FE
:101BC00002EB01416A6A41EA8211084395F82C1040
:101BD00040EA01611148001F016001203866FFF7EB
:101BE0007BFB054605E014E0FFF776FB401B02286F
:101BF00009D820688001F7D50BE000BFFFF76CFB28
:101C0000401B022802D90320BDE8F88F206880011C
:101C1000F4D40020F8E70120F6E70000083802407D
:101C20000038024000004742800E474200700040EA
:101C30000000FFFF70B5040005D00025A56294F8F0
:101C4000510010B106E0012070BD84F850502046CC
:101C500000F030F8022084F851002068016821F07B
:101C600040010160D4E901010843D4E903121143A2
:101C7000084361690843218B01F400710843E1695D
:101C80000843216A0843A16A084321680860A069E3
:101C9000042101EA1040616A084321684860206815
:101CA000C16921F40061C1616565012084F85100BA
:101CB000002070BD10B586B0044614216846FEF7BA
:101CC000B7FA14492068884221D1134800210268DC
:101CD00042F480420260006800F4804005900E48A3
:101CE0001038026842F002020260006800F0020050
:101CF00005904FF4444000900220CDE901010320FB
:101D000003900520049069460448FFF7FBF906B0EC
:101D100010BD00000038004040380240000402407E
:101D200010B5401EB0F1807F01D3012010BD4FF0EF
:101D3000E02460610F21601701F070FB0020A061BA
:101D400007202061002010BD7047704710B590F843
:101D50003C20012A22D0012280F83C20CA688C68ED
:101D600022F4407222434C6822F4806222430C68C1
:101D700022F4006222430C6922F4805222434C690F
:101D800022F400522243C969002322F480420A430C
:101D900001684A6480F83C30002010BD022010BD6C
:101DA00070B590F83C20012A19D0012400F83C4F6E
:101DB0000222427050F83C3C5A689D6822F070063E
:101DC0000A684968324325F0800529435A6050F873
:101DD0003C2C9160447000210170084670BD0220C7
:101DE00070BD10B5040003D094F83D0010B107E0B9
:101DF000012010BD002084F83C00204600F00CF8C3
:101E0000022084F83D00211D206801F021F8012006
:101E100084F83D00002010BD08B500680B498842D9
:101E200012D10B48016841F4807101600068002202
:101E300000F48070009011462D20FFF751FCBDE8A2
:101E400008402D20FFF73EBC08BD000000200040E8
:101E5000403802400168CA6842F00102CA60006866
:101E6000816801F00701062903D0016841F00101F2
:101E70000160002070470168CA6822F00102CA6050
:101E80000068016A41F21112114207D1016A9210F1
:101E9000114203D1016821F0010101600020704767
:101EA0002DE9F0410D46040003D094F83D0018B12F
:101EB00008E00120BDE8F081002084F83C002046C5
:101EC00000F03AF8022084F83D002068816844F26E
:101ED000070291438160211D206800F0B9FF22684C
:101EE00090689169166A2B68AF69034340F203302A
:101EF000814341EA0721A868EF6908434FF6FC4196
:101F00008843E96840EA0720014328692F6A0001F5
:101F100040EA0730084369686D6926F0AA0646EA78
:101F200005152943936022689061206801620120B1
:101F300084F83D000020BDE770B586B0044614214A
:101F40006846FEF775F92A4923680024284A1039A3
:101F500002252848B3F1804F1ED0274EB34219D135
:101F6000136843F008031360126802F00802059238
:101F70000A6842F001020A60096801F00101059156
:101F800003210091CDE901546946CDE9034500BF25
:101F9000FFF7B8F806B070BD136843F00103136093
:101FA000126802F0010205920A6842F001020A601A
:101FB0000A6802F0010205920A6842F002020A6011
:101FC0000968012601F00201059120210091CDE967
:101FD0000154CDE903466946FFF794F808200090C4
:101FE000CDE90154CDE9034669460448D0E7000035
:101FF0004038024000000240000C00400004024053
:1020000010B50446006891B1042904D001220021D2
:1020100000F082FF206801225FF0040100F07CFFE5
:102020002068016841F001010160002010BD01221B
:102030000021F3E7704770B50446006801694FF06E
:102040000005C943890715D4C168C943890711D45C
:10205000E91E016101202077206880698007204601
:1020600002D0FFF7E7FF04E000F0FCF8204600F0A4
:10207000ADF9257720680169C943490717D4C168BC
:10208000C943490713D46FF004010161022020778E
:102090002068806910F4407F204602D0FFF7CAFF15
:1020A00004E000F0DFF8204600F090F92577206882
:1020B0000169C943090716D4C168C943090712D485
:1020C0006FF008010161042020772068C069800753
:1020D000204602D0FFF7AEFF04E000F0C3F8204630
:1020E00000F074F9257720680169C943C90617D43F
:1020F000C168C943C90613D46FF0100101610820FB
:1021000020772068C06910F4407F204602D0FFF796
:1021100091FF04E000F0A6F8204600F057F925777B
:1021200020680169C943C90708D1C168C943C90703
:1021300004D1891E0161204600F06CF92068016914
:10214000C943090609D4C168C943090605D46FF01B
:10215000800101612046FFF7F7FD20680169C9434E
:10216000490609D4C168C943490605D46FF0400146
:102170000161204600F04FF920680169C9438906D2
:102180000BD4C168C943890607D46FF020010161EF
:102190002046BDE87040FFF7D8BD70BD70B586B071
:1021A000044614216846FEF743F8284B22680024B1
:1021B0002749022527489A4210D10A6842F00102B5
:1021C0000A60096801F001010591C1140091CDE98F
:1021D00001540121CDE9034169461EE01E4B1F4E0B
:1021E0009A421ED10A6842F001020A600A6802F0AF
:1021F000010205920A6842F002020A60096801F0D1
:1022000002010591C0210091CDE901546946CDE953
:102210000345FEF777FF032010E0FEF773FF06B0DB
:1022200070BD0F488242FAD1086840F00200086091
:10223000086800F0020005904FF440700090CDE96E
:10224000015469463046CDE90345E6E70000014008
:102250003038024000000240000400400004024008
:1022600000080040704770B5044690F83C000D46E9
:1022700001280DD0012684F83C60022084F83D003E
:1022800042B1042A18D0082A2AD00C2A4DD139E0AC
:10229000022070BD206800F04DFE2068816941F089
:1022A000080181612068816921F004018161206851
:1022B00081692A69114311E0206800F06BFE2068F3
:1022C000816941F4006181612068816921F4806144
:1022D0008161206881692A6941EA0221816124E0E3
:1022E000206800F08DFE2068C16941F00801C161DD
:1022F0002068C16921F00401C1612068C1692A69AF
:10230000114311E0206800F0AFFE2068C16941F47C
:102310000061C1612068C16921F48061C1612068E8
:10232000C1692A6941EA0221C16184F83D60002047
:1023300084F83C0070BD10B5040003D094F83D0053
:1023400010B107E0012010BD002084F83C002046B9
:1023500000F00CF8022084F83D00211D206800F0F8
:1023600077FD012084F83D00002010BD08B501680C
:102370001248814208D11248016841F00101016010
:10238000006800F001000BE00D480E4A001F91426A
:1023900008D1016841F002010160006800F002000C
:1023A000009008BD084A9142FBD1016841F0040148
:1023B0000160006800F00400F2E700000000014046
:1023C000443802400004004000080040704700000C
:1023D00010B504460068012200F09EFD0B492068FC
:1023E000884202D00A49884203D1416C41F400413D
:1023F00041642068816801F00701062903D0016863
:1024000041F001010160002010BD0000000001400A
:10241000000401407047704770B5040004D094F880
:102420003900002510B106E0012070BD84F8385055
:10243000204600F023F8242084F839002068C16881
:1024400021F40051C160204600F036FE2068016989
:1024500021F4904101612068416921F02A01416124
:102460002068C16841F40051C160E563202084F810
:10247000390084F83A00002070BD000010B586B025
:10248000044614216846FDF7D3FE144920688842AB
:1024900021D11348016841F010010160006800F08B
:1024A000100005900E481438016841F001010160E8
:1024B0000068694600F0010005904FF4C06000908C
:1024C0000220019001200290032003900720049035
:1024D0000448FEF717FE06B010BD000000100140D2
:1024E00044380240000002402DE9F843044690F8C9
:1024F00039001F4616460D46202850D1A5B19EB181
:1025000094F8380001284AD0012084F838004FF0B0
:102510000008C4F83C80212084F83900FEF7DCFE76
:10252000A6848146E68426E00120BDE8F883E08C9D
:10253000401EE084A0684B46B0F5805F4FF000027B
:102540004FF080012046009703D000F00BFFE8B960
:102550000DE000F007FFC8B928882168C0F3080023
:102560004860206908B16D1C05E0AD1C03E02168DE
:1025700015F8010B4860E08C0028D8D14B460022AA
:1025800040212046009700F0EDFE08B10320CCE783
:10259000202084F8390084F838800020C5E7022024
:1025A000C3E7FEE701684A69D24352050FD46FF4CE
:1025B00080624A61002140F8301F202242738173FB
:1025C000026942F004020261017301207047002099
:1025D000704700002DE9F843044600680D46DDE928
:1025E000089701689846164641F4807101604B4691
:1025F00000224FF001112046009700F05BF8E0B98F
:10260000216805F0FE0008613B464A461549204610
:1026100000F084F888B920684169806900903A46E2
:102620004946204600F0C5F850B1206C042804D17A
:102630002068016841F4007101600120BDE8F88361
:10264000F5B2B8F1010F09D02168300A08613A46A5
:102650004946204600F0ADF80028E6D12068056123
:102660000020EBE70200010070B516460D46044657
:102670000DE02046FFF796FF08B1012070BD681CF1
:1026800005D0FEF729FE801BA84207D835B1206887
:102690004069C0434007ECD4002070BD002044F8DE
:1026A000300F20216173A073216941F02001216165
:1026B0002073E2E72DE9F0471E4690460D4604469A
:1026C000C1F30747DDF8209008E0701C06D0FEF744
:1026D00003FEA0EB0900B0420FD876B12068012FAD
:1026E00018D0806925EA00000004000C14D00021F5
:1026F0004145EAD00020BDE8F087002044F8300FC3
:1027000020216173A073216941F0200121612073B0
:102710000120F0E74069E5E70121E9E72DE9F0470D
:102720009A4691460E46044600254FF02008C1F314
:10273000074725E020684069C043400514D420685D
:10274000016841F40071016021686FF480604861A4
:10275000256384F83D8084F83E50206C40F00400EE
:10276000206484F83C501FE0B9F1FF3F08D0FEF729
:10277000B3FDA0EB0A0149450CD8B9F1000F09D00F
:102780002068012F13D0806926EA00000004000CA5
:102790000BD0CFE744F8305F84F80D80A573206933
:1027A00040F02000206125730120BDE8F0874069DA
:1027B000EAE770B516460D4604460DE02046FFF7E1
:1027C000F1FE08B1012070BD681C05D0FEF784FD44
:1027D000801BA84207D835B120684069C043000675
:1027E000ECD4002070BD002044F8300F202161732C
:1027F000A073216941F0200121612073E2E700000C
:102800007FB5002120480091019102911D4A03915A
:1028100002604FF4803242600124520204618260FF
:10282000047680F82010194AC0E90A210325C56101
:10283000C16080F830404161FEF7B1F908B1FEF7A0
:10284000D7F807200095CDE9014069460E48FEF70C
:10285000FDF808B1FEF7CCF804200224CDE900040D
:1028600069460948FEF7F2F808B1FEF7C1F8694673
:102870000548CDE90045FEF7E9F8002801D0FEF74C
:10288000B7F87FBD00200140840600200100000F42
:10289000094808B5016841F4800101600068002220
:1028A00000F48000009011463820FEF719FFBDE8C3
:1028B00008403820FEF706BF303802402DE9F04FBF
:1028C00087B014216846FDF7B3FC3D480024016839
:1028D00041F004010160016801F004010591016803
:1028E00041F001010160016801F0010105910168F9
:1028F00041F002010160016801F0020105910168E7
:1029000041F0080101600068DFF8B89000F00800AD
:1029100043F2F0050590002229464846FEF7D6FC12
:10292000DFF8A4A04FF40047002239465046FEF7D6
:10293000CDFCDFF898B04FF440680022414658467D
:10294000FEF7C4FC3020CDE90004694658460294E5
:10295000FEF7D8FB0426CDE9006469464846029498
:10296000FEF7D0FB00950125CDE9015469464846A4
:102970000394FEF7C7FB0097CDE901546946504622
:102980000394FEF7BFFBCDF80080CDE90154694602
:1029900058460394FEF7B6FB0D480096CDE90104B6
:1029A00069460C48FEF7AEFB002211460820FEF7F0
:1029B00097FE0820FEF786FE07B0BDE8F08F000006
:1029C000303802400004024000000240000802408B
:1029D00000002110000C02400D4810B50B490160A9
:1029E0000C49416000214FF480428160C0E903122C
:1029F00041618161C1610162FEF774FC002803D06E
:102A0000BDE81040FDF7F4BF10BD0000005C0040C1
:102A10002C070020801A0600104810B50E490160EE
:102A20004FF48271416000218160C1604FF40072F7
:102A30000161C0E905122022C0E9072141628162DB
:102A40000A21C162FFF7F6F8002803D0BDE8104064
:102A5000FDF7CEBF10BD0000003800408007002009
:102A60000B4810B5094901604FF47A5141600021CB
:102A70003222C0E9021201618161FFF7B2F9002838
:102A800003D0BDE81040FDF7B3BF10BD00200040EB
:102A90001809002010B592B000240F941C2108A83A
:102AA0001094FDF7C5FB20216846FDF7C1FB1E48C9
:102AB0001C49C0E900148460C460046144618461FD
:102AC000FFF739FC08B1FDF793FF0F940FA91648E3
:102AD0001094FFF765F908B1FDF78AFF6020CDE992
:102AE00008040A940C940D940C2208A90E480E9424
:102AF000FFF7B9FB08B1FDF77BFF00944FF40050DE
:102B0000CDE9044002940194039469460648079471
:102B1000FFF71CF908B1FDF76BFF0348FFF73EFB19
:102B200012B010BD00000140D807002010B58CB0D5
:102B300024216846FDF77CFB0024154809944FF0DA
:102B400080410A94C0E90014611EC0E90241046199
:102B500084610320CDE900040120CDE9020404943E
:102B6000CDE905400794694609480894FFF798F9AC
:102B700008B1FDF73DFF099409A905480A94FFF73C
:102B80000FF9002801D0FDF733FF0CB010BD000095
:102B90001808002010B58AB0002407941C2168464C
:102BA0000894FDF745FB21481F49C0E900148460E3
:102BB000C46004618461FFF7BEFB08B1FDF718FF34
:102BC000079407A919480894FFF7EAF808B1FDF738
:102BD0000FFF6020CDE900040294002269461348EB
:102BE0000494FFF740FB08B1FDF702FF0422694699
:102BF0000E48FFF738FB08B1FDF7FAFE08226946D8
:102C00000A48FFF730FB08B1FDF7F2FE0C226946D7
:102C10000648FFF728FB08B1FDF7EAFE0348FFF777
:102C2000BDFA0AB010BD00000004004058080020A2
:102C300010B58AB0002407941C2168460894FDF75B
:102C4000F7FA19481749C0E90014FF21C0E9024109
:102C500004618461FFF76FFB08B1FDF7C9FE0794BB
:102C600007A911480894FFF79BF808B1FDF7C0FECB
:102C70006020CDE900040294082269460A480494C1
:102C8000FFF7F1FA08B1FDF7B3FE0C2269460648DA
:102C9000FFF7E9FA08B1FDF7ABFE0348FFF77EFA4C
:102CA0000AB010BD000800409808002010B58CB094
:102CB00024216846FDF7BCFA0024154809941349FD
:102CC0000A94C0E90014611EC0E9024104618461F4
:102CD0000320CDE900040120CDE902040494CDE9EC
:102CE0000540079469460A480894FFF7D9F808B1E7
:102CF000FDF77EFE099409A905480A94FFF750F8EC
:102D0000002801D0FDF774FE0CB010BD000C00408F
:102D1000D80800200C4810B50A4901604FF4E13191
:102D20004160002181600C22C160C0E90412816110
:102D3000C161FFF771FB002803D0BDE81040FDF72B
:102D400057BE10BD0010014058090020FEE7704733
:102D500070477047FEF75CBC10B592B030216846F2
:102D6000FDF766FA14210CA8FDF762FA1448002456
:102D7000016841F080510160006800F080501190BE
:102D80001048016841F4804101600068069400F435
:102D900080401190022000900120039010200490A8
:102DA0006846FEF7B9FD0F20CDE90C040E940F9490
:102DB00000210CA81094FEF7C5FC12B010BD000055
:102DC00040380240007000401048016841F4700132
:102DD00001600F48016841F0010101600C4A0021C7
:102DE0000832116002680B4B1A400260031D0A4A48
:102DF0001A60026822F48022026005480C300160EB
:102E000002495806803908607047000088ED00E0EC
:102E100000380240FFFFF6FE1030002410B50948CC
:102E2000FFF709F904210848FEF744FA002808D101
:102E3000064908600348FFF71EF8BDE8104001F09E
:102E400037B810BD18090020000C024050000020C7
:102E5000F0B50268254C264D264E274F274B4FF0E4
:102E6000804CA04209D0604507D0A84205D0B042AE
:102E700003D0B84201D0984204D122F0700E4A68C3
:102E800042EA0E02A0421BD0604519D0A84217D0DA
:102E9000B04215D0B84213D0984211D0184DA84274
:102EA0000ED0184DA8420BD0174DA84208D0174D90
:102EB000A84205D0164DA84202D0164DA84203D113
:102EC00022F44075CA682A434D6922F080022A43E1
:102ED00002608A68C2620A688262A04201D0984297
:102EE00001D10969016301214161F0BD0000014088
:102EF0000004004000080040000C004000040140B5
:102F000000400140004401400048014000180040DA
:102F1000001C00400020004010B501F01F030121FB
:102F2000046A99408C430462016A9A401143016229
:102F300010BD0000F0B5026A22F001020262036ACD
:102F400042688469124E24F073050C682C4323F008
:102F500002058B682B430D4DA84201D0B04205D12C
:102F600023F00807CB683B4323F00403A84201D0B9
:102F7000B04205D14D6922F4407215438A692A4353
:102F800042608461496841630362F0BD0000014012
:102F900000040140F0B5026A22F010020262026AE7
:102FA000436884690D6824F4E64444EA05248D6886
:102FB00022F0200242EA05120F4D104EA84201D025
:102FC000B04206D1CF6822F0800242EA071222F016
:102FD0004002A84201D0B04207D14D6923F44063BA
:102FE00043EA85038D6943EA850343608461496848
:102FF00081630262F0BD0000000001400004014056
:10300000F0B5026A22F480720262026A4368C469FF
:1030100022F4007224F073050C68124E2C438D6864
:1030200042EA05220E4DA84201D0B04206D1CF6837
:1030300022F4006242EA072222F48062A84201D010
:10304000B04207D14D6923F4405343EA05138D691B
:1030500043EA05134360C4614968C1630262F0BD7D
:10306000000001400004014030B5026A22F48052A1
:103070000262046A4268C3690D6823F4E64343EAC6
:1030800005238D6824F4005444EA0534084DA84211
:1030900002D0084DA84204D14D6922F4804242EA90
:1030A00085124260C36149680164046230BD00005A
:1030B00000000140000401402DE9F0410446006891
:1030C0000169E26821F44051114301612169A0685E
:1030D000E26908436169114322680843D16849F2F3
:1030E0000C6399430143D16020684169A26921F4CE
:1030F000407111434161E2696425B2F5004F974880
:10310000974922684FF032083FD08A4201D082426C
:103110007CD1FEF7BFFB00EBC00101EB0010616842
:103120008900B0FBF1F6FEF7B5FB00EBC00101EB47
:10313000001061688900B0FBF1F0B0FBF5F06FF0B2
:103140001801484306EB800108EB0110B0FBF5F0D5
:1031500000F0F006FEF79EFB00EBC00101EB001053
:1031600061688900B0FBF1F0B0FBF5F006EB0016EA
:10317000FEF790FB00EBC00101EB001061688900D5
:10318000B0FBF1F7FEF786FBD2E08A4201D0824223
:103190003DD1FEF77FFB00EBC00101EB0010616841
:1031A0004900B0FBF1F0B0FBF5F00601FEF772FB51
:1031B00000EBC00101EB001061684900B0FBF1F7C2
:1031C000FEF768FB00EBC00101EB001061684900ED
:1031D000B0FBF1F0B0FBF5F06FF01801484307EBDE
:1031E000800108EBC100B0FBF5F000F0F80006EB41
:1031F0004006FEF74FFB00EBC00101EB00106168D9
:103200004900B0FBF1F7FEF745FB3CE055E0FEF767
:1032100031FB00EBC00101EB001061684900B0FB1D
:10322000F1F0B0FBF5F00601FEF724FB00EBC00166
:1032300001EB001061684900B0FBF1F7FEF71AFBE3
:1032400000EBC00101EB001061684900B0FBF1F038
:10325000B0FBF5F06FF01801484307EB800108EB75
:10326000C100B0FBF5F000F0F80006EB4006FEF7F9
:1032700001FB00EBC00101EB001061684900B0FBED
:10328000F1F7FEF7F7FA00EBC00101EB00106168FF
:103290004900B0FBF1F0B0FBF5F06FF018014843C6
:1032A00007EB800108EBC100B0FBF5F000F0070070
:1032B000216830448860BDE8F081FEF7DBFA00EB5E
:1032C000C00101EB001061688900B0FBF1F6FEF768
:1032D000D1FA00EBC00101EB001061688900B0FB7E
:1032E000F1F0B0FBF5F06FF01801484306EB8001F8
:1032F00008EB0110B0FBF5F000F0F006FEF7BAFAAB
:1033000000EBC00101EB001061688900B0FBF1F037
:10331000B0FBF5F006EB0016FEF7ACFA00EBC001CF
:1033200001EB001061688900B0FBF1F7FEF7A2FA2B
:1033300000EBC00101EB001061688900B0FBF1F007
:10334000B0FBF5F06FF01801484307EB800108EB84
:103350000110B0FBF5F000F00F00A9E700140140E8
:10336000001001402DE9F041984617460E460446EC
:10337000069D1DE0681C1BD02DB1FDF7ADFFA0EB35
:103380000800A84214D92068C16821F4D071C16036
:103390002068416921F001014161202084F8390051
:1033A00084F83A00002084F838000320BDE8F0815A
:1033B0002068006836EA000004D00020B842D9D066
:1033C0000020F3E70120F9E7FEE700000FB4054B0A
:1033D00010B503A9044A029800F002F910BC5DF888
:1033E00014FB0000853D0008540000200FB41CB5FC
:1033F0000246002007AC00290BD0491ECDE9002170
:10340000054B6A462146069800F0EAF8009A00212A
:1034100011701CBC5DF814FB0F3D00080907090E74
:10342000002804DB00F1E02080F80014704700F071
:103430000F0000F1E02080F8141D704702E008C87A
:10344000121F08C1002AFAD170477047002001E01E
:1034500001C1121F002AFBD1704700002DE9FF5F58
:1034600082B00021DDE90430020DDDF840B00343F5
:1034700018D044F61050A2F2FF32424315141198AE
:1034800001281FD0A5EB0B00401C5FEA000A4FF09B
:1034900000064E4FDFF83891B046504615D5CAF1B8
:1034A000000413E0119801244AA3012801D16FEA16
:1034B0000B010298119AC0E90031C0E9024206B03E
:1034C000BDE8F09FCBF10000DFE704460021404A51
:1034D000491842EB0450CDE9001012E0E00707D094
:1034E00032463B4640464946FCF7B6FE8046894692
:1034F00032463B4610461946FCF7AEFE06460F46DE
:103500006410002CEAD1DDE90401DDE90023BAF101
:10351000000F06DAFCF7A0FE42464B46FCF79CFE85
:1035200005E0FCF70BFF42464B46FCF707FF04465D
:103530000E460022284BFDF7D5F803D84FF0FF3098
:10354000014607E00022254B20463146FDF70AF8E8
:10355000FDF7AFF8102409E0002C0ADB0A22002353
:10356000FCF72EFE039B30321A55641E50EA01020E
:10357000F2D1641C039AC4F111031444119A012A74
:1035800003D0012208430DD10AE0084304D00020F3
:103590004FF0110B119072E7A3EB0B056D1E0DE0C0
:1035A0005B4504DD4FF0000205F1010504E003DA9C
:1035B0004FF00002A5F10105002AECD00298119904
:1035C000C0E90231C0E9004579E70000000014407D
:1035D0000000F03F300000000000F0430000E03F3A
:1035E0002DE9FF4F95B09B468946064600250FE220
:1035F000252877D100242746F84A0121059400E0C8
:10360000044316F8013F203B01FA03F01042F7D1C2
:1036100030782A2811D06FF02F033078A0F13002D3
:10362000092A16D8059A44F0020402EB820203EB41
:1036300042021044761C0590EFE759F8042B0592DE
:10364000002A03DA504244F40054059044F0020486
:10365000761C30782E2816D116F8010F44F0040499
:103660002A280DD06FF02F023078A0F13003092BFB
:1036700009D807EB870302EB4303C718761CF3E76F
:1036800059F8047B761C30786C280FD006DC4C2867
:1036900017D068280DD06A2814D104E0742810D0FF
:1036A0007A280FD10DE044F400140AE044F48014A9
:1036B00001E044F440147278824202D104F580148F
:1036C000761C761C307866280BD013DC582877D00F
:1036D00009DC002875D04528F6D04628F4D04728C4
:1036E0001AD19DE118E0632835D0642879D0652887
:1036F00012D195E1702873D008DC6728F1D06928D1
:103700006FD06E280DD06F2806D1B5E073282CD06D
:10371000752875D0782874D05A46179990476D1C33
:1037200075E1C4F30250022809D003280DD0D9F85E
:10373000001004280DD00D6009F1040967E1D9F8E3
:103740000010EA17C1E90052F6E7D9F800100D8021
:10375000F2E70D70F0E719F8041B8DF80010002057
:103760008DF80100EA46012003E059F804AB4FF060
:10377000FF3061074FF0000102D40DE008F10101B4
:103780008846B9420FDA8045F8DB1AF8081000299C
:10379000F4D108E008F1010188468142FADB1AF809
:1037A00008100029F6D105985B46A0EB08072146D2
:1037B0003846179A00F094FA284400EB080507E011
:1037C0004DE029E10DE01AF8010B5A461799904790
:1037D000B8F10108F7D25B4621463846179A13E143
:1037E00042E00A220092C4F302524FF0000A022A79
:1037F00008D059F804CB032A4FEAEC710AD00DE047
:1038000029E02AE009F1070121F00702F2E802C1EC
:10381000914609E00FFA8CFC4FEAEC71042A03D1BF
:103820004FFA8CFC4FEAEC71002907DA0A460021B6
:10383000DCF1000C61EB02012D2202E0220504D52F
:103840002B228DF80420012203E0E20701D0202280
:10385000F7E7904659E00A2102E010220DE010211E
:103860004FF0000A00910BE010224FF0000A44F0E4
:1038700004040827009203E008224FF0000A009297
:10388000C4F30252022A05D059F804CB0021032ABE
:1038900008D009E009F1070121F00702F2E802C1AE
:1038A000914605E01FFA8CFC042A01D10CF0FF0CB4
:1038B0004FF00008220728D5702806D0009B83F01F
:1038C000100353EA0A0305D00EE040228DF80420CD
:1038D000012208E05CEA010206D030228DF80420C3
:1038E0008DF8050002229046009B83F0080353EAFE
:1038F0000A030AD15CEA010201D1620705D5302230
:103900008DF804204FF001087F1E582804D034A001
:1039100003900EA802900DE036A0F9E753466046EA
:10392000009AFCF74DFC84460398825C0298401E86
:10393000029002705CEA0100F0D1029806A9081A10
:1039400000F1200A600702D524F4803400E001274A
:10395000574502DDA7EB0A0000E0002000EB0A015A
:10396000009005984144401A0590E00306D45B4658
:103970002146179A059800F0B3F90544002706E0A0
:1039800001A85A46C05D179990476D1C7F1C47459A
:10399000F6DBE0030CD55B462146179A059800F04C
:1039A0009FF9054404E030205A46179990476D1C52
:1039B0000099481E00900029F5DC08E00298029961
:1039C0005A460078491C0291179990476D1CBAF12C
:1039D0000001AAF1010AF1DC65E1000009280100FB
:1039E0003031323334353637383961626364656675
:1039F0000000000030313233343536373839414237
:103A0000434445460000000000F058F90544761C88
:103A1000307800287FF4ECAD19B02846BDE8F08F6F
:103A2000620700D4062709F1070222F0070CFCE820
:103A30000223E14603F000485FEA080C02D00FF2CF
:103A4000702C0DE05FEA045C02D50FF2682C07E0F1
:103A50005FEAC47C02D00FF2602C01E0AFF2700C80
:103A60004FF0FF3823F00043CDF850C065280CD04C
:103A700006DC452809D046281DD047283DD13DE029
:103A8000662818D067287ED138E00021112F01DB8D
:103A9000112000E0781CCDE9000106A90EA8FFF76F
:103AA000DDFCDDE90F010E9A03910021009207F180
:103AB000010A04914DE04FF000400097CDE901105C
:103AC00006A90EA8FFF7CAFCDDE90F0203920E9BC0
:103AD00011990022DDF80CA00093049211B9791C11
:103AE00000EB010AB7EB0A0004D4C0F1FF3007F184
:103AF000010A0490AAEB0700019044E0012F00DACC
:103B000001270021112F01DD112000E03846CDE909
:103B1000000106A90EA8FFF7A1FCDDE90F010E9A2E
:103B20000391002104910092BA4621070CD4039915
:103B3000514500DA8A46BAF1010F05DD009AAAF173
:103B40000101515C302908D0B84202DA10F1040FAB
:103B500006DA0121CDE9011015E0AAF10101E9E73A
:103B6000002805DC049901440491AAEB000102E05D
:103B7000411C514500DD8A460499401A401C0190C1
:103B80004FF000400290200704D40198504501DB1B
:103B9000CDF8048000208DF84F0002980DF14F07FA
:103BA000B0F1004F25D02B200E9002984FF0020864
:103BB00000280CDA404202902D200E9007E00A21E6
:103BC0000298FCF73DFC3031029007F8011DB8F176
:103BD0000001A8F10108F2DC02980028EFD1791E5B
:103BE0000E980870307800F0200040F0450007F88B
:103BF000020D12A8C01B00F107081498007800B14C
:103C0000012000EB0A01019801EBE07105984144A5
:103C1000401A401E0590E00306D45B462146179AE1
:103C2000059800F05DF805441498007818B15A46DC
:103C3000179990476D1CE00324D55B462146179ADF
:103C4000059800F04DF805441CE00498002807DBB7
:103C5000DDE90301884203DD0098405C179901E02B
:103C6000179930205A469047049805F10105401CE9
:103C700004900198401E019004D12E205A461799B5
:103C800090476D1CBAF10001AAF1010ADDDC05E0E4
:103C900017F8010B5A46179990476D1CB8F10001AF
:103CA000A8F10108F4DC5B462146179A0598ABE6BB
:103CB0002D0000002B000000200000002DE9F04145
:103CC000044600251E461746880404D405E03946FC
:103CD0002020B0476D1C641EF9D52846BDE8F08150
:103CE0002DE9F041044600251E469046C80301D543
:103CF000302700E02027880404D505E041463846F7
:103D0000B0476D1C641EF9D52846BDE8F0814A68AD
:103D1000002A06D00A68531C0B6010704868401EC9
:103D2000486070470021064A02E0135CC01C194439
:103D3000C028FADBC1F38710024908707047000001
:103D4000580400202800002000EE100ADFED0B0AC6
:103D50008818B8EE400A20EE200ADFED090A60EE6E
:103D6000200A00EE100AB8EE400A60EE800A00EE6B
:103D7000102AB8EE401A80EE810A70470000803B9E
:103D80003333534013B54FF6FF730122694602489F
:103D9000FEF7AAFB00981CBD58090020024800212C
:103DA0008160C1607047000030000020FDF738FCE2
:103DB000FEF7D2FFFEF782FDFEF76AFDFEF720FD5B
:103DC000FEF70AFEFEF728FEFEF764FEFEF7AEFEE3
:103DD000FEF7E0FEFEF72CFFFEF768FFFEF79AFF06
:103DE000FEF73EFE0EA0FFF7F1FA00F049F900F0F1
:103DF0002FF800F047FC144868214FF480644160BC
:103E00001E21124DC0F8081000F0C0FA21462846C5
:103E1000FDF755FA21462846FDF751FAF4E7000070
:103E20002D2D2D2D2D2D2D2D2D2D205374617274A2
:103E3000696E67204A45525259202D2D2D2D2D2D6A
:103E40002D2D2D2D2D0D0A004400002000080240CC
:103E500010B53C211248FEF7D3F83C211148FEF77B
:103E6000CFF80C211048FEF7B3FA104C0022802145
:103E70002046FDF72BFA012240212046FDF726FAC5
:103E800008210948FEF7A4FA012220212046FDF767
:103E90001DFA20460022BDE810401021FDF716BA99
:103EA00018080020D80800209808002000040240CC
:103EB0001248817811B10021817070470F498268E2
:103EC000497812B15069002214E00D4A002392692A
:103ED00005E08B4201D18260704792695B1C002A29
:103EE000F7D170478A4203D140690028F9D00047D2
:103EF0008069521C0028F5D1704700003000002076
:103F00001805002010B592B0002000F09DFAFCF7D3
:103F100070FD10EE100AFCF780FACDE900013EA218
:103F20003C2102A8FFF762FA0021084600F002FBDC
:103F30003D4C012302A8D4E9001200F08DFBFCF7F0
:103F40006FFD10EE100AFCF768FACDE9000137A208
:103F50003C2102A8FFF74AFA0A21002000F0EAFA01
:103F6000D4E90012012302A800F076FBFCF763FD00
:103F700010EE100AFCF751FACDE900012FA23C2106
:103F800002A8FFF733FA1421002000F0D3FAD4E995
:103F90000012012302A800F05FFBFCF735FD10EED4
:103FA000100AFCF73AFACDE9000128A23C2102A848
:103FB000FFF71CFA1E21002000F0BCFAD4E9001221
:103FC000012302A800F048FB2448006824A24342D1
:103FD0003C2102A8FFF70AFA2821002000F0AAFAE3
:103FE000D4E90012012302A800F036FB4FF0804014
:103FF000406A1FA243423C2102A8FFF7F7F9322191
:10400000002000F097FAD4E90012012302A800F082
:1040100023FB12B010BD0000426174746572793ADE
:1040200020252E32662056001800002043656C6C57
:1040300020313A20252E32662056000043656C6CF4
:1040400020323A20252E326620560000426F6F73D0
:10405000743A20252E32662056000000240C0040C1
:10406000456E636F646572204C3A20256400000041
:10407000456E636F64657220523A2025640000002B
:104080002DE9F04700F0F0F9374800F09BF900F017
:1040900057FA4FF47A70FDF715F83448002434A12C
:1040A00084703648FCF7CFF8344835A100F11C0580
:1040B000C0E905451C30FCF7C6F805F11C0705F101
:1040C0007006C5E9057630A13846FCF7BCF83835EE
:1040D0003148C7E9050531A12846FCF7B4F838375F
:1040E0003148C5E9050731A13846FCF7ACF8314D38
:1040F000C7E9055430A13046FCF7A5F806F11C08C5
:104100008C37C6E905872FA14046FCF79CF806F1DD
:1041100038092EA14846C8F81890FCF794F8543690
:1041200022A13046C9F81860FCF78DF8C6E905549D
:1041300028A13846FCF787F83836C7E9056428A176
:104140003046FCF780F8383727A13846B761FCF7CE
:104150007AF8383615A13046BE61FCF774F8C6E926
:104160000554BDE8F0870000845F0008300000209F
:104170004D61696E206D656E7500000018050020A8
:1041800047656E6572616C00506572697068657232
:10419000616C20696E666F0081430008434153459E
:1041A000204C6F676F0000006D4300084261636B35
:1041B000000000009D3D00085375626D656E75201E
:1041C000320000004974656D203231004974656D1C
:1041D000203232005375626D656E75203300000029
:1041E0004974656D203331004974656D20333200A8
:1041F0002DE9F0474FF08040406A404200EE100A3F
:10420000B8EE400A9FED471A474CC0EE010AB1EEE6
:10421000080A20EE800A84ED010A00F08FF894ED80
:10422000010ABDEEC00A10EE101A91FBF0F200FB7D
:1042300012106070002000F007F9A0683B4E3C4D62
:1042400000284FF000014FF0120808460DD000F092
:1042500071F9D6E900120123A06800F0FDF9A06809
:10426000A14600264446476956E000F063F9D6E9C6
:10427000001201232F4800F0EFF92E48A146002636
:104280004446876922E000BF99F8010086420DD1BB
:1042900006EB860004EB4000C1B2002000F04AF9B2
:1042A000D5E90012012324A000F0D6F906EB860020
:1042B00004EB4000C1B20E2000F03CF9D5E9001239
:1042C0000123384600F0C8F9BF69761C002FDBD106
:1042D00024E000BF99F8010086420DD106EB86006C
:1042E00004EB4000C1B2002000F024F9D5E900122F
:1042F000012311A000F0B0F906EB860004EB4000AA
:10430000C1B20E2000F016F9D5E90012012338469B
:1043100000F0A2F9BF69761C002FDBD1BDE8F047A1
:1043200000F00EB90000F045300000202000002011
:1043300018000020180500203E0000000949002058
:10434000896809B149690AE0074901E0401CC0B227
:1043500089690029FAD17047401C8969C0B20029D7
:10436000FAD17047300000201805002002480221D1
:10437000817002490161704730000020845B0008B1
:104380000149012088707047300000200C4810B5AA
:104390000178002913D1817821B1012905D00229A2
:1043A00006D008E0FFF724FF05E0FFF7ABFD02E0D1
:1043B000006900F007F8BDE8104000F0C1B810BD7A
:1043C00030000020F0B5074600255FF000047E5D58
:1043D000C4F1070026FA00F000F0010204EBC5006A
:1043E000C11700EB516121F07F03C01AC1F3C7115F
:1043F000C0B200F009F8641C082CE9DB6D1CB5F5AF
:10440000806FE2DBF0BD000070B5802813D2402938
:1044100011D20B4B012401F007051E79AC40094B6A
:10442000C90800EBC1100EB132B101E0012A03D07E
:10443000195CA143195470BD195C2143FAE70000CF
:10444000100000205800002010B5064A00214FF44B
:10445000806328B1FF245454491C9942F9D310BDFC
:104460000024F8E75800002010B56420FCF72AFE6D
:10447000AE2000F0CFF8202000F0CCF8102000F0A3
:10448000C9F8B02000F0C6F8C82000F0C3F800203A
:1044900000F0C0F8102000F0BDF8402000F0BAF89D
:1044A000812000F0B7F8FF2000F0B4F8A12000F060
:1044B000B1F8A62000F0AEF8A82000F0ABF83F203D
:1044C00000F0A8F8A42000F0A5F8D32000F0A2F88E
:1044D000002000F09FF8D52000F09CF8F02000F0BC
:1044E00099F8D92000F096F8222000F093F8DA200D
:1044F00000F090F8122000F08DF8DB2000F08AF830
:10450000202000F087F88D2000F084F8142000F0BF
:1045100081F8AF2000F07EF80020FFF795FF00F053
:104520000FF803480021018041800121417110BD35
:1045300010000020014A10805180704710000020B8
:1045400070B50C4D002400BF04F1B000C0B200F003
:1045500061F8002000F05EF8102000F05BF805EB39
:10456000C410802100F068F8641CE4B2082CEBD37E
:1045700070BD0000580000202DE9FF4F83462448FD
:104580009246CEB202883244802A06D281464088C2
:10459000C1F307273844402803D3002004B0BDE806
:1045A000F08F002528E000BFABF1200010FB075082
:1045B0003AF8108000241CE008FA04F0000409D541
:1045C00099F8021099F8000029442044C9B2C0B2F9
:1045D000039A0BE00398C0B15FF0000299F8021053
:1045E00099F8000029442044C9B2C0B2FFF70CFF7B
:1045F000641CA642E0D86D1CAF42D5D8B9F80010B3
:1046000058463144A9F80010C8E70122E6E7000047
:104610001000002001B584B001214FF0FF3204A842
:104620008DE807000B46002278210248FCF714FFB2
:1046300005B000BD2C0700200EB54FF0FF3289B247
:104640008DE807000123402278210248FCF704FF8F
:104650000EBD00002C070020F0B51D460E46174683
:1046600004460AE02B463A463146FFF785FF21789B
:10467000884201D0C8B2F0BD641C20780028F1D176
:10468000C0B2F0BD0248034942680348FCF70CBBC6
:104690002800002058040020840600200006101680
:1046A00000061016000000000000000001020304D4
:1046B00006070809000000000102030400000000D2
:1046C00000000000000000000000000000000000EA
:1046D000001000100010001000100010000000106A
:1046E0000000000000280028002800000000000052
:1046F000000000000000000000240024007C0024D2
:104700000048007C004800480000000000380054C9
:10471000005000380014005400540038001000000D
:1047200000200054005800300028005400140008F5
:10473000000000000010002800280010003400488D
:1047400000480034000000000010001000100000BD
:104750000000000000000000000000000008001041
:104760000020002000200020002000200010000871
:1047700000200010000800080008000800080008D9
:104780000010002000100038001000280000000079
:1047900000000000000000000000000000100010F9
:1047A000007C00100010000000000000000000006D
:1047B00000000000000000000000001000100010C9
:1047C00000000000000000000000003800000000B1
:1047D00000000000000000000000000000000000D9
:1047E0000000001000000000000800080010001089
:1047F00000100010002000200000000000380044DD
:10480000004400540044004400440038000000000C
:1048100000100030005000100010001000100010B8
:1048200000000000003800440044000400080010AC
:104830000020007C00000000003800440004001844
:1048400000040004004400380000000000080018C4
:10485000002800280048007C000800080000000034
:10486000007C004000400078000400040044003850
:10487000000000000038004400400078004400447C
:104880000044003800000000007C00040008001014
:10489000001000200020002000000000003800442C
:1048A0000044003800440044004400380000000088
:1048B0000038004400440044003C00040044003838
:1048C00000000000000000000010000000000000D8
:1048D00000000010000000000000000000000010B8
:1048E0000000000000000010001000100000000098
:1048F000000C003000400030000C00000000000000
:10490000000000000000007C0000007C00000000AF
:104910000000000000000000006000180004001803
:10492000006000000000000000380044000400089F
:1049300000100010000000100000000000380044CB
:10494000004C0054005C00400040003800000000B3
:1049500000100028002800280028007C00440044A3
:104960000000000000780044004400780044004447
:10497000004400780000000000380044004000407F
:104980000040004000440038000000000070004873
:10499000004400440044004400480070000000004F
:1049A000007C00400040007C004000400040007C53
:1049B00000000000007C0040004000780040004003
:1049C000004000400000000000380044004000406B
:1049D000005C004400440038000000000044004433
:1049E0000044007C004400440044004400000000F7
:1049F00000380010001000100010001000100038E7
:104A0000000000000004000400040004000400048E
:104A100000440038000000000044004800500060DE
:104A200000500048004800440000000000400040E2
:104A300000400040004000400040007C00000000BA
:104A40000044006C006C00540044004400440044E6
:104A50000000000000440064006400540054004C56
:104A6000004C0044000000000038004400440044B2
:104A70000044004400440038000000000078004476
:104A80000044004400780040004000400000000066
:104A900000380044004400440044004400540038FE
:104AA00000040000007800440044004400780048FE
:104AB000004800440000000000380044004000307E
:104AC000000800040044003800000000007C0010D2
:104AD0000010001000100010001000100000000076
:104AE00000440044004400440044004400440038B2
:104AF0000000000000440044004400280028002872
:104B00000010001000000000004400440054005455
:104B10000054006C00280028000000000044002819
:104B200000280010001000280028004400000000A9
:104B3000004400440028002800100010001000105D
:104B400000000000007C000400080010001000209D
:104B50000040007C00000000001800100010001051
:104B6000001000100010001000100018002000209D
:104B700000100010001000100008000800000000E5
:104B80000030001000100010001000100010001085
:104B90000010003000100028002800440000000031
:104BA0000000000000000000000000000000000005
:104BB0000000000000000000000000FE00200010C7
:104BC00000000000000000000000000000000000E5
:104BD0000000000000380044003C0044004C003459
:104BE0000000000000400040005800640044004401
:104BF000006400580000000000000000003800447D
:104C000000400040004400380000000000040004A0
:104C10000034004C00440044004C0034000000000C
:104C20000000000000380044007C004000440038D0
:104C300000000000000C0010007C001000100010AC
:104C40000010001000000000000000000034004CC4
:104C500000440044004C0034000400780040004050
:104C60000058006400440044004400440000000078
:104C70000010000000700010001000100010001064
:104C80000000000000100000007000100010001074
:104C900000100010001000E00040004000480050EC
:104CA0000060005000480044000000000070001048
:104CB0000010001000100010001000100000000094
:104CC00000000000007800540054005400540054C8
:104CD0000000000000000000005800640044004490
:104CE00000440044000000000000000000380044C0
:104CF00000440044004400380000000000000000B0
:104D00000058006400440044006400580040004023
:104D1000000000000034004C00440044004C00340B
:104D2000000400040000000000580064004000403F
:104D30000040004000000000000000000038004477
:104D4000003000080044003800000000002000206F
:104D50000078002000200020002000180000000043
:104D6000000000000044004400440044004C0034B3
:104D7000000000000000000000440044002800285B
:104D80000028001000000000000000000054005443
:104D90000054006C00280028000000000000000003
:104DA000004400280010001000280044000000000B
:104DB00000000000004400440028002800100010FB
:104DC0000010006000000000007C000800100020BF
:104DD0000040007C000000000018001000100010CF
:104DE000002000200010001000100018001000101B
:104DF0000010001000100010001000100010001033
:104E00000030001000100010000800080010001012
:104E1000001000300000000000000074004C000092
:104E20000000000000000000000000000000000082
:104E30000000000000000000000000000000000072
:104E40000000000000000000000000000000000C56
:104E5000000C000C000C000C000C000C000C000CF2
:104E6000000C000C0000000C000C00000000000012
:104E70000000001B001B001B001B001B00000000AB
:104E80000000000000000000000000000000000022
:104E90000000000000008019801980198019C07F6F
:104EA000C07F80190033C07FC07F003300330033E0
:104EB00000330000000000000000001E003F80756D
:104EC00080650074003C001E0007800580658065D9
:104ED0008075003F001E0004000400000000007008
:104EE00000D840D8C0D880D900730006000C801BC1
:104EF000C036C066C046C006800300000000000047
:104F00000000001E003F003300330033001E000C81
:104F1000C03CC066806380618063C03E801C00002E
:104F2000000000000000000C000C000C000C000C45
:104F30000000000000000000000000000000000071
:104F400000000000000000008000000100030006D7
:104F500000060004000C000C000C000C000C000CFF
:104F6000000400060006000300018000002000107D
:104F70000018000C000C00040006000600060006E5
:104F8000000600060004000C000C001800100020B1
:104F90000000000C002D003F001E00330000000048
:104FA0000000000000000000000000000000000001
:104FB00000000000000000000000000C000C000CCD
:104FC000000CC0FFC0FF000C000C000C000C000027
:104FD00000000000000000000000000000000000D1
:104FE00000000000000000000000000000000000C1
:104FF0000000000C000C0004000400080000000089
:105000000000000000000000000000000000001E82
:10501000001E000000000000000000000000000072
:105020000000000000000000000000000000000080
:1050300000000000000000000000000C000C000058
:10504000000000000000000300030003000600064B
:1050500000060006000C000C000C000C00180018E4
:1050600000180000000000000000001E003F003398
:10507000806180618061806D806D80618061806110
:105080000033003F001E000000000000000000068A
:10509000000E001E00360026000600060006000670
:1050A00000060006000600060006000000000000E2
:1050B0000000001E003F807380618061800100035A
:1050C0000006000C001800300060807F807F000028
:1050D000000000000000001C003E006300630003AD
:1050E000000E000E00038001800180618073003F8C
:1050F000001E00000000000000000006000E000E70
:10510000001E001E0016003600360066807F807F7D
:105110000006000600060000000000000000007FFE
:10512000007F006000600060006E007F806380018F
:10513000800180618073003F001E000000000000BD
:105140000000001E003F803380610060006E007F21
:1051500080738061806180618033003F001E0000A9
:10516000000000000000807F807F800100030003BA
:1051700000060006000C000C000C000800180018C7
:1051800000180000000000000000001E003F8063C7
:10519000806180610021001E003F8061806180612C
:1051A0008061003F001E0000000000000000001EA3
:1051B000003F00738061806180618073803F801D4B
:1051C000800180610073003F001E000000000000AD
:1051D00000000000000000000000000C000C0000B7
:1051E00000000000000000000000000C000C0000A7
:1051F00000000000000000000000000000000000AF
:10520000000C000C00000000000000000000000C7A
:10521000000C000400040008000000000000000072
:1052200080008003000E003800600038000E80030C
:1052300080000000000000000000000000000000EE
:10524000000000000000807F807F00000000807F61
:10525000807F00000000000000000000000000004F
:10526000000000000000000000400070001C00076B
:1052700080010007001C00700040000000000000DA
:10528000000000000000001F803FC071C060C0002F
:10529000C00180030007000E000C000C0000000C91
:1052A000000C0000000000000000001E003F8031E4
:1052B00080718063806F806D806D806F806700601B
:1052C0000032003E001C0000000000000000000E44
:1052D000000E001B001B001B001B80318031803F33
:1052E000803F8031C060C060C060000000000000EE
:1052F0000000007C007E0063006300630063007EAA
:10530000007E0063806180618063007F007E00001A
:10531000000000000000001E003F8031806100603E
:105320000060006000600060006080618031003FCC
:10533000001E0000000000000000007C007F0063F1
:1053400080638061806180618061806180610063D1
:105350000063007E007C0000000000000000807FF1
:10536000807F0060006000600060007F007F006060
:10537000006000600060807F807F0000000000000F
:105380000000807F807F0060006000600060007F20
:10539000007F00600060006000600060006000004E
:1053A000000000000000001E003F803180610060AE
:1053B0000060006080638063806180618031803F35
:1053C000001E00000000000000008061806180611C
:1053D000806180618061807F807F80618061806189
:1053E0008061806180610000000000000000003FDB
:1053F000003F000C000C000C000C000C000C000C1A
:10540000000C000C000C003F003F000000000000FA
:105410000000800180018001800180018001800105
:1054200080018001806180618073003F001E000068
:10543000000000000000C06080610063006600663C
:10544000006C0078007C006600660063806180610B
:10545000C06000000000000000000060006000600C
:10546000006000600060006000600060006000603C
:105470000060807F807F0000000000000000C0719D
:10548000C071C07BC07AC06AC06AC06EC064C060B0
:10549000C060C060C060C060C0600000000000006C
:1054A000000080718071807980798079806D806D55
:1054B000806D80658067806780678063806300009F
:1054C000000000000000001E003F0033806180618A
:1054D0008061806180618061806180610033003F14
:1054E000001E0000000000000000007E007F8063BE
:1054F0008061806180618063007F007E0060006069
:105500000060006000600000000000000000001E5D
:10551000003F0033806180618061806180618061D3
:10552000806580670033803F401E0000000000005F
:105530000000007E007F8063806180618063007F67
:10554000007E00660063006380618061C0600000CF
:10555000000000000000000E001F8031803100308C
:105560000038001E00078003806180618031003FA9
:10557000001E0000000000000000C0FFC0FF000C83
:10558000000C000C000C000C000C000C000C000CBB
:10559000000C000C000C0000000000000000806106
:1055A00080618061806180618061806180618061F3
:1055B000806180618073003F001E000000000000D9
:1055C0000000C060C060C060803180318031001B4D
:1055D000001B001B001B000E000E000E000400004C
:1055E000000000000000C0C0C0C0C0C0C0C0C0C03B
:1055F000C0CC804C804C805E805280528073806131
:1056000080610000000000000000C0C08060806178
:105610000033003B001E000C000C001E001F003B6E
:1056200080718061C0C00000000000000000C0C0A8
:105630008061806100330033001E001E000C000CEE
:10564000000C000C000C000C000C0000000000001E
:105650000000803F803F8001000300030006000C33
:10566000000C0018001800300060807F807F000070
:1056700000000000000F000F000C000C000C000CDC
:10568000000C000C000C000C000C000C000C000CBA
:10569000000C000C000F000F00000018001800188C
:1056A000000C000C000C000C0006000600060006B2
:1056B000000300030003000000000000001E001EA5
:1056C00000060006000600060006000600060006AA
:1056D000000600060006000600060006001E001E6A
:1056E0000000000C000C001E00120033003380612B
:1056F00080610000000000000000000000000000C9
:105700000000000000000000000000000000000099
:105710000000000000000000000000000000000089
:1057200000000000E0FF0000000000380018000C3E
:105730000000000000000000000000000000000069
:105740000000000000000000000000000000000059
:10575000000000000000001F803F80618001801F6A
:10576000803F80618063807FC038000000000000BF
:1057700000000060006000600060006E007F8073C9
:1057800080618061806180618073007F006E0000B5
:105790000000000000000000000000000000001EEB
:1057A000003F807380610060006080618073003F13
:1057B000001E000000000000000080018001800148
:1057C0008001801D803F8073806180618061806185
:1057D0008073803F801D000000000000000000007A
:1057E000000000000000001E003F00738061807F09
:1057F000807F00608071003F001E000000000000FC
:105800000000C007C00F000C000C807F807F000CE0
:10581000000C000C000C000C000C000C000C000034
:10582000000000000000000000000000801D803F1C
:10583000807380618061806180618073803F801DA2
:1058400080018063007F003E000000600060006017
:105850000060006F807F8071806180618061806105
:10586000806180618061000000000000000000068F
:10587000000600000000003E003E00060006000694
:1058800000060006000600060006000000000000FA
:105890000006000600000000003E003E0006000674
:1058A0000006000600060006000600060006004688
:1058B000007E003C000000600060006000608061CD
:1058C00000630066006C007C00760063006380610A
:1058D000C0600000000000000000003E003E000626
:1058E0000006000600060006000600060006000688
:1058F0000006000600060000000000000000000096
:1059000000000000000080DDC0FFC0CEC0CCC0CCD5
:10591000C0CCC0CCC0CCC0CCC0CC000000000000CB
:1059200000000000000000000000006F807F807118
:105930008061806180618061806180618061000040
:105940000000000000000000000000000000001E39
:10595000003F807380618061806180618073003F5F
:10596000001E000000000000000000000000000019
:10597000006E007F807380618061806180618073D0
:10598000007F006E006000600060006000000000AA
:1059900000000000801D803F807380618061806115
:1059A00080618073803F801D8001800180018001C3
:1059B000000000000000000000000067803F003988
:1059C0000030003000300030003000300030000087
:1059D0000000000000000000000000000000001EA9
:1059E000803F80610060007F803F80018061007F98
:1059F000001E000000000000000000000008001869
:105A00000018007F007F0018001800180018001808
:105A10000018801F800F0000000000000000000040
:105A20000000000000008061806180618061806111
:105A3000806180618063807F803D00000000000005
:105A400000000000000000000000C06080318031D4
:105A50008031001B001B001B000E000E0006000022
:105A6000000000000000000000000000000080DDD9
:105A700080DD80DD0055005500550077007700225D
:105A800000220000000000000000000000000000F4
:105A90000000806100330033001E000C000C001E6B
:105AA00000330033806100000000000000000000AF
:105AB0000000000080618061803100330033001BF2
:105AC000001B001B000E000E000E001C007C00706E
:105AD00000000000000000000000C07FC07F8001C7
